:020000040800F2
:10000000F006002031020008AB1700089F1300081B
:10001000A9170008C30600085F19000800000000C7
:10002000000000000000000000000000AF17000802
:10003000C506000800000000AD170008B117000851
:100040004B0200084B0200084B0200084B0200085C
:100050004B0200084B0200084B0200084B0200084C
:100060004B0200084B0200084B0200084B0200083C
:100070004B0200084B0200084B0200084B0200082C
:100080004B0200084B0200084B0200084B0200081C
:100090004B0200084B0200084B0200084B0200080C
:1000A0004B0200084B0200084B0200084B020008FC
:1000B000451800084B0200084B0200084B020008DC
:1000C0004B0200084B0200084B0200084B020008DC
:1000D0004B0200084B0200084B0200084B020008CC
:1000E0004B0200084B0200084B0200084B020008BC
:1000F0004B0200084B0200084B0200084B020008AC
:100100004B0200084B0200084B0200084B0200089B
:100110004B0200084B0200084B0200084B0200088B
:100120004B0200084B0200084B0200084B0200087B
:100130004B0200084B0200084B0200084B0200086B
:100140004B0200084B0200084B0200084B0200085B
:100150004B0200084B0200084B0200084B0200084B
:100160004B0200084B0200084B0200084B0200083B
:100170004B0200084B0200084B0200080000000080
:100180004B0200084B02000800F002F800F041F8B2
:100190000AA090E8000C82448344AAF10107DA45E2
:1001A00001D100F036F8AFF2090EBAE80F0013F0F3
:1001B000010F18BFFB1A43F001031847E41A0000AF
:1001C000041B0000103A24BF78C878C1FAD852073F
:1001D00024BF30C830C144BF04680C6070470000C1
:1001E0000023002400250026103A28BF78C1FBD840
:1001F000520728BF30C148BF0B607047642900F028
:10020000C380002070471FB501F038FD1FBD10B539
:1002100010BD00F021FA1146FFF7F5FF01F0B8FB21
:1002200000F03FFA03B4FFF7F2FF03BC00F042FA1C
:100230000948804709480047FEE7FEE7FEE7FEE77A
:10024000FEE7FEE7FEE7FEE7FEE7FEE704480549B6
:10025000054A064B70470000351800088901000860
:10026000F0000020F0060020F0020020F002002044
:1002700053EA020C00F069802DE9F04B4FF00006C4
:10028000002B1FBFB3FA83F503FA05F424FA05F631
:100290005E4012BF1643B2FA82F502FA05F4C5F1C8
:1002A00020051EBF22FA05FC44EA0C04203556EA5C
:1002B000044C4FEA144418BF641C4FF000084FF080
:1002C0000009904271EB030C39D3002919BFB1FA30
:1002D00081F701FA07F6B0FA80F700FA07F6C7F1DE
:1002E00020071EBF20FA07FC46EA0C062037B6FBA3
:1002F000F4FCA7EB0507103F07F01F0BCBF120061E
:100300000CFA0BFB2CFA06F644BFB3460026202F4E
:10031000A4BF5E464FF0000B5BEA060C08BF4FF02F
:10032000010B19EB0B09ABFB027C48EB0608C01B69
:1003300006FB02CC0BFB03CC71EB0C01C1E70B46B7
:10034000024641464846BDE8F08B13B54FF0000029
:100350004FF00001AFF30080BDE81C407047000083
:100360000FB41CB5074B06AA7B446946009005985C
:1003700000F055F90020694600F064F91CBC5DF8F6
:1003800014FB0000D90200002DE9F04106460024CC
:1003900010687529314616A510D0AFF300800028EB
:1003A00002DA404213A507E031688A0701D512A599
:1003B00002E0490704D511A5012401E0AFF3008054
:1003C00000210A2206F1240709E0B0FBF2FCB0FB91
:1003D000F2F302FB1C00303078541846491C002808
:1003E000F3D123462A463046BDE8F04100F0B9B8C3
:1003F000000000002D0000002B0000002000000085
:100400002DE9F0474FF0000A89460446C0F820A0C5
:100410002046E1688847002876D0252806D0D4E910
:1004200001219047206A401C2062F1E7E1682046E4
:1004300000258847C4F81CA006460027C4F818A069
:100440002A2E09D0304601F09BFA38B304EB870816
:10045000303EC8F8186019E059F8041B204604EB38
:1004600087029161E1688847012F064618D1E0694B
:10047000002820DA25F020051DE0D8F8180000EB50
:10048000800006EB40003038C8F818002046E168CC
:100490008847064601F074FA0028EED1012F0AD0F1
:1004A0002E2E08D12046E16888477F1C0646022F81
:1004B00045F02005C4DBA069002803DA404245F07E
:1004C0000105A061E80701D025F01005B6B1A6F13D
:1004D0004100192802D8203645F400654A463146C5
:1004E000204625604D46FFF789FE58B1012806D009
:1004F000ED1D25F0070000F1080989E704E005F18A
:10050000040985E730468AE7206ABDE8F0874FF0A6
:10051000000200B5134694469646203922BFA0E853
:100520000C50A0E80C50B1F12001BFF4F7AF09075F
:1005300028BFA0E80C5048BF0CC05DF804EB890050
:1005400028BF40F8042B08BF704748BF20F8022B93
:1005500011F0804F18BF00F8012B704770477047AB
:1005600070472DE9F0470D4699469246044600F142
:1005700024080168880604D5E06921F01001216093
:1005800000E00120A84201DD471B00E00027A1692F
:100590007A1902EB0900081AA0612078C00602D47B
:1005A0002046AFF30080002608E0D4E901211AF8C4
:1005B00006009047206A401C761C20624E45F4DB02
:1005C0002078C0060AD52046AFF3008006E0D4E9C3
:1005D000012130209047206A401C2062381EA7F17C
:1005E0000107F4DC07E0D4E9012118F80500904781
:1005F000206A401C2062281EA5F10105F3DC20467C
:10060000AFF300802078000602D50220BDE8F08715
:100610000120FBE701694A1C02610878704700B5B8
:100620008FB0CDE901310021059105497944CDE92B
:10063000031011466846FFF7E3FE0FB000BD00004F
:10064000E5FFFFFF0A6802F8010B0A60704700002F
:1006500000487047900000207546FFF7F9FFAE464E
:1006600005006946534620F00700854618B020B5BE
:10067000FFF7ECFDBDE820404FF000064FF000070B
:100680004FF000084FF0000B21F00701AC46ACE83A
:10069000C009ACE8C009ACE8C009ACE8C0098D46A7
:1006A000704710B50446AFF300802046BDE8104007
:1006B000FFF7B8BD01491820ABBEFEE726000200D7
:1006C0007047FEE77047000070B5044600F00CF973
:1006D0000546601C02D004480078044400F004F988
:1006E000401BA042FAD370BD380000202DE9F84F1E
:1006F000DFF8B8A10022012403254FF00F090AF109
:10070000040BAAF1040E00BF0B6804FA02F6334092
:10071000B34273D10F7907F00307012F01D0022FE5
:1007200016D187684FEA420805FA08FC27EA0C0749
:10073000D1F80CC00CFA08FC4CEA070CC0F808C051
:100740004768B7430E79C6F3001696403E434660AD
:100750000E79F643B6070DD0C768560005FA06FCB9
:1007600027EA0C07D1F808C00CFA06FC4CEA070C83
:10077000C0F80CC00E7906F00306022E10D1D60880
:1007800000EB8608D8F8206057074FEAD76C09FAC3
:100790000CF7BE430F6907FA0CF73743C8F820700F
:1007A00006684FEA420C05FA0CF7BE430F7907F0D2
:1007B000030707FA0CF7374307604E6816F4403F0B
:1007C0006DD03B4E376847F480473760366822F07B
:1007D000030706F480460096364E07EB060CDCF85D
:1007E000086897073F0F09FA07F826EA0806DFF8B6
:1007F000C880404503D14FF000081EE04FE0DFF80D
:10080000BC80404502D14FF0010816E0DFF8B0800F
:10081000404502D14FF002080FE0DFF8A8804045C4
:1008200002D14FF0030808E0DFF89C80404502D178
:100830004FF0040801E04FF0070808FA07F848EA0B
:100840000608CCF80888DAF800605746D1F804C0EA
:100850009E435FEACC2C00D51E433E60DBF800606F
:100860005F46D1F804C09E435FEA8C2C00D51E433E
:100870003E60DEF800607746D1F804C09E435FEA30
:100880008C3C00D51E433E60084F083F3E68D1F8BF
:1008900004C09E435FEACC3C00D51E433E60521C20
:1008A000102AFFF431AFBDE8F88F0000083C01408A
:1008B0004438024000300140000002400004024081
:1008C00000080240000C024000100240426921EA88
:1008D00002030A4043EA0241816170470AB1816123
:1008E00070470904FBE7000001488068704700007A
:1008F0003800002002488168027811448160704706
:10090000380000200B4810B5016841F40071016007
:10091000016841F480610160016841F48071016007
:10092000032000F06FF80F2000F006F800F024F824
:10093000002010BD003C024070B50D4D04464FF440
:100940007A712878B1FBF0F00A490968B1FBF0F040
:1009500000F01CFB48B9102C07D200222146501E83
:1009600000F030F800206C6070BD012070BD000008
:1009700038000020440000200A4808B5016841F40E
:1009800080410160006800F4804000900548001F2D
:10099000016841F080510160006800F080500090D3
:1009A00008BD000044380240002809DB00F01F02A7
:1009B000012191404009800000F1E020C0F80011C1
:1009C00070470000F0B40E4B1B680C46C3F30223C3
:1009D000C3F10705042D00D90425191D072901D2EB
:1009E000002300E0DB1E012606FA05F1491E214026
:1009F00099409E40761E16403143F0BC00F0B0BFD7
:100A00000CED00E0064900F0070208684FF6FF030E
:100A1000184040EA0220034A104308607047000073
:100A20000CED00E00000FA052DE9F0470E46050048
:100A300065D0DFF81481D8F80000F7B200F00700A5
:100A4000B04207D288F80070D8F8000000F0070024
:100A5000B04254D128683D4C810712D5400703D5D8
:100A6000206840F4E05020602878000703D5206813
:100A700040F4604020602068A96820F0F00008433E
:100A800020602878C0072DD03049686808390128CF
:100A900012D0022813D0032811D009688907002931
:100AA0002DDA216821F0030101432160FFF71CFFCB
:100AB000814641F2883A0EE009688903EFE7096848
:100AC0008901ECE7FFF710FFA0EB0901514502D9BE
:100AD0000320BDE8F0872068696800F00C00B0EBE7
:100AE000810FEFD1D8F80010404601F00701B14264
:100AF00007D90770006800F00700B04201D001205C
:100B0000E7E72878400705D52068E96820F4E05039
:100B1000084320602878000706D52068296920F45A
:100B2000604040EAC100206000F048F82168084AAF
:100B3000C1F30311515CC8400649086006480068CB
:100B4000FFF7FAFE0020C4E7003C024008380240EC
:100B5000861C0008440000203C0000200F22026098
:100B60000C4A136803F003034360136803F0F003B7
:100B70008360136803F4E053C36012684FF4E053DA
:100B800003EAD20202610448006800F0070008602E
:100B90007047000008380240003C02400448054904
:100BA00000680968044AC1F38221515CC84070475B
:100BB0004400002008380240961C0008154810B573
:100BC000006810F00C02144813D01449042A0FD006
:100BD000082A0ED10F4C241F2268236802F03F021E
:100BE0005B0207D52068C0F38810A0FB010106E076
:100BF000084610BD2168C1F38811A1FB0001002344
:100C0000FFF736FB2168C1F30141491C4900B0FBE5
:100C1000F1F010BD083802400024F400406F40019C
:100C20002DE9F84F04006ED02078DFF84C93C00710
:100C3000A9F104054AD009F104000168C1F381015A
:100C4000012908D00068C0F3810002280AD1D9F830
:100C50000000400206D52868800337D56068002868
:100C6000E1D033E06068B0F5803F10D0B0F5A02F40
:100C7000286810D020F480302860286820F4802074
:100C800028606068A8B1FFF72FFE06460DE02868CF
:100C900040F48030F4E740F480202860F7E700BF9C
:100CA000FFF722FE801B642873D828688003F7D5DD
:100CB0000CE0FFF719FE064605E000BFFFF714FE43
:100CC000801B6428F0D828688003F7D42078DFF8E8
:100CD000AC8280074FF0000A3ED5A748001D01688E
:100CE00011F00C0F08D00068C0F3810002280BD16E
:100CF000D9F80000400207D42868800716D5E068BC
:100D0000012800D112E033E1E068B8B10120C8F851
:100D10000000FFF7E9FD064605E000BFFFF7E4FD30
:100D2000801B0228C0D828688007F7D52868216969
:100D300020F0F80040EAC10028600DE0C8F800A0EB
:100D4000FFF7D2FD064604E0FFF7CEFD801B022828
:100D50001FD828688007F7D42078000722D5864F4F
:100D600087486169703771B101210160FFF7BCFDEF
:100D7000064604E0FFF7B8FD801B022809D8386852
:100D80008007F7D50EE0C0F800A0FFF7ADFD0646DE
:100D900005E082E0FFF7A8FD801B02287DD83868B7
:100DA0008007F7D42078400768D5DFF8CCB100275A
:100DB0000BF13C0BDBF80000C0000BD4DBF800109B
:100DC00041F08051CBF80010DBF80000012700F063
:100DD000805000906B4E3068C00510D4306840F4ED
:100DE00080703060FFF780FD009005E0FFF77CFD2C
:100DF0000099401A022850D83068C005F6D55E4EDA
:100E0000A0686C3601280FD00528306810D020F07B
:100E100001003060306820F004003060A068B8B194
:100E2000FFF762FD00900FE0306840F00100F4E74A
:100E300040F004003060F7E7FFF756FD0099411AD3
:100E400041F28830814266D830688007F4D50EE0E0
:100E5000FFF74AFD009007E0FFF746FD0099411AB1
:100E600041F28830814256D830688007F4D42FB1DF
:100E7000DBF8001021F08051CBF80010A069C8B356
:100E80003D49091D0968C1F3810102294AD00228A0
:100E9000504607D0C8F8600000E03CE0FFF724FDB2
:100EA00004463BE04746C8F86000FFF71DFD0646D4
:100EB00005E000BFFFF718FD801B02282BD828682B
:100EC0008001F7D4D4E907010843A16A2E4A4908F2
:100ED00002EB0141626A41EA8211084394F82C1046
:100EE00040EA0161C9F8001001203866FFF7FCFCF8
:100EF000044606E03EE000BFFFF7F6FC001B0228B8
:100F000009D828688001F7D534E000BFFFF7ECFC72
:100F1000001B022802D90320BDE8F88F2868800151
:100F2000F4D427E00128F7D0D9F80000E26900F4F2
:100F3000800191421CD1226A00F03F01914217D1F9
:100F400047F6C071626A0140B1EB821F10D1A26AFC
:100F50004FF0FF3300F4403103EB5202B1EB024F8C
:100F600006D194F82C1000F07060B0EB016F01D046
:100F70000120D1E70020CFE70438024000004742BB
:100F8000800E4742007000400000FFFF10B5401E79
:100F9000B0F1807F01D3012010BD4FF0E0246061EB
:100FA0000F21601700F0DCFC0020A0610720206109
:100FB000002010BD7047704770B590F83C20012AA2
:100FC0002CD0012480F83C40022280F83D200368A8
:100FD0005A689D6822F070060A6832435A60104BC6
:100FE00002689A420ED0B2F1804F0BD00D4B9A425C
:100FF00008D00D4B9A4205D00C4B9A4202D00C4BB4
:101000009A4204D1496825F080031943916080F821
:101010003D40002180F83C10084670BD022070BDA4
:10102000000001400004004000080040000C0040A7
:101030000040014010B5040003D094F83D0010B109
:1010400007E0012010BD002084F83C00204600F09D
:101050001FF8022084F83D00211D206800F0F8FBF5
:10106000012084F8460084F83E0084F83F0084F8AC
:10107000400084F8410084F8420084F8430084F87A
:10108000440084F8450084F83D00002010BD0000B5
:1010900008B50068B0F1804F12D10A48016841F0EC
:1010A000010101600068002200F00100009011467B
:1010B0001C20FFF787FCBDE808401C20FFF774BC2C
:1010C00008BD00004038024090F83D10012901D0D1
:1010D00001207047022180F83D100168CA6842F083
:1010E0000102CA6000680E4988420ED0B0F1804FFC
:1010F0000BD00C49884208D00B49884205D00B49D7
:10110000884202D00A49884204D1816801F007016F
:10111000062903D0016841F00101016000207047F9
:10112000000001400004004000080040000C0040A6
:101130000040014070B5044690F83C0000250128AD
:1011400017D0012684F83C60022084F83D00206816
:10115000826822F0770222F47F4282600868502879
:1011600038D00DDC20284FD005DC90B3102811D1E9
:101170004AE0022070BD302846D040280AD13BE02A
:1011800060282FD070280DD0B0F5805F03D0B0F567
:10119000005F12D0012584F83D60002084F83C00F7
:1011A000284670BDCB68D1E90121206800F0A2FB80
:1011B0002068816841F0770109E0CB68D1E901211D
:1011C000206800F097FB2068816841F480418160CD
:1011D000E1E719E0CA684968206800F09DFB5021EA
:1011E000206806E0CA684968206800F0A6FB602114
:1011F000206800F089FBCEE7CA684968206800F0E3
:101200008BFB40212068F4E7226801461046F0E796
:1012100070472DE9F04104460068C66805694FF043
:101220000007A90713D5B10711D5F91E01610120E7
:101230002077206880698007204602D0FFF7E8FF0A
:1012400004E000F07EF8204600F07CF8277768077D
:1012500016D5700714D521686FF0040008610220CC
:1012600020772068806910F4407F204602D0FFF785
:10127000CFFF04E000F065F8204600F063F8277720
:10128000280715D5300713D521686FF008000861CD
:10129000042020772068C0698007204602D0FFF72D
:1012A000B7FF04E000F04DF8204600F04BF8277738
:1012B000E80616D5F00614D521686FF01000086115
:1012C000082020772068C06910F4407F204602D0B3
:1012D000FFF79EFF04E000F034F8204600F032F8FB
:1012E0002777E80708D0F00706D021686FF00100E3
:1012F0000861204600F028F8280608D5300606D5F3
:1013000021686FF0800008612046FFF753FE6806F1
:1013100008D5700606D521686FF0400008612046A8
:1013200000F03CF8A8060AD5B00608D521686FF091
:10133000200008612046BDE8F041FFF73CBEBDE853
:10134000F08170477047000010B50068B0F1804F21
:101350001FD101210F48FFF7B9FA0F484168491C16
:1013600041600A2915D10021416082680123521C85
:10137000826003703C2A0CD18160C268521CC2603A
:101380003C2A06D1C1600269521C0261182A00D1B0
:10139000016110BD00080240240000207047FEE7F4
:1013A0002DE9F04106AC94E8E0101E4CA061A1804C
:1013B000E280236225826682A782A4F816C000F02C
:1013C0005FF8022020702820A0701420FFF77CF91D
:1013D000032000F043F90520FFF776F9032000F021
:1013E0003DF90120FFF770F9032000F037F90120E3
:1013F000FFF76AF9022000F031F90120FFF764F9E4
:101400000F2000F04FF9012000F04CF90320FFF706
:101410005BF9282000F046F9BDE8F0410320FFF712
:1014200053B900000000002010B5094C0122E188EA
:10143000A069FFF753FA0A2000F06CF80022E18857
:10144000A069FFF74BFABDE810403C2000F062B8FD
:10145000000000201FB5024603A16846FEF780FF8A
:10146000684600F076F81FBD2564000002000348BE
:101470008188806900D00122FFF730BA0000002087
:1014800000B587B005A96846FFF768FB0398A8B3C5
:10149000FFF784FB5FEA400000F0DFFA9FED191BC5
:1014A00053EC112B00F0ECFA00F0AAFA17490A6885
:1014B00042F002020A6016490A6822F010020A602D
:1014C0000A6822F001020A600A6822F004020A6037
:1014D0000A6842F008020A600D492831401E08607F
:1014E0000920091D08600A49012014310860081FFD
:1014F000016821F00101016007B000BDFFE7FFF7BF
:101500004DFBC9E78DEDB5A0F7C6B03E40380240AF
:10151000000400400949401E086008481C38016862
:1015200021F00101016005492C390A6842F00102ED
:101530000A600168C907FCD0704700002C04004015
:1015400010B5012000F0AEF8BDE810400320FFF711
:10155000BBB870B50646002409E00120FFF786FFFE
:10156000284600F009F8641CE4B2102C02D2355D64
:10157000002DF2D170BD00002DE9F84F0209364C64
:1015800002F0080302F0040B217802F0020902F0D5
:10159000010700F0080A00F0040600F0020500F060
:1015A0000108009301292FD0022952D13A46218AFD
:1015B000206AFFF793F94A46618A206AFFF78EF99D
:1015C0005A46A18A206AFFF789F9E18A009A206ABF
:1015D000FFF784F9FFF728FF4246218A206AFFF7C8
:1015E0007DF92A46618A206AFFF778F93246A18A96
:1015F000206AFFF773F95246E18A206AFFF76EF915
:10160000BDE8F84FFFF710BF42462189E069FFF7B8
:1016100065F92A466189E069FFF760F93246A189D8
:10162000E069FFF75BF95246E189E069FFF756F997
:101630003A46218A206AFFF751F94A46618A206AB0
:10164000FFF74CF95A46A18A206AFFF747F9009A3A
:10165000D2E7BDE8F88F00000000002070B5054615
:101660000020FFF703FF0E4C05F00102218A206ADB
:10167000FFF734F905F00202618A206AFFF72EF9BC
:1016800005F00402A18A206AFFF728F905F0080294
:10169000E18A206AFFF722F9BDE87040FFF7C4BE77
:1016A0000000002010B504460020FFF7DFFE2046B2
:1016B000BDE81040FFF760BFF0B587B01421684661
:1016C000FEF725FF1C480024016841F080010160FD
:1016D000016801F080010591016841F00401016099
:1016E000016801F004010591016841F00101016008
:1016F0000068124E00F001000590002201213046E2
:10170000FFF7ECF80E4F00227F213846FFF7E6F88E
:1017100001250095CDE90154694630460394FEF752
:10172000E5FF7F200090CDE90154694638460394D7
:10173000FEF7DCFF07B0F0BD303802400008024081
:101740000000024010B586B00024164800940194B1
:101750000294039404944FF0804105940160292180
:10176000C0E9011442F20F71C0E903148461FFF76C
:1017700061FC08B172B6FEE74FF4805000906946F4
:101780000848FFF7D7FC08B172B6FEE7049404A935
:1017900004480594FFF710FC002801D072B6FEE75C
:1017A00006B010BD48000020FEE7FEE77047704716
:1017B000FFF7A0B830B593B030216846FEF7A7FE1A
:1017C00014210CA8FEF7A3FE18480024016841F07C
:1017D00080510160006800F0805011901448016849
:1017E00021F4404141F4004101600068012500F40A
:1017F0004040119028040694CDE900506846FFF758
:101800000FFA08B172B6FEE70F20CDE90C054FF4D0
:101810008050CDE90E4000210CA81094FFF704F988
:10182000002801D072B6FEE713B030BD4038024048
:10183000007000400248016841F470010160704787
:1018400088ED00E00148FFF7E4BC000048000020FC
:10185000F0B50268204B214C9F03214D214E984248
:1018600007D0B84205D0A04203D0A84201D0B04270
:1018700004D122F0700C4A6842EA0C02984210D05F
:10188000B8420ED0A0420CD0A8420AD0B04208D034
:10189000154CA04205D0154CA04202D0144CA042D9
:1018A00003D122F44074CA6822434C6922F08002BA
:1018B000224302608A68C2620A688262984201D149
:1018C00009690163012141610169C90703D0016907
:1018D00021F001010161F0BD000001400004004061
:1018E00000080040000C004000400140004401405E
:1018F0000048014010B5846842EA032224F47F4482
:101900000A432243826010BD826822F070020A43BB
:1019100042F007018160704710B5036A046A24F041
:1019200001040462846924F0F00444EA021423F000
:101930000A020A438461026210BD10B5036A046A98
:1019400024F010040462846923F0A00324F470449A
:1019500044EA023243EA01118261016210BDFEE7EE
:101960000907090E002804DB00F1E02080F80014CC
:10197000704700F00F0000F1E02080F8141D704760
:1019800030380A2801D2012070470020704700003B
:101990001FB5FEF7B7FFFFF70DFFFFF78DFEFFF74F
:1019A000D1FE1348FFF790FB40232022102108208E
:1019B0008DE80F000F48022203460121FFF7F0FCDB
:1019C0000D4C002520780028FCD0FFF7B9FD2069D8
:1019D000FFF740FD09A0FFF7BCFDE068FFF73AFD07
:1019E00006A0FFF7B6FDA068FFF734FD2570E9E714
:1019F0004800002000000240240000203A000000BF
:101A00004FEA1153A3F58063D3F11E03A8BFD3F1AE
:101A1000200C08DB4FF0004242EAC12252EA505249
:101A200032FA03F0704709420BD4102BC4BF0020D8
:101A3000704703F5787CBCF1FF3F05D04FF0FF30D5
:101A400070474FF00000704770B500F0C3F800BF5A
:101A50004992248000207047F0E7B0FA80F310FA32
:101A600003F10AD0C3F11D0303F580634FEA41502F
:101A70004FEA035202EBD12170474FF0000070474C
:101A8000DFF848C170B51CEA111E1EBF1CEA131511
:101A90009EEA0C0F95EA0C0F00F06F8081EA0304B8
:101AA00023EA4C134EEAD47E21EA4C1141F4801112
:101AB00043F48013AE44A1FB024CA0FB0365AEF1DE
:101AC0007F7E361955EB0C05A1FB034C4CF100034E
:101AD000A0FB021C16EB0C06654153F10003094202
:101AE00018BF46F0010613F4007F0BD14FEA033113
:101AF0004FEA0530340341EA155140EA16506FF0C1
:101B000003020AE04FEAC3214FEAC520F40241EA8A
:101B1000555140EA56506FF0020202EB2E4201EBA3
:101B2000025585EACE710AD05FEA440C18BF24F052
:101B3000004450F1000041F1000120EAD47040F26D
:101B4000FE7C624500D270BDA84214BF4FF08044B5
:101B50004FF04044002E08BF0024BEF1806FA8BFA4
:101B6000A1F1C041BDE8704080F282804FF00000DA
:101B700001F1C04101F0004170479EEA0C0F0CEAF0
:101B8000131518BF95EA0C0F06D04FF0000081EA3C
:101B9000030E0EF0004170BD00F01CF88900013EFC
:101BA00000F007B800F009B84FEA430C5FEA5C5C4C
:101BB00008D081EA030100F05BB84FEA410C5FEA0C
:101BC0005C5CF6D14FF00000014970470000FF0750
:101BD0000000F87F0EF1020E2EF0030E5EF8046B8B
:101BE000364205D4012A43EB030515F5001F12D830
:101BF000012841EB010C1CF5001F0CD80ED14FEA57
:101C0000D17C15F5001F0CEB4C0C0CF1020C08BF3D
:101C10004CEBD37C04E04FF0080C01E04FEAD37C9E
:101C20000CEB4C0526FA05F606F00706B6F1040C97
:101C300006D20EEB860CBDE870404CF0010C6047FC
:101C4000DFE80CF0090B02024FF000414FF00000FA
:101C5000A1F5002170BD19461046012851EB010481
:101C600018BFD4F5001484BF002001F0004170BDFE
:101C70000808A0F500114FEA310170474FF040709D
:101C8000E1EE100A704700000000000000000102B1
:101C90000304060708090000000001020304000015
:101CA000C01C00080000002048000000C40100081B
:101CB000081D000848000020A8060000E0010008F8
:101CC000010F3800000000000000000000000000CC
:101CD0000000000000000000000000000000000004
:101CE00000000000000000000000000000000000F4
:101CF0003300000009000000010000001000000097
:081D0000000000000024F400C3
:040000050800018965
:00000001FF
