:020000040800F2
:10000000B007002031020008FB1B00082917000878
:10001000F91B0008C3060008A31F00080000000029
:10002000000000000000000000000000FF1B0008AE
:10003000C506000800000000FD1B0008011C0008A8
:100040004B0200084B0200084B0200084B0200085C
:100050004B0200084B0200084B0200084B0200084C
:100060004B0200084B0200084B0200084B0200083C
:100070004B0200084B0200084B0200084B0200082C
:100080004B0200084B0200084B0200084B0200081C
:100090004B0200084B0200084B0200084B0200080C
:1000A0004B0200084B0200084B0200084B020008FC
:1000B0004B0200084B0200084B0200084B020008EC
:1000C0004B0200084B0200084B0200084B020008DC
:1000D0004B0200084B0200084B0200084B020008CC
:1000E0004B0200084B0200084B0200084B020008BC
:1000F0004B0200084B0200084B0200084B020008AC
:100100004B0200084B0200084B0200084B0200089B
:100110004B0200084B0200084B0200084B0200088B
:100120004B0200084B0200084B0200084B0200087B
:100130004B0200084B0200084B0200084B0200086B
:100140004B0200084B0200084B0200084B0200085B
:100150004B0200084B0200084B0200084B0200084B
:100160004B0200084B0200084B0200084B0200083B
:100170004B0200084B0200084B0200080000000080
:100180004B0200084B02000800F002F800F041F8B2
:100190000AA090E8000C82448344AAF10107DA45E2
:1001A00001D100F036F8AFF2090EBAE80F0013F0F3
:1001B000010F18BFFB1A43F001031847102200007B
:1001C00030220000103A24BF78C878C1FAD852070C
:1001D00024BF30C830C144BF04680C6070470000C1
:1001E0000023002400250026103A28BF78C1FBD840
:1001F000520728BF30C148BF0B607047642900F028
:10020000C380002070471FB502F0CEF81FBD10B5A7
:1002100010BD00F021FA1146FFF7F5FF01F0DAFEFC
:1002200000F03FFA03B4FFF7F2FF03BC00F042FA1C
:100230000948804709480047FEE7FEE7FEE7FEE77A
:10024000FEE7FEE7FEE7FEE7FEE7FEE704480549B6
:10025000054A064B70470000811C00088901000810
:10026000B0010020B0070020B0030020B003002040
:1002700053EA020C00F069802DE9F04B4FF00006C4
:10028000002B1FBFB3FA83F503FA05F424FA05F631
:100290005E4012BF1643B2FA82F502FA05F4C5F1C8
:1002A00020051EBF22FA05FC44EA0C04203556EA5C
:1002B000044C4FEA144418BF641C4FF000084FF080
:1002C0000009904271EB030C39D3002919BFB1FA30
:1002D00081F701FA07F6B0FA80F700FA07F6C7F1DE
:1002E00020071EBF20FA07FC46EA0C062037B6FBA3
:1002F000F4FCA7EB0507103F07F01F0BCBF120061E
:100300000CFA0BFB2CFA06F644BFB3460026202F4E
:10031000A4BF5E464FF0000B5BEA060C08BF4FF02F
:10032000010B19EB0B09ABFB027C48EB0608C01B69
:1003300006FB02CC0BFB03CC71EB0C01C1E70B46B7
:10034000024641464846BDE8F08B13B54FF0000029
:100350004FF00001AFF30080BDE81C407047000083
:100360000FB41CB5074B06AA7B446946009005985C
:1003700000F055F90020694600F064F91CBC5DF8F6
:1003800014FB0000D90200002DE9F04106460024CC
:1003900010687529314616A510D0AFF300800028EB
:1003A00002DA404213A507E031688A0701D512A599
:1003B00002E0490704D511A5012401E0AFF3008054
:1003C00000210A2206F1240709E0B0FBF2FCB0FB91
:1003D000F2F302FB1C00303078541846491C002808
:1003E000F3D123462A463046BDE8F04100F0B9B8C3
:1003F000000000002D0000002B0000002000000085
:100400002DE9F0474FF0000A89460446C0F820A0C5
:100410002046E1688847002876D0252806D0D4E910
:1004200001219047206A401C2062F1E7E1682046E4
:1004300000258847C4F81CA006460027C4F818A069
:100440002A2E09D0304601F0BDFD38B304EB8708F1
:10045000303EC8F8186019E059F8041B204604EB38
:1004600087029161E1688847012F064618D1E0694B
:10047000002820DA25F020051DE0D8F8180000EB50
:10048000800006EB40003038C8F818002046E168CC
:100490008847064601F096FD0028EED1012F0AD0CC
:1004A0002E2E08D12046E16888477F1C0646022F81
:1004B00045F02005C4DBA069002803DA404245F07E
:1004C0000105A061E80701D025F01005B6B1A6F13D
:1004D0004100192802D8203645F400654A463146C5
:1004E000204625604D46FFF789FE58B1012806D009
:1004F000ED1D25F0070000F1080989E704E005F18A
:10050000040985E730468AE7206ABDE8F0874FF0A6
:10051000000200B5134694469646203922BFA0E853
:100520000C50A0E80C50B1F12001BFF4F7AF09075F
:1005300028BFA0E80C5048BF0CC05DF804EB890050
:1005400028BF40F8042B08BF704748BF20F8022B93
:1005500011F0804F18BF00F8012B704770477047AB
:1005600070472DE9F0470D4699469246044600F142
:1005700024080168880604D5E06921F01001216093
:1005800000E00120A84201DD471B00E00027A1692F
:100590007A1902EB0900081AA0612078C00602D47B
:1005A0002046AFF30080002608E0D4E901211AF8C4
:1005B00006009047206A401C761C20624E45F4DB02
:1005C0002078C0060AD52046AFF3008006E0D4E9C3
:1005D000012130209047206A401C2062381EA7F17C
:1005E0000107F4DC07E0D4E9012118F80500904781
:1005F000206A401C2062281EA5F10105F3DC20467C
:10060000AFF300802078000602D50220BDE8F08715
:100610000120FBE701694A1C02610878704700B5B8
:100620008FB0CDE901310021059105497944CDE92B
:10063000031011466846FFF7E3FE0FB000BD00004F
:10064000E5FFFFFF0A6802F8010B0A60704700002F
:10065000004870474C0100207546FFF7F9FFAE4691
:1006600005006946534620F00700854618B020B5BE
:10067000FFF7ECFDBDE820404FF000064FF000070B
:100680004FF000084FF0000B21F00701AC46ACE83A
:10069000C009ACE8C009ACE8C009ACE8C0098D46A7
:1006A000704710B50446AFF300802046BDE8104007
:1006B000FFF7B8BD01491820ABBEFEE726000200D7
:1006C0007047FEE77047000070B5044600F004F97B
:1006D0000546601C02D004480078044400F0FCF891
:1006E000401BA042FAD370BD4C0000202DE9F84F0A
:1006F000DFF8B8A10022012403254FF00F090AF109
:10070000040BAAF1040E00BF0B6804FA02F6334092
:10071000B34273D10F7907F00307012F01D0022FE5
:1007200016D187684FEA420805FA08FC27EA0C0749
:10073000D1F80CC00CFA08FC4CEA070CC0F808C051
:100740004768B7430E79C6F3001696403E434660AD
:100750000E79F643B6070DD0C768560005FA06FCB9
:1007600027EA0C07D1F808C00CFA06FC4CEA070C83
:10077000C0F80CC00E7906F00306022E10D1D60880
:1007800000EB8608D8F8206057074FEAD76C09FAC3
:100790000CF7BE430F6907FA0CF73743C8F820700F
:1007A00006684FEA420C05FA0CF7BE430F7907F0D2
:1007B000030707FA0CF7374307604E6816F4403F0B
:1007C0006DD03B4E376847F480473760366822F07B
:1007D000030706F480460096364E07EB060CDCF85D
:1007E000086897073F0F09FA07F826EA0806DFF8B6
:1007F000C880404503D14FF000081EE04FE0DFF80D
:10080000BC80404502D14FF0010816E0DFF8B0800F
:10081000404502D14FF002080FE0DFF8A8804045C4
:1008200002D14FF0030808E0DFF89C80404502D178
:100830004FF0040801E04FF0070808FA07F848EA0B
:100840000608CCF80888DAF800605746D1F804C0EA
:100850009E435FEACC2C00D51E433E60DBF800606F
:100860005F46D1F804C09E435FEA8C2C00D51E433E
:100870003E60DEF800607746D1F804C09E435FEA30
:100880008C3C00D51E433E60084F083F3E68D1F8BF
:1008900004C09E435FEACC3C00D51E433E60521C20
:1008A000102AFFF431AFBDE8F88F0000083C01408A
:1008B0004438024000300140000002400004024081
:1008C00000080240000C0240001002400AB18161A1
:1008D00070470904FBE7000001488068704700008A
:1008E0004C00002002488168027811448160704702
:1008F0004C0000200B4810B5016841F40071016004
:10090000016841F480610160016841F48071016017
:10091000032000F061F80F2000F006F800F024F842
:10092000002010BD003C024070B50D4D04464FF450
:100930007A712878B1FBF0F00A490968B1FBF0F050
:1009400000F00EFB48B9102C07D200222146501EA1
:1009500000F022F800206C6070BD012070BD000026
:100960004C000020580000200A4808B5016841F4F6
:1009700080410160006800F4804000900548001F3D
:10098000016841F080510160006800F080500090E3
:1009900008BD000044380240F0B40E4B1B680C4602
:1009A000C3F30223C3F10705042D00D90425191D43
:1009B000072901D2002300E0DB1E012606FA05F11B
:1009C000491E214099409E40761E16403143F0BC9E
:1009D00001F0E8BA0CED00E0064900F007020868F3
:1009E0004FF6FF03184040EA0220034A1043086014
:1009F000704700000CED00E00000FA052DE9F0471B
:100A00000E46050065D0DFF81481D8F80000F7B273
:100A100000F00700B04207D288F80070D8F8000054
:100A200000F00700B04254D128683D4C810712D530
:100A3000400703D5206840F4E05020602878000784
:100A400003D5206840F4604020602068A96820F049
:100A5000F000084320602878C0072DD0304968682E
:100A60000839012812D0022813D0032811D00968B0
:100A7000890700292DDA216821F003010143216053
:100A8000FFF72AFF814641F2883A0EE009688903A0
:100A9000EFE709688901ECE7FFF71EFFA0EB09010A
:100AA000514502D90320BDE8F0872068696800F04D
:100AB0000C00B0EB810FEFD1D8F80010404601F0E8
:100AC0000701B14207D90770006800F00700B04283
:100AD00001D00120E7E72878400705D52068E968BC
:100AE00020F4E050084320602878000706D52068ED
:100AF000296920F4604040EAC100206000F048F815
:100B00002168084AC1F30311515CC84006490860D6
:100B100006480068FFF708FF0020C4E7003C0240D9
:100B200008380240B223000858000020500000207E
:100B30000F2202600C4A136803F00303436013683A
:100B400003F0F0038360136803F4E053C36012689A
:100B50004FF4E05303EAD20202610448006800F057
:100B6000070008607047000008380240003C02405F
:100B70000448054900680968044AC1F38221515CB0
:100B8000C84070475800002008380240C2230008BF
:100B9000154810B5006810F00C02144813D0144921
:100BA000042A0FD0082A0ED10F4C241F2268236874
:100BB00002F03F025B0207D52068C0F38810A0FB5B
:100BC000010106E0084610BD2168C1F38811A1FBB0
:100BD00000010023FFF74CFB2168C1F30141491CD0
:100BE0004900B0FBF1F010BD083802400024F400C9
:100BF000406F40012DE9F84F04006ED02078DFF8F7
:100C00004C93C007A9F104054AD009F1040001681A
:100C1000C1F38101012908D00068C0F381000228D6
:100C20000AD1D9F80000400206D52868800337D5DC
:100C300060680028E1D033E06068B0F5803F10D0F4
:100C4000B0F5A02F286810D020F4803028602868E4
:100C500020F4802028606068A8B1FFF73DFE0646BA
:100C60000DE0286840F48030F4E740F480202860EC
:100C7000F7E700BFFFF730FE801B642873D82868B1
:100C80008003F7D50CE0FFF727FE064605E000BF1E
:100C9000FFF722FE801B6428F0D828688003F7D471
:100CA0002078DFF8AC8280074FF0000A3ED5A748D5
:100CB000001D016811F00C0F08D00068C0F381001E
:100CC00002280BD1D9F80000400207D42868800719
:100CD00016D5E068012800D112E033E1E068B8B130
:100CE0000120C8F80000FFF7F7FD064605E000BF49
:100CF000FFF7F2FD801B0228C0D828688007F7D5CF
:100D00002868216920F0F80040EAC10028600DE061
:100D1000C8F800A0FFF7E0FD064604E0FFF7DCFDA1
:100D2000801B02281FD828688007F7D42078000786
:100D300022D5864F87486169703771B10121016002
:100D4000FFF7CAFD064604E0FFF7C6FD801B022838
:100D500009D838688007F7D50EE0C0F800A0FFF783
:100D6000BBFD064605E082E0FFF7B6FD801B0228CA
:100D70007DD838688007F7D42078400768D5DFF839
:100D8000CCB100270BF13C0BDBF80000C0000BD40A
:100D9000DBF8001041F08051CBF80010DBF80000C8
:100DA000012700F0805000906B4E3068C00510D4D1
:100DB000306840F480703060FFF78EFD009005E0F1
:100DC000FFF78AFD0099401A022850D83068C00504
:100DD000F6D55E4EA0686C3601280FD00528306825
:100DE00010D020F001003060306820F00400306046
:100DF000A068B8B1FFF770FD00900FE0306840F0D8
:100E00000100F4E740F004003060F7E7FFF764FD0D
:100E10000099411A41F28830814266D830688007D3
:100E2000F4D50EE0FFF758FD009007E0FFF754FD02
:100E30000099411A41F28830814256D830688007C3
:100E4000F4D42FB1DBF8001021F08051CBF8001062
:100E5000A069C8B33D49091D0968C1F38101022990
:100E60004AD00228504607D0C8F8600000E03CE0B5
:100E7000FFF732FD04463BE04746C8F86000FFF745
:100E80002BFD064605E000BFFFF726FD801B02286C
:100E90002BD828688001F7D4D4E907010843A16A58
:100EA0002E4A490802EB0141626A41EA8211084375
:100EB00094F82C1040EA0161C9F80010012038664E
:100EC000FFF70AFD044606E03EE000BFFFF704FD21
:100ED000001B022809D828688001F7D534E000BF3C
:100EE000FFF7FAFC001B022802D90320BDE8F88FA7
:100EF00028688001F4D427E00128F7D0D9F8000051
:100F0000E26900F4800191421CD1226A00F03F01A5
:100F1000914217D147F6C071626A0140B1EB821F5E
:100F200010D1A26A4FF0FF3300F4403103EB5202BC
:100F3000B1EB024F06D194F82C1000F07060B0EBCA
:100F4000016F01D00120D1E70020CFE70438024033
:100F500000004742800E4742007000400000FFFF43
:100F600010B5401EB0F1807F01D3012010BD4FF0BD
:100F7000E02460610F21601701F014F80020A061E7
:100F800007202061002010BD70B590F83C20012A98
:100F90002CD0012480F83C40022280F83D200368D8
:100FA0005A689D6822F070060A6832435A60104BF6
:100FB00002689A420ED0B2F1804F0BD00D4B9A428C
:100FC00008D00D4B9A4205D00C4B9A4202D00C4BE4
:100FD0009A4204D1496825F080031943916080F852
:100FE0003D40002180F83C10084670BD022070BDD5
:100FF000000001400004004000080040000C0040D8
:101000000040014010B5040003D094F83D0010B139
:1010100007E0012010BD002084F83C00204600F0CD
:101020001FF8022084F83D00211D206800F030FEEA
:10103000012084F8460084F83E0084F83F0084F8DC
:10104000400084F8410084F8420084F8430084F8AA
:10105000440084F8450084F83D00002010BD0000E5
:1010600010B586B0044614216846FFF750FA22688E
:1010700000211748B2F1804F0CD016498A4207D19F
:10108000016841F008010160006800F00800059067
:1010900006B010BD026842F001020260006800F074
:1010A000010005900A481038026842F0010202600F
:1010B0000068022200F00100059001200090CDE9B7
:1010C0000121CDE9031069460348FFF70FFBDFE775
:1010D00040380240000C00400000024090F83D10F3
:1010E000012901D001207047022180F83D100068DD
:1010F0000E4988420ED0B0F1804F0BD00C49884287
:1011000008D00C49884205D00B49884202D00B49CF
:10111000884204D1816801F00701062903D00168E3
:1011200041F0010101600020704700000000014013
:101130000004004000080040000C00400040014056
:1011400090F83D10012901D001207047022180F85C
:101150003D100168CA6842F00102CA6000680E4989
:1011600088420ED0B0F1804F0BD00C49884208D095
:101170000B49884205D00B49884202D00A4988426F
:1011800004D1816801F00701062903D0016841F00C
:101190000101016000207047000001400004004090
:1011A00000080040000C00400040014070B50446BB
:1011B00090F83C000025012817D0012684F83C60F7
:1011C000022084F83D002068826822F0770222F431
:1011D0007F4282600868502838D00DDC20284FD02C
:1011E00005DC90B3102811D14AE0022070BD3028F0
:1011F00046D040280AD13BE060282FD070280DD07F
:10120000B0F5805F03D0B0F5005F12D0012584F8FF
:101210003D60002084F83C00284670BDCB68D1E9D1
:101220000121206800F093FD2068816841F077017A
:1012300009E0CB68D1E90121206800F088FD206831
:10124000816841F480418160E1E719E0CA6849683A
:10125000206800F031FE5021206806E0CA68496825
:10126000206800F071FE6021206800F07AFDCEE772
:10127000CA684968206800F01FFE40212068F4E732
:10128000226801461046F0E72DE9F041054690F846
:101290003C0000260C46012810D0012085F83C00B7
:1012A00072B1042A1CD0082A2CD00C2A50D0012656
:1012B000002085F83C003046BDE8F0810220FBE7C5
:1012C000D4E90012E368286800F008FE2868816904
:1012D00021F00C01816128688169A26811430FE047
:1012E000D4E90012E368286800F040FE28688169AC
:1012F00021F44061816128688169A26841EA022184
:101300008161D5E72868D4E9002C277B036A016A4C
:1013100021F480710162C16923F4206321F003018B
:1013200041EA0C0121F0F00C39074FF420674CEA38
:10133000116107EA02221A43C16102622868C16989
:1013400021F00C01C1612868C169A26811432BE03A
:101350002868D4E90021E768036AD0F820C02CF49B
:10136000805CC0F820C0D0F81CC023F420432CF4CB
:10137000407C4CEA012121F4704C4FF6FF7101EAE8
:1013800007314FF4204741EA0C0107EA02321A43C1
:10139000C16102622868C16921F44061C1612868A5
:1013A000C169A26841EA0221C16181E710B5040068
:1013B00003D094F83D0010B107E0012010BD0020DB
:1013C00084F83C00204600F01EF8022084F83D001E
:1013D000211D206800F05CFC012084F8460084F8A0
:1013E0003E0084F83F0084F8400084F8410084F80F
:1013F000420084F8430084F8440084F8450084F8EF
:101400003D00002010BD704730B50446002551B1A5
:1014100004290DD0082910D094F8412094F84500F3
:10142000012A11D10EE094F83E2094F84200F7E72B
:1014300094F83F2094F84300F2E794F8402094F8A1
:101440004400EDE7012801D0012030BD022059B150
:10145000042912D0082919D084F8410084F84500E5
:101460000C293ED001253AE084F83E0084F8420081
:101470002068C26842F0020210E084F83F0084F85D
:1014800043002068C26842F0040207E084F840008C
:1014900084F844002068C26842F00802C260012259
:1014A000206800F047FC1149206888420ED0B0F156
:1014B000804F0BD00E49884208D00E49884205D093
:1014C0000D49884202D00D49884204D1816801F05B
:1014D0000701062903D0016841F001010160284697
:1014E00030BD2068C26842F01002D7E7000001401A
:1014F0000004004000080040000C00400040014093
:1015000010B586B0044614216846FFF700F80D496F
:101510002068884213D10C480021026842F0010281
:101520000260006800F00100059002200090CDE903
:101530000101CDE9031069460448FFF7D7F806B06A
:1015400010BD0000000C0040303802400000024096
:1015500070B5044690F83C0000260D4601280FD0D7
:10156000012084F83C006AB1042A1DD0082A2FD03B
:101570000C2A3FD00126002084F83C00304670BD84
:10158000022070BD206800F0F5FB2068816941F001
:10159000080181612068816921F00401816120686E
:1015A00081692A69114311E0206800F00BFC206872
:1015B000816941F4006181612068816921F4806161
:1015C0008161206881692A6941EA02218161D2E74B
:1015D000206800F023FC2068C16941F00801C16166
:1015E0002068C16921F00401C1612068C1692A69CC
:1015F000114311E0206800F03DFC2068C16941F40E
:101600000061C1612068C16921F48061C161206805
:10161000C1692A6941EA0221C161ACE710B5040041
:1016200003D094F83D0010B107E0012010BD002068
:1016300084F83C00204600F01EF8022084F83D00AB
:10164000211D206800F024FB012084F8460084F866
:101650003E0084F83F0084F8400084F8410084F89C
:10166000420084F8430084F8440084F8450084F87C
:101670003D00002010BD704710B50446022249B15C
:1016800004290ED0082913D094F84100012816D05F
:10169000012010BD94F83E000128F9D184F83E20C5
:1016A0000FE094F83F000128F2D184F83F2008E0D1
:1016B00094F840000128EBD184F8402001E084F840
:1016C00041200122206800F035FB12492068884241
:1016D00003D1426C42F400424264206888420ED03A
:1016E000B0F1804F0BD00C49884208D00B4988429A
:1016F00005D00B49884202D00A49884204D181684A
:1017000001F00701062903D0016841F001010160E1
:10171000002010BD0000014000040040000800400F
:10172000000C004000400140FEE700002DE9F041C0
:1017300006AC94E8E0101E4CA061A180E280236218
:1017400025826682A782A4F816C000F053F8022012
:1017500020702820A0701420FEF7B6FF032000F0B0
:1017600037F90520FEF7B0FF032000F031F9012022
:10177000FEF7AAFF032000F02BF90120FEF7A4FFDB
:10178000022000F025F90120FEF79EFF0F2000F057
:1017900043F9012000F040F90320FEF795FF2820CF
:1017A00000F03AF9BDE8F0410320FEF78DBF0000DC
:1017B0000000002010B5094C0122E188A069FFF764
:1017C00085F80A2000F060F80022E188A069FFF7A0
:1017D0007DF8BDE810403C2000F056B80000002025
:1017E000020003488188806900D00122FFF76EB8AB
:1017F0000000002000B587B005A96846FFF798F9FA
:101800000398A8B3FFF7B4F95FEA400000F0BBFC0F
:101810009FED191B53EC112B00F0C8FC00F086FC67
:1018200017490A6842F002020A6016490A6822F063
:1018300010020A600A6822F001020A600A6822F0B7
:1018400004020A600A6842F008020A600D49283161
:10185000401E08600920091D08600A490120143152
:101860000860081F016821F00101016007B000BD98
:10187000FFE7FFF77DF9C9E78DEDB5A0F7C6B03EEC
:1018800040380240000400400949401E08600848F2
:101890001C38016821F00101016005492C390A68F2
:1018A00042F001020A600168C907FCD070470000DD
:1018B0002C04004010B5012000F0AEF8BDE8104047
:1018C0000320FEF701BF70B50646002409E00120A1
:1018D000FFF786FF284600F009F8641CE4B2102CDC
:1018E00002D2355D002DF2D170BD00002DE9F84F18
:1018F0000209364C02F0080302F0040B217802F0D2
:10190000020902F0010700F0080A00F0040600F0E6
:10191000020500F00108009301292FD0022952D1BD
:101920003A46218A206AFEF7D1FF4A46618A206A38
:10193000FEF7CCFF5A46A18A206AFEF7C7FFE18A6C
:10194000009A206AFEF7C2FFFFF734FF4246218A61
:10195000206AFEF7BBFF2A46618A206AFEF7B6FFBF
:101960003246A18A206AFEF7B1FF5246E18A206A18
:10197000FEF7ACFFBDE8F84FFFF71CBF42462189D8
:10198000E069FEF7A3FF2A466189E069FEF79EFF42
:101990003246A189E069FEF799FF5246E189E06984
:1019A000FEF794FF3A46218A206AFEF78FFF4A46E7
:1019B000618A206AFEF78AFF5A46A18A206AFEF7EA
:1019C00085FF009AD2E7BDE8F88F000000000020F4
:1019D00070B505460020FFF703FF0E4C05F001022D
:1019E000218A206AFEF772FF05F00202618A206AEE
:1019F000FEF76CFF05F00402A18A206AFEF766FF7D
:101A000005F00802E18A206AFEF760FFBDE8704039
:101A1000FFF7D0BE0000002010B504460020FFF7FD
:101A2000DFFE2046BDE81040FFF760BFF0B587B08D
:101A300014216846FEF76BFD21480024016841F03F
:101A400080010160016801F080010591016841F0A9
:101A500004010160016801F004010591016841F091
:101A600001010160016801F001010591016841F087
:101A7000020101600068134E00F002000590002290
:101A800003213046FEF722FF0F4F00223F21384648
:101A9000FEF71CFF032000900125CDE901546946A3
:101AA00030460394FEF722FE3F200090CDE901541A
:101AB000694638460394FEF719FE07B0F0BD0000F2
:101AC00030380240000802400004024010B58AB0DD
:101AD00000242148049405940694079408940994DA
:101AE0000094019402944FF08041039401600A2114
:101AF000C0E90114611EC0E903148461FFF782FA92
:101B000008B172B6FEE74FF48050049004A9124861
:101B1000FFF74CFB08B172B6FEE70F48FFF746FC33
:101B200008B172B6FEE7089408A90B480994FFF7BC
:101B30002BFA08B172B6FEE70120CDE9004002940D
:101B40000022694604480394FFF79EFB002801D059
:101B500072B6FEE70AB010BD5C00002010B58EB072
:101B600000240794089409940A940B941C21684655
:101B70000C94FEF7CCFC1F481D4901600A21C0E906
:101B800001144EF66021C0E903148461FFF73AFAAC
:101B900008B172B6FEE74FF48050079007A91548C8
:101BA000FFF704FB08B172B6FEE71248FFF736FDF7
:101BB00008B172B6FEE70B940BA90E480C94FFF720
:101BC000E3F908B172B6FEE76020009044F62060A9
:101BD000CDE901040422694606480494FFF7B8FCE5
:101BE00008B172B6FEE70348FFF78AFC0EB010BDDD
:101BF000000C0040A4000020FEE7FEE7704770479D
:101C0000FEF770BE30B593B030216846FEF77FFC1A
:101C100014210CA8FEF77BFC17480024016841F052
:101C200080510160006800F08050119013480168F5
:101C300021F4404141F4004101600068012500F4B5
:101C40004040119028040694CDE900506846FEF704
:101C5000D1FF08B172B6FEE70F200C90CDE90D540C
:101C60000F9400210CA81094FEF7C8FE002801D0A4
:101C700072B6FEE713B030BD40380240007000403D
:101C80000248016841F470010160704788ED00E08E
:101C9000F0B50268204B214C9F03214D214E984204
:101CA00007D0B84205D0A04203D0A84201D0B0422C
:101CB00004D122F0700C4A6842EA0C02984210D01B
:101CC000B8420ED0A0420CD0A8420AD0B04208D0F0
:101CD000154CA04205D0154CA04202D0144CA04295
:101CE00003D122F44074CA6822434C6922F0800276
:101CF000224302608A68C2620A688262984201D105
:101D000009690163012141610169C90703D00169C2
:101D100021F001010161F0BD00000140000400401C
:101D200000080040000C0040004001400044014019
:101D30000048014010B501F01F030121046A9940D9
:101D40008C430462016A9A401143016210BD10B5D0
:101D5000846842EA032224F47F440A4322438260D7
:101D600010BD826822F070020A4342F007018160D0
:101D70007047000030B5036A026A22F00102026275
:101D80004268846924F073050C682C4323F0020533
:101D90008B682B430A4DA8420BD123F00805CB6872
:101DA00022F440722B434D6923F0040315438A69E2
:101DB0002A434260846149684163036230BD000088
:101DC0000000014030B5026A036A23F01003036289
:101DD000436884690D6824F4E64444EA05248D6868
:101DE00022F0200242EA05120B4DA8420ED1CD6826
:101DF00022F0800242EA05124D6923F4406343EA6F
:101E000085038D6922F0400243EA850343608461C3
:101E100049688163026230BD0000014030B5036A49
:101E2000026A22F4807202624268C46923F4007379
:101E300024F073050C682C438D6843EA05230C4D90
:101E4000A8420ED1CD6823F4006343EA05234D690F
:101E500022F4405242EA05128D6923F4806342EA7B
:101E600005124260C4614968C163036230BD00006D
:101E70000000014030B5046A026A22F48052026216
:101E80004268C3690D6823F4E64343EA05238D687D
:101E900024F4005444EA0534064DA84204D14D69A7
:101EA00022F4804242EA85124260C36149680164BB
:101EB000046230BD0000014010B5036A046A24F0DA
:101EC00001040462846924F0F00444EA021423F05B
:101ED0000A020A438461026210BD000070B5056AFF
:101EE000046A24F0010404628469124EB0420ED0E8
:101EF000B0F1804F0BD0104EB04208D00F4EB04220
:101F000005D00F4EB04202D00E4EB04203D124F0A5
:101F10000304144301E044F001041A0724F0F00420
:101F200044EA126225F00A0301F00A0119438261B2
:101F3000016270BD00000140000400400008004044
:101F4000000C00400040014010B5036A046A24F010
:101F500010040462846923F0A00324F4704444EA6A
:101F6000023243EA01118261016210BD30B5046A98
:101F7000056A25F010050562856925F4407545EA76
:101F8000022222F470454FF6FF7202EA033224F077
:101F9000A0032A43A02404EA0111194382610162CB
:101FA00030BDFEE70907090E002804DB00F1E02040
:101FB00080F80014704700F00F0000F1E02080F876
:101FC000141D704730380A2801D2012070470020C4
:101FD000704700001FB5FEF78DFCFFF713FEFFF7FB
:101FE00025FDFFF773FDFFF7B9FD012211464348B8
:101FF000FEF76CFC4248FFF7A3F841484830FFF772
:102000006DF83F4804214830FFF736FB00213C487B
:10201000FFF7FAF920231022082104208DE80F0091
:102020003848022203460121FFF780FB36A0FFF764
:102030004AFC394C0025E07801283BD1E5700021AD
:1020400060692F4AA061084612F1900252F82030D0
:10205000401C19441428F9DB1420B1FBF0F1616134
:10206000D4ED080A0007C4ED090A806ADFED2B1AD7
:10207000401C484300EB8000C00000EE100AB8EEA0
:10208000401A81EE810A84ED080A70EE600AFDEEC6
:10209000E00A10EE900A002800DA4042642148432A
:1020A00000EE900AF8EEE00A80EE801ABCEEC10A5B
:1020B00084ED040A94ED080AF0EE000A216920EE8E
:1020C000200ADFED170A80EE201ABDEEC10A10EEDD
:1020D000100A88420FD20120A070D4E902010A1A26
:1020E000074810A1E030FEF73BF9FFF7E3FB044897
:1020F000E030FFF7E8FBA5709DE700000008024014
:102100005C0000200004024052504D2043616C638B
:10211000756C61746F72000024000020180D0F4E62
:102120000000C84252504D3D256400004FEA115353
:10213000A3F58063D3F11E03A8BFD3F1200C08DB05
:102140004FF0004242EAC12252EA505232FA03F002
:10215000704709420BD4102BC4BF0020704703F511
:10216000787CBCF1FF3F05D04FF0FF3070474FF057
:102170000000704770B500F0C3F800BF499224809A
:1021800000207047F0E7B0FA80F310FA03F10AD0AC
:10219000C3F11D0303F580634FEA41504FEA035238
:1021A00002EBD12170474FF000007047DFF848C1C3
:1021B00070B51CEA111E1EBF1CEA13159EEA0C0F17
:1021C00095EA0C0F00F06F8081EA030423EA4C13B8
:1021D0004EEAD47E21EA4C1141F4801143F480137D
:1021E000AE44A1FB024CA0FB0365AEF17F7E361925
:1021F00055EB0C05A1FB034C4CF10003A0FB021CAA
:1022000016EB0C06654153F10003094218BF46F076
:10221000010613F4007F0BD14FEA03314FEA05307A
:10222000340341EA155140EA16506FF003020AE008
:102230004FEAC3214FEAC520F40241EA555140EA72
:1022400056506FF0020202EB2E4201EB025585EA76
:10225000CE710AD05FEA440C18BF24F0004450F15C
:10226000000041F1000120EAD47040F2FE7C62459A
:1022700000D270BDA84214BF4FF080444FF04044DC
:10228000002E08BF0024BEF1806FA8BFA1F1C0419D
:10229000BDE8704080F282804FF0000001F1C04143
:1022A00001F0004170479EEA0C0F0CEA131518BFAD
:1022B00095EA0C0F06D04FF0000081EA030E0EF0F5
:1022C000004170BD00F01CF88900013E00F007B825
:1022D00000F009B84FEA430C5FEA5C5C08D081EA81
:1022E000030100F05BB84FEA410C5FEA5C5CF6D199
:1022F0004FF00000014970470000FF070000F87F21
:102300000EF1020E2EF0030E5EF8046B364205D479
:10231000012A43EB030515F5001F12D8012841EBF4
:10232000010C1CF5001F0CD80ED14FEAD17C15F51D
:10233000001F0CEB4C0C0CF1020C08BF4CEBD37CD7
:1023400004E04FF0080C01E04FEAD37C0CEB4C05A5
:1023500026FA05F606F00706B6F1040C06D20EEBD7
:10236000860CBDE870404CF0010C6047DFE80CF0D3
:10237000090B02024FF000414FF00000A1F50021CF
:1023800070BD19461046012851EB010418BFD4F561
:10239000001484BF002001F0004170BD0808A0F5C2
:1023A00000114FEA310170474FF04070E1EE100A22
:1023B000704700000000000000000102030406074F
:1023C000080900000000010203040000EC230008DB
:1023D000000000205C000000C40100084824000840
:1023E0005C00002054070000E0010008010F3800E5
:1023F00000000000000000000000000000000000DD
:1024000000000000000000000000000000000000CC
:1024100000000000000000000000000000000000BC
:1024200000000000000000000000000000000000AC
:10243000000000000000000001000000100000008B
:08244000000000000024F4007C
:040000050800018965
:00000001FF
