:020000040800F2
:100000004007002031020008F91A0008B91600085C
:10001000F71A000813060008771D0008000000000A
:10002000000000000000000000000000FD1A0008B1
:100030001506000800000000FB1A0008FF1A00085F
:100040004B0200084B0200084B0200084B0200085C
:100050004B0200084B0200084B0200084B0200084C
:100060004B0200084B0200084B0200084B0200083C
:100070004B0200084B0200084B0200084B0200082C
:100080004B0200084B0200084B0200084B0200081C
:100090004B0200084B0200084B0200084B0200080C
:1000A0004B0200084B0200084B0200084B020008FC
:1000B0004B0200084B0200084B0200084B020008EC
:1000C0004B0200084B0200084B0200084B020008DC
:1000D0004B0200084B0200084B0200084B020008CC
:1000E0004B0200084B0200084B0200084B020008BC
:1000F0004B0200084B0200084B0200084B020008AC
:100100004B0200084B0200084B0200084B0200089B
:100110004B0200084B0200084B0200084B0200088B
:100120004B0200084B0200084B0200084B0200087B
:100130004B0200084B0200084B0200084B0200086B
:100140004B0200084B0200084B0200084B0200085B
:100150004B0200084B0200084B0200084B0200084B
:100160004B0200084B0200084B0200084B0200083B
:100170004B0200084B0200084B0200080000000080
:100180004B0200084B02000800F002F800F041F8B2
:100190000AA090E8000C82448344AAF10107DA45E2
:1001A00001D100F036F8AFF2090EBAE80F0013F0F3
:1001B000010F18BFFB1A43F001031847501E00003F
:1001C000701E0000103A24BF78C878C1FAD85207D0
:1001D00024BF30C830C144BF04680C6070470000C1
:1001E0000023002400250026103A28BF78C1FBD840
:1001F000520728BF30C148BF0B607047732900F019
:10020000CA81002070471FB501F0EEFE1FBD10B57A
:1002100010BD00F0C4F91146FFF7F5FF01F054FEE0
:1002200000F0E2F903B4FFF7F2FF03BC00F0EAF9D3
:100230000948804709480047FEE7FEE7FEE7FEE77A
:10024000FEE7FEE7FEE7FEE7FEE7FEE704480549B6
:10025000054A064B70470000991B000889010008F9
:100260004001002040070020400300204003002000
:1002700053EA020C00F069802DE9F04B4FF00006C4
:10028000002B1FBFB3FA83F503FA05F424FA05F631
:100290005E4012BF1643B2FA82F502FA05F4C5F1C8
:1002A00020051EBF22FA05FC44EA0C04203556EA5C
:1002B000044C4FEA144418BF641C4FF000084FF080
:1002C0000009904271EB030C39D3002919BFB1FA30
:1002D00081F701FA07F6B0FA80F700FA07F6C7F1DE
:1002E00020071EBF20FA07FC46EA0C062037B6FBA3
:1002F000F4FCA7EB0507103F07F01F0BCBF120061E
:100300000CFA0BFB2CFA06F644BFB3460026202F4E
:10031000A4BF5E464FF0000B5BEA060C08BF4FF02F
:10032000010B19EB0B09ABFB027C48EB0608C01B69
:1003300006FB02CC0BFB03CC71EB0C01C1E70B46B7
:10034000024641464846BDE8F08B13B54FF0000029
:100350004FF00001AFF30080BDE81C407047000083
:100360000FB41CB5074B06AA7B446946009005985C
:1003700000F0E7F80020694600F0F6F81CBC5DF8D4
:1003800014FB0000FD0100002DE9F0410E4604467B
:10039000002020622046E168884730B3252805D038
:1003A000D4E901219047206A401CF2E7E168204629
:1003B00000278847050018D0A5F14100192802D868
:1003C00020354FF400673246294620462760FFF764
:1003D00015FF40B1012804D0F61D26F007060836A7
:1003E000D8E7361DD6E72846DAE7206ABDE8F0816F
:1003F00070B50C460546012A05D02878800600D540
:10040000EA69002302E0012305E05B1C934202D26B
:10041000E05C0028F9D1A869E618C01AA861286A2A
:10042000184428622846AFF3008004E0D5E9012192
:1004300014F8010B9047B442F8D32846AFF300807C
:1004400070BD10B5431C02E010F8011B71B18107AB
:10045000FAD14FF0013202C88C1A8C4314EAC2114F
:10046000F9D0C01A0A0603D0C01E10BDC01A10BDB4
:100470000A0401D0801E10BD0902FCD0401E10BD30
:1004800010B5203AC0F00B80B1E81850203AA0E82F
:100490001850B1E81850A0E81850BFF4F5AF5FEA63
:1004A000027C24BFB1E81850A0E8185044BF18C916
:1004B00018C0BDE810405FEA827C24BF51F8043BBD
:1004C00040F8043B08BF7047D20728BF31F8023B11
:1004D00048BF11F8012B28BF20F8023B48BF00F8A5
:1004E000012B70474FF0000200B513469446964624
:1004F000203922BFA0E80C50A0E80C50B1F1200137
:10050000BFF4F7AF090728BFA0E80C5048BF0CC0E4
:100510005DF804EB890028BF40F8042B08BF704742
:1005200048BF20F8022B11F0804F18BF00F8012BB4
:10053000704770477047704701694A1C026108782C
:10054000704700B58FB0CDE9013100210591054913
:100550007944CDE9031011466846FFF715FF0FB047
:1005600000BD0000E5FFFFFF0A6802F8010B0A600A
:10057000704710B5436913B1AFF3008001E0FFF796
:1005800037FF012010BD127800F124010A7000220B
:100590004A700122EDE711684FF0FF32E9E7754636
:1005A00000F02CF8AE4605006946534620F00700DF
:1005B000854618B020B5FFF749FEBDE820404FF052
:1005C00000064FF000074FF000084FF0000B21F03D
:1005D0000701AC46ACE8C009ACE8C009ACE8C0090A
:1005E000ACE8C0098D46704710B50446AFF30080F3
:1005F0002046BDE81040FFF715BE000000487047D8
:10060000DC00002001491820ABBEFEE726000200F6
:100610007047FEE77047000070B5044600F006F929
:100620000546601C02D004480078044400F0FEF83F
:10063000401BA042FAD370BD140000202DE9F84FF2
:10064000DFF8BCA10022012503264FF00F090AF1B3
:10065000040BAAF1040E00BF0B6805FA02F4234054
:10066000A34270D10F7907F00307012F01D0022FA9
:1006700016D187684FEA420806FA08FC27EA0C07F9
:10068000D1F80CC00CFA08FC4CEA070CC0F808C002
:100690004768A7430C79C4F3001494403C4344607A
:1006A0000C79E443A4070AD0C4684FEA420C06FA66
:1006B0000CF7BC438F6807FA0CF72743C7600C7927
:1006C00004F00304022C12D1D40800EB840CDCF8F3
:1006D00020405707FF0E09FA07F824EA0804D1F86A
:1006E000108008FA07F848EA0408CCF8208004686B
:1006F0004FEA420C06FA0CF7BC430F7907F00307E8
:1007000007FA0CF7274307604C6814F4403F70D099
:100710003C4C276847F480472760246822F0030791
:1007200004F480440094384C07EB040CDCF80848CF
:1007300097074FEA177809FA08F7BC43334FB842D6
:1007400002D1002724E054E0314FB84201D1012703
:100750001EE0304FB84201D1022719E02E4FB842B7
:1007600001D1032714E02D4FB84201D104270FE037
:100770002B4FB84201D105270AE02A4FB84201D1D8
:10078000062705E0284FB84201D1072700E00827D7
:1007900007FA08F72743CCF80878DAF800405746FC
:1007A000D1F804C09C435FEACC2C00D51C433C60CC
:1007B000DBF800405F46D1F804C09C435FEA8C2C14
:1007C00000D51C433C60DEF800407746D1F804C0F9
:1007D0009C435FEA8C3C00D51C433C60084F083FBB
:1007E0003C68D1F804C09C435FEACC3C00D51C4374
:1007F0003C60521C102AFFF42FAFBDE8F88F0000B8
:10080000083C0140443802400030014000000240F2
:100810000004024000080240000C024000100240A8
:100820000014024000180240001C02400148806889
:10083000704700001400002070B5040025D094F823
:100840003D00002520B984F83C50204600F008FB0C
:10085000242084F83D002068016821F00101016036
:100860002068016841F4004101602068016821F4BA
:100870000041016000F04EFC4D4A6168914201D890
:100880004C4900E04C49884201D2012070BD4B49DF
:100890002368B0FBF1F15E6826F03F060E435E6010
:1008A0006368934206D94FF4967359434FF47A73B1
:1008B000B1FBF3F12368491C1E6A26F03F06314361
:1008C00019626168914210D84900401EB0FBF1F2F4
:1008D000521CC2F30B02042A01D2042022E0B0FB16
:1008E000F1F0401CC0F30B001CE0A268F2B301EB76
:1008F000C10303EB0116431EB3FBF6F35B1C43F489
:1009000080431B0549D092B301EBC10202EB0111F8
:10091000401EB0FBF1F0401CC0F30B0040F48040DF
:1009200040F400402168CA694CF6FF739A431043B3
:10093000C861D4E9071001432068026822F0C002B0
:1009400011430160D4E9030101432068826848F241
:10095000FF339A4311438160D4E9050108432168BC
:10096000CA6822F0FF021043C86001E00EE016E002
:100970002068016841F0010101602564202084F8AD
:100980003D00256384F83E50002070BD01EB410618
:10099000431EB3FBF6F35B1CB3E70120C2E701EB98
:1009A0004101401EB0FBF1F0401CC0F30B00B7E763
:1009B000A086010080841E0000093D0040420F0017
:1009C0002DE9FF4F81B089460446FFF72FFF05460A
:1009D00094F83D004FF0000820287DD11923012212
:1009E00050492046009500F07DFF002874D194F80E
:1009F0003C00012870D0012084F83C002068016888
:100A0000C90703D1016841F0010101602068016854
:100A100021F400610160242084F83D000026266452
:100A20004148E0624FF0011B20272068016841F433
:100A3000807101600095002259462046049B00F019
:100A400051FF50B120680068C00502D54FF4007016
:100A50002064032005B0BDE8F08F216809F0FE0096
:100A60000861FFF7E3FE2168054648694969C0F35C
:100A70004000C1F380214FF0A00A0FE0FFF7D6FE3F
:100A8000411B0498814200D808B984F83DA0216830
:100A900048694969C0F34000C1F3802194F83D20C2
:100AA000A02A02D008B90029E8D084F83D70206857
:100AB0004169C943890716D4016841F40071016096
:100AC0002068416980691923012216492046009552
:100AD00000F008FFB8B900E021E084F83D7084F828
:100AE0003C600020B6E7016841F4007101602168B4
:100AF0006FF480604861192301220A49204600955D
:100B000000F0F0FE08B10120A4E7039808F1010805
:100B100080458AD384F83D7084F83C60F3E7022076
:100B200098E70000020010000000FFFF2DE9FF4FD2
:100B300083B09A46DDE9118793460446DDF840907C
:100B4000FFF774FE054694F83D00202870D1192364
:100B5000012274492046009500F0C4FE0028F5D11A
:100B600094F83C00012863D0012084F83C00206800
:100B70000168C90703D1016841F0010101602068E3
:100B8000016821F400610160222084F83D004020CA
:100B900084F83E0000262664C4F82490A4F82A8035
:100BA000608D20856048E062CDE9007553465A4665
:100BB0002046049900F098FD002879D1208DD0B10D
:100BC000012821D00228206824D041698069009042
:100BD000208D032866D801282BD0544902283B4693
:100BE0004FF00002009557D08846204600F07AFE6C
:100BF00000285DD13AE0206841698169009101686F
:100C000041F4007101607DE02068016821F4806199
:100C10000160F0E7016821F48061016020680168EB
:100C200041F400610160206841698069009069E0D9
:100C300075E02A463946204600F0FAFE88BB54E0AB
:100C40002068016841F40071016020680069616AF0
:100C50000870606A401C6062218D491E2185618D8B
:100C6000491E618521680969017042E020680168B8
:100C700021F48061016020680069616A0870606A1F
:100C8000401C6062208D401E2085608D401E608566
:100C90003B46002241460095204600F023FE00B965
:100CA000CEE705E02A463946204600F0C1FE18B1DD
:100CB000012007B0BDE8F08F20680069616A087004
:100CC000606A401C6062208D401E81B22185608D6B
:100CD000401E608520684269D243520712D403291E
:100CE00003D1016821F48061016020680069616AB4
:100CF0000870606A401C6062208D401E2085608DF7
:100D0000401E6085208D00287FF462AF202084F88B
:100D10003D0084F83E6084F83C600020C9E7022072
:100D2000C7E70000020010000000FFFF0400010000
:100D30002DE9FF4F83B09A46DDE9119793460446AB
:100D4000DDF84080FFF772FD054694F83D0020284D
:100D50007FD11923012240492046009500F0C2FDB1
:100D6000002876D194F83C00012872D0012084F844
:100D70003C0020680168C90703D1016841F0010106
:100D800001602068016821F400610160212084F87D
:100D90003D00402084F83E0000262664C4F82480EC
:100DA000A4F82A90608D20852C48E062CDE900757A
:100DB00053465A462046049900F014FD70B930E0BD
:100DC0002A463946204600F06BFE58B1206C0428B4
:100DD00004D12068016841F400710160012007B06E
:100DE000BDE8F08F606A216800780861606A401C85
:100DF0006062218D491E89B22185628D521E6285F5
:100E000022685369DB435B070BD469B1007810613A
:100E1000606A401C6062208D401E2085608D401EEF
:100E20006085208D0028CBD12A463946204600F027
:100E30002DFD0028CAD154F83D0B016841F4007122
:100E40000160202004F81E09E67766770020C6E7D7
:100E5000FFE70220C3E70000020010000000FFFFD0
:100E600010B586B0044614216846FFF73BFB1349D2
:100E70002068884220D112480021026842F0020214
:100E80000260006800F002000590C020009012206F
:100E9000CDE901010320039004200490694609482C
:100EA000FFF7CCFB06481030016841F400110160E7
:100EB000006800F40010059006B010BD005400401A
:100EC0003038024000040240024881680278114430
:100ED00081607047140000200B4810B5016841F490
:100EE00000710160016841F480610160016841F4B2
:100EF00080710160032000F061F80F2000F006F817
:100F000000F024F8002010BD003C024070B50D4DEB
:100F100004464FF47A712878B1FBF0F00A49096869
:100F2000B1FBF0F000F0FEFA48B9102C07D2002215
:100F30002146501E00F022F800206C6070BD012098
:100F400070BD000014000020200000200A4808B5F1
:100F5000016841F480410160006800F48040009025
:100F60000548001F016841F080510160006800F0F1
:100F70008050009008BD000044380240F0B40E4B91
:100F80001B680C46C3F30223C3F10705042D00D9E7
:100F90000425191D072901D2002300E0DB1E0126CC
:100FA00006FA05F1491E214099409E40761E1640E2
:100FB0003143F0BC00F0E0BE0CED00E0064900F06B
:100FC000070208684FF6FF03184040EA0220034A70
:100FD00010430860704700000CED00E00000FA05C7
:100FE0002DE9F0470E46050065D0DFF81481D8F8EA
:100FF0000000F7B200F00700B04207D288F8007096
:10100000D8F8000000F00700B04254D128683D4CE9
:10101000810712D5400703D5206840F4E0502060D6
:101020002878000703D5206840F4604020602068DD
:10103000A96820F0F000084320602878C0072DD070
:10104000304968680839012812D0022813D00328D3
:1010500011D00968890700292DDA216821F00301E0
:1010600001432160FFF7E2FB814641F2883A0EE03E
:1010700009688903EFE709688901ECE7FFF7D6FB08
:10108000A0EB0901514502D90320BDE8F087206893
:10109000696800F00C00B0EB810FEFD1D8F80010B8
:1010A000404601F00701B14207D90770006800F01F
:1010B0000700B04201D00120E7E72878400705D5B6
:1010C0002068E96820F4E050084320602878000791
:1010D00006D52068296920F4604040EAC1002060FC
:1010E00000F038F82168084AC1F30311515CC84088
:1010F0000649086006480068FFF708FF0020C4E7BB
:10110000003C024008380240F21F00082000002086
:10111000180000200448054900680968044AC1F322
:101120008221515CC84070472000002008380240EE
:10113000022000080448054900680968044AC1F310
:101140004231515CC84070472000002008380240FE
:1011500002200008154810B5006810F00C02144871
:1011600013D01449042A0FD0082A0ED10F4C241F83
:101170002268236802F03F025B0207D52068C0F3B3
:101180008810A0FB010106E0084610BD2168C1F3EC
:101190008811A1FB00010023FFF76AF82168C1F361
:1011A0000141491C4900B0FBF1F010BD0838024074
:1011B0000024F40040787D012DE9F84F04006ED042
:1011C0002078DFF84C93C007A9F104054AD009F153
:1011D00004000168C1F38101012908D00068C0F34F
:1011E000810002280AD1D9F80000400206D52868FB
:1011F000800337D560680028E1D033E06068B0F53F
:10120000803F10D0B0F5A02F286810D020F4803097
:101210002860286820F4802028606068A8B1FFF763
:1012200005FB06460DE0286840F48030F4E740F402
:1012300080202860F7E700BFFFF7F8FA801B6428DA
:1012400073D828688003F7D50CE0FFF7EFFA06465D
:1012500005E000BFFFF7EAFA801B6428F0D8286891
:101260008003F7D42078DFF8AC8280074FF0000AC3
:101270003ED5A748001D016811F00C0F08D000688A
:10128000C0F3810002280BD1D9F80000400207D436
:101290002868800716D5E068012800D112E033E104
:1012A000E068B8B10120C8F80000FFF7BFFA0646B1
:1012B00005E000BFFFF7BAFA801B0228C0D82868F3
:1012C0008007F7D52868216920F0F80040EAC100BE
:1012D00028600DE0C8F800A0FFF7A8FA064604E071
:1012E000FFF7A4FA801B02281FD828688007F7D4CC
:1012F0002078000722D5864F87486169703771B121
:1013000001210160FFF792FA064604E0FFF78EFA2A
:10131000801B022809D838688007F7D50EE0C0F88E
:1013200000A0FFF783FA064605E082E0FFF77EFAA9
:10133000801B02287DD838688007F7D420784007C2
:1013400068D5DFF8CCB100270BF13C0BDBF80000CF
:10135000C0000BD4DBF8001041F08051CBF8001036
:10136000DBF80000012700F0805000906B4E3068E1
:10137000C00510D4306840F480703060FFF756FA32
:10138000009005E0FFF752FA0099401A022850D861
:101390003068C005F6D55E4EA0686C3601280FD0C7
:1013A0000528306810D020F001003060306820F04F
:1013B00004003060A068B8B1FFF738FA00900FE081
:1013C000306840F00100F4E740F004003060F7E7D7
:1013D000FFF72CFA0099411A41F28830814266D811
:1013E00030688007F4D50EE0FFF720FA009007E0A0
:1013F000FFF71CFA0099411A41F28830814256D811
:1014000030688007F4D42FB1DBF8001021F0805150
:10141000CBF80010A069C8B33D49091D0968C1F3A4
:10142000810102294AD00228504607D0C8F860003E
:1014300000E03CE0FFF7FAF904463BE04746C8F815
:101440006000FFF7F3F9064605E000BFFFF7EEF98D
:10145000801B02282BD828688001F7D4D4E9070123
:101460000843A16A2E4A490802EB0141626A41EA37
:101470008211084394F82C1040EA0161C9F8001069
:1014800001203866FFF7D2F9044606E03EE000BFCF
:10149000FFF7CCF9001B022809D828688001F7D58E
:1014A00034E000BFFFF7C2F9001B022802D9032075
:1014B000BDE8F88F28688001F4D427E00128F7D030
:1014C000D9F80000E26900F4800191421CD1226A3F
:1014D00000F03F01914217D147F6C071626A0140A6
:1014E000B1EB821F10D1A26A4FF0FF3300F44031FC
:1014F00003EB5202B1EB024F06D194F82C1000F02E
:101500007060B0EB016F01D00120D1E70020CFE780
:101510000438024000004742800E474200700040FD
:101520000000FFFF10B5401EB0F1807F01D3012005
:1015300010BD4FF0E02460610F21601700F01CFC2B
:101540000020A06107202061002010BD70B50400BC
:1015500004D094F84100002510B106E0012070BDD0
:1015600084F84050204600F023F8242084F84100FD
:101570002068C16821F40051C160204600F03CFBA6
:101580002068016921F4904101612068416921F0DE
:101590002A0141612068C16841F40051C16065645D
:1015A000202084F8410084F842006563002070BD6B
:1015B00010B586B0044614216846FEF793FF134920
:1015C000206888421FD112480021026842F400229C
:1015D0000260006800F4002005900D481038026891
:1015E00042F0010202600068022200F00100059052
:1015F0000320CDE90210CDE90002082004906946DD
:101600000448FFF71BF806B010BD0000004C004076
:1016100040380240000002402DE9F843044690F8AB
:101620004100984616460D46202802D00220BDE80B
:10163000F88385B17EB100206064212084F84100E8
:10164000FFF7F4F8A6848146E684A0682027B0F569
:10165000805F02D003E00120E9E7206910B12E4647
:1016600000250EE000260CE08021204600F04AFB19
:10167000A8B9C6B116F8010B21684860E08C401E7D
:10168000E084E08C4B464FF00002CDF8008000284B
:10169000EAD14FF04001204600F034FB40B184F81D
:1016A00041700320C3E735F8020BC0F30800E3E7FD
:1016B00084F841700020BAE7FEE701684A69D24326
:1016C00052050FD46FF480624A61002140F8301F48
:1016D000202242738173026942F0040202610173A5
:1016E00001207047002070472DE9F84F044600683C
:1016F00089460B9D01689846174641F48061016058
:101700002068016841F48071016000954FF0011B71
:101710000022594620460A9B00F0E4F84FF4007A74
:1017200040B120680068C00501D5C4F840A003207E
:10173000BDE8F88F216809F0FE0008612B462849B2
:1017400020460A9A00F016F9F0BB206841698069CA
:1017500000902A4620460A9900F0A2F940B1206C78
:1017600004283AD12068016841F40071016034E036
:10177000FEB2B8F1010F09D02168380A08612A4683
:1017800020460A9900F08CF90028E8D1206806610B
:101790002A4620460A9900F083F90028DFD1206804
:1017A000016841F48071016000950022594620468D
:1017B0000A9B00F097F80028B3D1216809F0FF00D8
:1017C00040F00100086100E007E02B460449204694
:1017D0000A9A00F0CFF80028AAD00120A8E700005C
:1017E000020001002DE9F843044600680D46DDE9DA
:1017F000089701689846164641F4807101604B468F
:1018000000224FF001112046009700F06BF848B11C
:1018100020680068C00502D54FF4007020640320E2
:10182000BDE8F883216805F0FE0008613B464A46A2
:101830001549204600F09EF888B920684169806902
:1018400000903A464946204600F02AF948B1206CFB
:10185000042804D12068016841F40071016001206E
:10186000DEE7F5B2B8F1010F09D02168300A08614E
:101870003A464946204600F013F90028E7D120688F
:1018800005610020CCE700000200010070B516469B
:101890000D4604461EE02046FFF70FFF08B1012069
:1018A00070BD681C16D0FEF7C1FF801BA84200D88F
:1018B00085B920684069C04340070BD5002044F833
:1018C000300F20216173A073216941F02001216153
:1018D0002073E4E720684069C0434007DBD4002060
:1018E00070BD00002DE9F047984617460D460446A6
:1018F000C1F30746DDF820902AE000BFB8F1FF3FB2
:1019000026D0FEF793FFA0EB0901414502D8B8F1BC
:10191000000F1DD12068012E16D0806925EA000035
:101920000004000C12D00020B84211D1002044F86D
:10193000300F20216173A073216941F020012161E2
:1019400020730120BDE8F0874069E7E70120EBE75D
:101950002068012E0AD0806925EA00000004000CEE
:1019600006D00020B842C9D00020EBE74069F3E779
:101970000120F7E72DE9F047984616460D46044644
:101980004FF000094FF0200AC1F3074723E0206819
:101990004069C043400515D42068016841F40071D6
:1019A000016021686FF480604861C4F8309084F869
:1019B0003DA084F83E90216C41F00401216484F83C
:1019C0003C9021E0701C06D0FEF730FFA0EB080031
:1019D000B04203D816B1012F1FD021E02068012F9B
:1019E00015D0806925EA00000004000C18D000BF63
:1019F00044F8309F84F80DA084F80E90216941F0DE
:101A00002001216184F80C900120BDE8F087406935
:101A100025EA00000004000CEAD12068406901E0DA
:101A20002068806925EA00000004000CAFD1ECE7D3
:101A30002DE9F041002590460E460446202728E077
:101A40004069C043C0060CD454F8301B6FF010003E
:101A5000486144F810596777A577206A2062257796
:101A600014E0FEF7E3FEA0EB0800B04200D886B910
:101A700020684069C04340060BD544F8305F677367
:101A8000A573206940F02000206125730120BDE886
:101A9000F08120684169C9434906D1D40020F6E7A6
:101AA00070B516460D4604461EE02046FFF705FEBB
:101AB00008B1012070BD681C16D0FEF7B7FE801B70
:101AC000A84200D885B920684069C04300060BD5FC
:101AD000002044F8300F20216173A073216941F088
:101AE000200121612073E4E720684069C0430006BB
:101AF000DBD4002070BDFEE7FEE770477047FFF7BC
:101B0000E3B9000030B593B030216846FEF7EAFC37
:101B100014210CA8FEF7E6FC1D480025016841F0E1
:101B200080510160006800F08050119019480168F0
:101B300041F4804101600068022400F4804011906B
:101B40000120039010200490009406940820CDE911
:101B50000750A820CDE9090404200B906846FFF740
:101B60002BFB08B172B6FEE70CA90F2081E831000B
:101B70004FF4A0500F904FF48050109005210CA806
:101B8000FFF72EFA002801D072B6FEE713B030BD81
:101B900040380240007000400248016841F4700182
:101BA0000160704788ED00E001680C3151E8002FBA
:101BB00022F4907241E80023002BF5D10168143122
:101BC00051E8002F22F0010241E80023002BF5D15B
:101BD000016B012909D101680C3151E8002F22F075
:101BE000100241E80023002BF5D1202180F842109B
:101BF000002101637047000070B504460068016968
:101C0000E26821F44051114301612169A068E26951
:101C100008436169114308432168CA6849F20C63AB
:101C20009A430243CA6020684169A26921F4407165
:101C30001143416131492068884202D030498842CD
:101C400002D1FFF777FA01E0FFF764FAE2690023B7
:101C5000192164253226B2F5004F626828D0A0FB16
:101C60000101930F9200FEF703FB0146B0FBF5F074
:101C70006FF01802504301EB800006EB0010B0FB40
:101C8000F5F000F0F002B1FBF5F002EB0012B1FB51
:101C9000F5F06FF01803584301EB800006EB0010DD
:101CA000B0FBF5F000F00F0021681044886070BDB3
:101CB000A0FB010192185B41FEF7DAFA0146B0FB86
:101CC000F5F00201B1FBF5F06FF01803584301EB9A
:101CD000800006EBC000B0FBF5F000F0F80002EB6E
:101CE0004002B1FBF5F0584301EB800006EBC00069
:101CF000B0FBF5F000F00700D6E70000001001404F
:101D0000001401402DE9F843984617460D46044655
:101D1000089E24E0701C22D0FEF788FDA0EB08008E
:101D2000B0421AD8CEB12068C168490717D5802DB6
:101D300015D0402D13D00168C94309070FD401689D
:101D40000025406800902046FFF72EFF08206064C1
:101D500084F840500120BDE8F8830320FBE72068A9
:101D6000006835EA000004D00020B842D2D000203C
:101D7000F1E70120F9E7FEE70907090E002804DB77
:101D800000F1E02080F80014704700F00F0000F12F
:101D9000E02080F8141D704730B589B020220AA1D8
:101DA0006846FEF76DFB00244FF40045A0B26423A3
:101DB0002022694600F042F8002803D02034AC42CB
:101DC000F4D3012009B030BDFFFFFFFFFFFFFFFF8D
:101DD000FFFFFFFFFFFFFFFFFFFFFFFFFFFFFFFF13
:101DE000FFFFFFFFFFFFFFFF10B564230222A021CA
:101DF0000348FEF7E5FD08B1002010BD012010BD2D
:101E0000240000203EB50B4C2578012D0DD0012576
:101E1000257092B28DE80E0002461023A0210648DC
:101E2000FEF784FE0021217008B100203EBD012094
:101E30003EBD000013000020240000202DE9FF4FCC
:101E400006461F480F4683B00178154601291CD06D
:101E5000012180460170FEF7E9FC83464FF000093E
:101E60004FF0640A06F01F00C0F12004AC4200D914
:101E7000ACB2CDE9007410233246A0211148CDF850
:101E800008A0FEF755FF20B113E0002007B0BDE821
:101E9000F08F0A20FEF7C0FB06EB04002D1B274441
:101EA00086B209D0FEF7C2FCA0EB0B010698814276
:101EB000D8D388F80090E8E788F800900120E5E79B
:101EC00013000020240000208EB0FFF705F8FFF774
:101ED00019FE3C480024016841F08001016001685E
:101EE00001F080010D91016841F00101016001687C
:101EF00001F001010D91016841F0020101600068EB
:101F0000314900F002000D90304801603049C0E9CD
:101F100001144FF48041C0E9034144618461C4610C
:101F20000462FEF789FC08B172B6FEE7274829492A
:101F3000543001604FF4E131C0E901140C21C46058
:101F4000C0E904418461C461FFF700FB08B172B6C7
:101F5000FEE74FF0FF3540F6B83600BFFFF744FF0D
:101F6000D8B1FFF719FF1C4CA0700A20FEF754FBF4
:101F700064230F22E11C0020FFF760FF2070642023
:101F8000FEF74AFB114964230F229C310020FFF722
:101F900039FF60700A20FEF73FFB0C4A0FA19C320C
:101FA0006846FEF7DDF96846FEF74BFA82B207484D
:101FB0002B4669465430FFF72FFB3046FEF72CFBCB
:101FC000CCE70000303802400054004024000020DC
:101FD000A0860100004C0040000000207264617483
:101FE000613D25730A0D00004FF04070E1EE100ACC
:101FF0007047000000000000000001020304060713
:102000000809000000000102030400002C20000861
:102010000000002024000000C40100085020000837
:10202000240000201C070000E00100080000004818
:10203000656C6C6F20576F726C6420313233000016
:102040000100000010000000000000000024F40067
:040000050800018965
:00000001FF
