:020000040800F2
:10000000A806002045020008FF1300081D10000884
:10001000FD130008570700089914000800000000AD
:1000200000000000000000000000000003140008B1
:10003000590700080000000001140008051400081A
:100040005F0200085F0200085F0200085F0200080C
:100050005F0200085F0200085F0200085F020008FC
:100060005F0200085F0200085F0200085F020008EC
:100070005F0200085F0200085F0200085F020008DC
:100080005F0200085F0200085F0200080000000035
:100090000000000000000000000000005F020008F7
:1000A0005F0200085F0200085F0200085F020008AC
:1000B0005F0200085F0200085F0200085F0200089C
:1000C0005F0200085F0200085F0200085F0200088C
:1000D0005F0200085F0200085F02000800000000E5
:1000E0005F0200085F0200085F02000800000000D5
:1000F0000000000000000000000000005F02000897
:10010000000000005F0200085F0200085F020008B4
:1001100000000000000000000000000000000000DF
:100120005F0200085F0200085F0200085F0200082B
:100130005F02000800000000000000000000000056
:100140000000000000000000000000005F02000846
:100150005F0200085F0200085F0200085F020008FB
:100160005F0200085F0200080000000000000000BD
:10017000000000000000000000000000000000007F
:10018000000000005F020008000000000000000006
:100190005F02000800F002F800F044F80AA090E8BE
:1001A000000C82448344AAF10107DA4501D100F032
:1001B00039F8AFF2090EBAE80F0013F0010F18BFBB
:1001C000FB1A43F001031847CC170000EC1700009E
:1001D000103A24BF78C878C1FAD8520724BF30C873
:1001E00030C144BF04680C60704700000023002445
:1001F00000250026103A28BF78C1FBD8520728BF37
:1002000030C148BF0B607047642900F0F18063295A
:1002100000F05B82002070471FB501F0A9FB1FBDF5
:1002200010B510BD00F062FA1146FFF7F5FF01F0BE
:10023000ABF900F080FA03B4FFF7F2FF03BC00F063
:1002400083FA00000948804709480047FEE7FEE7B7
:10025000FEE7FEE7FEE7FEE7FEE7FEE7FEE7FEE776
:1002600004480549054A064B7047000089140008F8
:1002700095010008A8000020A8060020A802002080
:10028000A802002053EA020C00F069802DE9F04B2F
:100290004FF00006002B1FBFB3FA83F503FA05F4F5
:1002A00024FA05F65E4012BF1643B2FA82F502FA4E
:1002B00005F4C5F120051EBF22FA05FC44EA0C0432
:1002C000203556EA044C4FEA144418BF641C4FF022
:1002D00000084FF00009904271EB030C39D300295C
:1002E00019BFB1FA81F701FA07F6B0FA80F700FA00
:1002F00007F6C7F120071EBF20FA07FC46EA0C06E6
:100300002037B6FBF4FCA7EB0507103F07F01F0BE7
:10031000CBF120060CFA0BFB2CFA06F644BFB346D1
:100320000026202FA4BF5E464FF0000B5BEA060CB0
:1003300008BF4FF0010B19EB0B09ABFB027C48EB3C
:100340000608C01B06FB02CC0BFB03CC71EB0C01B7
:10035000C1E70B46024641464846BDE8F08B13B55F
:100360004FF000004FF00001AFF30080BDE81C40EB
:10037000704700000FB41CB5074B06AA7B446946C2
:100380000090059800F07FF90020694600F08EF992
:100390001CBC5DF814FB00002D03000070B50C467A
:1003A0000546012A05D02878800600D5EA69002391
:1003B00002E0012305E05B1C934202D2E05C0028CE
:1003C000F9D1A869E618C01AA861286A18442862F9
:1003D0002846AFF3008004E0D5E9012114F8010BB1
:1003E0009047B442F8D32846AFF3008070BD0000B8
:1003F0002DE9F0410646002410687529314616A5FE
:1004000010D0AFF30080002802DA404213A507E0C5
:1004100031688A0701D512A502E0490704D511A564
:10042000012401E0AFF3008000210A2206F1240735
:1004300009E0B0FBF2FCB0FBF2F302FB1C00303031
:1004400078541846491C0028F3D123462A463046E2
:10045000BDE8F04100F0B9B8000000002D00000038
:100460002B000000200000002DE9F0474FF0000AAB
:1004700089460446C0F820A02046E1688847002845
:1004800076D0252806D0D4E901219047206A401C67
:100490002062F1E7E168204600258847C4F81CA0E7
:1004A00006460027C4F818A02A2E09D0304601F0CD
:1004B00004F838B304EB8708303EC8F8186019E038
:1004C00059F8041B204604EB87029161E1688847D4
:1004D000012F064618D1E069002820DA25F0200512
:1004E0001DE0D8F8180000EB800006EB4000303823
:1004F000C8F818002046E1688847064600F0DDFF8E
:100500000028EED1012F0AD02E2E08D12046E16816
:1005100088477F1C0646022F45F02005C4DBA069F2
:10052000002803DA404245F00105A061E80701D048
:1005300025F01005B6B1A6F14100192802D82036E1
:1005400045F400654A463146204625604D46FFF792
:100550005BFE58B1012806D0ED1D25F0070000F123
:10056000080989E704E005F1040985E730468AE7D0
:10057000206ABDE8F0874FF0000200B513469446AC
:100580009646203922BFA0E80C50A0E80C50B1F1EB
:100590002001BFF4F7AF090728BFA0E80C5048BFFF
:1005A0000CC05DF804EB890028BF40F8042B08BF9D
:1005B000704748BF20F8022B11F0804F18BF00F899
:1005C000012B70477047704770472DE9F0470D4683
:1005D00099469246044600F124080168880604D52D
:1005E000E06921F01001216000E00120A84201DD56
:1005F000471B00E00027A1697A1902EB0900081ADD
:10060000A0612078C00602D42046AFF30080002607
:1006100008E0D4E901211AF806009047206A401C3E
:10062000761C20624E45F4DB2078C0060AD52046B1
:10063000AFF3008006E0D4E9012130209047206A22
:10064000401C2062381EA7F10107F4DC07E0D4E962
:10065000012118F805009047206A401C2062281EDE
:10066000A5F10105F3DC2046AFF3008020780006F9
:1006700002D50220BDE8F0870120FBE701694A1C92
:1006800002610878704700B58FB0CDE901310021D3
:10069000059105497944CDE9031011466846FFF7F5
:1006A000E3FE0FB000BD0000E5FFFFFF0A6802F89F
:1006B000010B0A60704710B5436913B1AFF30080B6
:1006C00001E0FFF76BFE012010BD127800F124015C
:1006D0000A7000224A700122EDE711684FF0FF32E4
:1006E000E9E7000000487047440000207546FFF726
:1006F000F9FFAE4605006946534620F007008546DF
:1007000018B020B5FFF7ACFDBDE820404FF0000663
:100710004FF000074FF000084FF0000B21F00701E9
:10072000AC46ACE8C009ACE8C009ACE8C009ACE82C
:10073000C0098D46704710B50446AFF300802046CF
:10074000BDE81040FFF777BD01491820ABBEFEE7BA
:10075000260002007047FEE77047000070B50446AF
:1007600000F004F90546601C02D0044800780444F7
:1007700000F0FCF8401BA042FAD370BD340000200A
:100780002DE9F84FDFF8B8A10022012403254FF02E
:100790000F090AF1040BAAF1040E00BF0B6804FA5A
:1007A00002F63340B34273D10F7907F00307012FEC
:1007B00001D0022F16D187684FEA420805FA08FCDB
:1007C00027EA0C07D1F80CC00CFA08FC4CEA070C1D
:1007D000C0F808C04768B7430E79C6F300169640C4
:1007E0003E4346600E79F643B6070DD0C768560003
:1007F00005FA06FC27EA0C07D1F808C00CFA06FC3B
:100800004CEA070CC0F80CC00E7906F00306022E65
:1008100010D1D60800EB8608D8F8206057074FEAB9
:10082000D76C09FA0CF7BE430F6907FA0CF7374388
:10083000C8F8207006684FEA420C05FA0CF7BE4370
:100840000F7907F0030707FA0CF7374307604E6884
:1008500016F4403F6DD03B4E376847F48047376011
:10086000366822F0030706F480460096364E07EB02
:10087000060CDCF8086897073F0F09FA07F826EA24
:100880000806DFF8C880404503D14FF000081EE09D
:100890004FE0DFF8BC80404502D14FF0010816E080
:1008A000DFF8B080404502D14FF002080FE0DFF8DA
:1008B000A880404502D14FF0030808E0DFF89C8093
:1008C000404502D14FF0040801E04FF0070808FA54
:1008D00007F848EA0608CCF80888DAF800605746B6
:1008E000D1F804C09E435FEACC2C00D51E433E6085
:1008F000DBF800605F46D1F804C09E435FEA8C2CB1
:1009000000D51E433E60DEF800607746D1F804C093
:100910009E435FEA8C3C00D51E433E60084F083F73
:100920003E68D1F804C09E435FEACC3C00D51E432C
:100930003E60521C102AFFF431AFBDE8F88F000072
:10094000083C0140443802400030014000000240B1
:100950000004024000080240000C02400010024067
:100960000AB1816170470904FBE700000148806813
:10097000704700003400002002488168027811446A
:1009800081607047340000200B4810B5016841F4C5
:1009900000710160016841F480610160016841F407
:1009A00080710160032000F061F80F2000F006F86C
:1009B00000F024F8002010BD003C024070B50D4D41
:1009C00004464FF47A712878B1FBF0F00A490968BF
:1009D000B1FBF0F000F00EFB48B9102C07D200225A
:1009E0002146501E00F022F800206C6070BD0120EE
:1009F00070BD000034000020400000200A4808B507
:100A0000016841F480410160006800F4804000907A
:100A10000548001F016841F080510160006800F046
:100A20008050009008BD000044380240F0B40E4BE6
:100A30001B680C46C3F30223C3F10705042D00D93C
:100A40000425191D072901D2002300E0DB1E012621
:100A500006FA05F1491E214099409E40761E164037
:100A60003143F0BC00F019BD0CED00E0064900F088
:100A7000070208684FF6FF03184040EA0220034AC5
:100A800010430860704700000CED00E00000FA051C
:100A90002DE9F0470E46050065D0DFF81481D8F83F
:100AA0000000F7B200F00700B04207D288F80070EB
:100AB000D8F8000000F00700B04254D128683D4C3F
:100AC000810712D5400703D5206840F4E05020602C
:100AD0002878000703D5206840F460402060206833
:100AE000A96820F0F000084320602878C0072DD0C6
:100AF000304968680839012812D0022813D0032829
:100B000011D00968890700292DDA216821F0030135
:100B100001432160FFF72AFF814641F2883A0EE047
:100B200009688903EFE709688901ECE7FFF71EFF11
:100B3000A0EB0901514502D90320BDE8F0872068E8
:100B4000696800F00C00B0EB810FEFD1D8F800100D
:100B5000404601F00701B14207D90770006800F074
:100B60000700B04201D00120E7E72878400705D50B
:100B70002068E96820F4E0500843206028780007E6
:100B800006D52068296920F4604040EAC100206051
:100B900000F048F82168084AC1F30311515CC840CD
:100BA0000649086006480068FFF708FF0020C4E710
:100BB000003C0240083802407A190008400000203A
:100BC000380000200F2202600C4A136803F0030370
:100BD0004360136803F0F0038360136803F4E05389
:100BE000C36012684FF4E05303EAD2020261044882
:100BF000006800F0070008607047000008380240F5
:100C0000003C02400448054900680968044AC1F3F1
:100C10008221515CC84070474000002008380240E3
:100C20008A190008154810B5006810F00C02144825
:100C300013D01449042A0FD0082A0ED10F4C241FB8
:100C40002268236802F03F025B0207D52068C0F3E8
:100C50008810A0FB010106E0084610BD2168C1F321
:100C60008811A1FB00010023FFF70CFB2168C1F3F1
:100C70000141491C4900B0FBF1F010BD08380240A9
:100C80000024F40040787D012DE9F84F04006ED077
:100C90002078DFF84C93C007A9F104054AD009F188
:100CA00004000168C1F38101012908D00068C0F384
:100CB000810002280AD1D9F80000400206D5286830
:100CC000800337D560680028E1D033E06068B0F574
:100CD000803F10D0B0F5A02F286810D020F48030CD
:100CE0002860286820F4802028606068A8B1FFF799
:100CF0003DFE06460DE0286840F48030F4E740F4FD
:100D000080202860F7E700BFFFF730FE801B6428D3
:100D100073D828688003F7D50CE0FFF727FE064656
:100D200005E000BFFFF722FE801B6428F0D828688A
:100D30008003F7D42078DFF8AC8280074FF0000AF8
:100D40003ED5A748001D016811F00C0F08D00068BF
:100D5000C0F3810002280BD1D9F80000400207D46B
:100D60002868800716D5E068012800D112E033E139
:100D7000E068B8B10120C8F80000FFF7F7FD0646AB
:100D800005E000BFFFF7F2FD801B0228C0D82868ED
:100D90008007F7D52868216920F0F80040EAC100F3
:100DA00028600DE0C8F800A0FFF7E0FD064604E06B
:100DB000FFF7DCFD801B02281FD828688007F7D4C6
:100DC0002078000722D5864F87486169703771B156
:100DD00001210160FFF7CAFD064604E0FFF7C6FDEA
:100DE000801B022809D838688007F7D50EE0C0F8C4
:100DF00000A0FFF7BBFD064605E082E0FFF7B6FD69
:100E0000801B02287DD838688007F7D420784007F7
:100E100068D5DFF8CCB100270BF13C0BDBF8000004
:100E2000C0000BD4DBF8001041F08051CBF800106B
:100E3000DBF80000012700F0805000906B4E306816
:100E4000C00510D4306840F480703060FFF78EFD2C
:100E5000009005E0FFF78AFD0099401A022850D85B
:100E60003068C005F6D55E4EA0686C3601280FD0FC
:100E70000528306810D020F001003060306820F084
:100E800004003060A068B8B1FFF770FD00900FE07B
:100E9000306840F00100F4E740F004003060F7E70C
:100EA000FFF764FD0099411A41F28830814266D80B
:100EB00030688007F4D50EE0FFF758FD009007E09A
:100EC000FFF754FD0099411A41F28830814256D80B
:100ED00030688007F4D42FB1DBF8001021F0805186
:100EE000CBF80010A069C8B33D49091D0968C1F3DA
:100EF000810102294AD00228504607D0C8F8600074
:100F000000E03CE0FFF732FD04463BE04746C8F80E
:100F10006000FFF72BFD064605E000BFFFF726FD4A
:100F2000801B02282BD828688001F7D4D4E9070158
:100F30000843A16A2E4A490802EB0141626A41EA6C
:100F40008211084394F82C1040EA0161C9F800109E
:100F500001203866FFF70AFD044606E03EE000BFC8
:100F6000FFF704FD001B022809D828688001F7D587
:100F700034E000BFFFF7FAFC001B022802D903206F
:100F8000BDE8F88F28688001F4D427E00128F7D065
:100F9000D9F80000E26900F4800191421CD1226A74
:100FA00000F03F01914217D147F6C071626A0140DB
:100FB000B1EB821F10D1A26A4FF0FF3300F4403131
:100FC00003EB5202B1EB024F06D194F82C1000F063
:100FD0007060B0EB016F01D00120D1E70020CFE7B6
:100FE0000438024000004742800E47420070004033
:100FF0000000FFFF10B5401EB0F1807F01D301203B
:1010000010BD4FF0E02460610F21601700F045FA39
:101010000020A06107202061002010BDFEE7012113
:10102000022000F0EDB800002DE9F04106AC94E894
:10103000E0101E4CA061A180E280236225826682BE
:10104000A782A4F816C000F05FF8022020702820C4
:10105000A0701420FFF782FB032000F051F9052057
:10106000FFF77CFB032000F04BF90120FFF776FB34
:10107000032000F045F90120FFF770FB022000F08B
:101080003FF90120FFF76AFB0F2000F05DF9012016
:1010900000F05AF90320FFF761FB282000F054F913
:1010A000BDE8F0410320FFF759BB0000000000201D
:1010B00010B5094C0122E188A069FFF751FC0A2014
:1010C00000F06CF80022E188A069FFF749FCBDE858
:1010D00010403C2000F062B8000000201FB502461E
:1010E00003A16846FFF746F9684600F076F81FBD91
:1010F00025640000020003488188806900D0012235
:10110000FFF72EBC0000002000B587B005A9684697
:10111000FFF758FD0398A8B3FFF774FD5FEA40009E
:1011200000F015FB9FED191B53EC112B00F022FB77
:1011300000F0E0FA17490A6842F002020A60164914
:101140000A6822F010020A600A6822F001020A60AE
:101150000A6822F004020A600A6842F008020A6083
:101160000D492831401E08600920091D08600A4900
:10117000012014310860081F016821F0010101609D
:1011800007B000BDFFE7FFF73DFDC9E78DEDB5A056
:10119000F7C6B03E40380240000400400949401EF6
:1011A000086008481C38016821F001010160054908
:1011B0002C390A6842F001020A600168C907FCD0B4
:1011C000704700002C04004010B5012000F0BCF86E
:1011D000BDE810400320FFF7C1BA70B506460024F1
:1011E00009E00120FFF786FF284600F017F8641C8D
:1011F000E4B2102C02D2355D002DF2D170BD00009A
:10120000491E01F00F01012804D041F0C00000BFC9
:1012100000F09AB841F08000FAE700002DE9F84F9D
:101220000209364C02F0080302F0040B217802F0A8
:10123000020902F0010700F0080A00F0040600F0BD
:10124000020500F00108009301292FD0022952D194
:101250003A46218A206AFFF783FB4A46618A206A60
:10126000FFF77EFB5A46A18A206AFFF779FBE18AE5
:10127000009A206AFFF774FBFFF71AFF4246218AA3
:10128000206AFFF76DFB2A46618A206AFFF768FB38
:101290003246A18A206AFFF763FB5246E18A206A40
:1012A000FFF75EFBBDE8F84FFFF702BF424621891A
:1012B000E069FFF755FB2A466189E069FFF750FBBB
:1012C0003246A189E069FFF74BFB5246E189E069AC
:1012D000FFF746FB3A46218A206AFFF741FB4A4660
:1012E000618A206AFFF73CFB5A46A18A206AFFF711
:1012F00037FB009AD2E7BDE8F88F0000000000201D
:1013000070B505460020FFF7F5FE0E4C05F0010212
:10131000218A206AFFF724FB05F00202618A206A15
:10132000FFF71EFB05F00402A18A206AFFF718FBF5
:1013300005F00802E18A206AFFF712FBBDE8704061
:10134000FFF7B6BE0000002010B504460020FFF7EE
:10135000D1FE2046BDE81040FFF760BFF0B587B072
:1013600014216846FFF707F921480024016841F07D
:1013700010010160016801F010010591016841F060
:1013800080010160016801F080010591016841F070
:10139000010101600068174E00F001000590002275
:1013A000F0213046FFF7DCFA134F00227F21384648
:1013B000FFF7D6FA0F20CDE90004694630460294C3
:1013C000FFF7DEF9F02000900125CDE901546946D0
:1013D00030460394FFF7D4F97F200090CDE9015403
:1013E000694638460394FFF7CBF907B0F0BD00001B
:1013F000303802400010024000000240FEE7FEE7E5
:1014000070477047FFF7B8BA10B592B03021684600
:10141000FFF7B1F814210CA8FFF7ADF81848002425
:10142000016841F080510160006800F08050119027
:101430001448016821F4404141F400410160006812
:10144000069400F440401190022000900120039087
:10145000102004906846FFF717FC08B172B6FEE74B
:101460000F20CDE90C040E940F9400210CA81094C9
:10147000FFF70EFB002801D072B6FEE712B010BDD8
:1014800040380240007000400248016841F4700199
:101490000160704788ED00E0FEE70907090E0028AB
:1014A00004DB00F1E02080F80014704700F00F002A
:1014B00000F1E02080F8141D704730380A2801D26E
:1014C000012070470020704738B523A064240068CD
:1014D00000236D460090E85C00F04EF814220020D6
:1014E00000F042F8012800D10022012000F03CF871
:1014F000012800D10122022000F036F8012800D195
:101500000222032000F030F8012823D0142A19D039
:1015100002EB8300C4B2F02000F02EF8002000F0AF
:1015200023F80128FAD0012000F01EF80128FAD093
:10153000022000F019F80128FAD0032000F014F876
:101540000128FAD0F02000F017F85B1C042BC2DB56
:10155000204638BD0322DBE71020408001480069A7
:10156000C0B270470010024002490969C14001F051
:10157000010070470010024002494A6960F3070207
:101580004A6170470010024088B0FFF7FDF9FFF78D
:101590003BFFFFF7E3FE40232022102108208DE8C7
:1015A0000F004F48022203460121FFF73DFDFFF7E0
:1015B0000BFE4C4E4FF4FA7900252C46F020FFF735
:1015C000DBFF00BFFFF7CAFFF028FBD0FFF77CFF6F
:1015D00064280CD0325C44A1A2F1300504A8FEF7C7
:1015E000C9FE04A8FFF7F9FD4846FFF7B7F8F02059
:1015F000FFF7C2FFFFF7B2FFF028FBD0FFF764FF51
:1016000064280BD0325C38A1904604A8FEF7B2FEE5
:1016100004A8FFF7E2FD4846FFF7A0F8F020FFF727
:10162000ABFF00BFFFF79AFFF028FBD0FFF74CFF9E
:1016300064280CD0325C2CA1A2F1300404A8FEF77F
:1016400099FE04A8FFF7C9FD4846FFF787F8F02088
:10165000FFF792FFFFF782FFF028FBD0FFF734FF80
:1016600007466428A8D0F25D1FA104A8FEF782FEF9
:1016700004A8FFF7B2FDF05D3D2805D0FFF7CFFCD1
:101680001AA0FFF7AAFD15E0B8F12D0F18D0B8F198
:101690002B0F17D0B8F12A0F16D0B8F12F0F16D094
:1016A000FFF7BDFC11A0FFF798FD4846FFF756F87D
:1016B000FFF78AFD4846FFF751F8FFF785FD7BE706
:1016C000281B06E0281904E015FB04F001E095FB57
:1016D000F4F0FFF703FD4846FFF740F8EAE70000A3
:1016E0000000024024000020256300004552524FB4
:1016F000520000004FEA1153A3F58063D3F11E039B
:10170000A8BFD3F1200C08DB4FF0004242EAC1220F
:1017100052EA505232FA03F0704709420BD4102BB0
:10172000C4BF0020704703F5787CBCF1FF3F05D0B3
:101730004FF0FF3070474FF00000704770B500F079
:10174000C3F800BF4992248000207047F0E7B0FA48
:1017500080F310FA03F10AD0C3F11D0303F580638F
:101760004FEA41504FEA035202EBD12170474FF04C
:1017700000007047DFF848C170B51CEA111E1EBF9B
:101780001CEA13159EEA0C0F95EA0C0F00F06F800F
:1017900081EA030423EA4C134EEAD47E21EA4C1179
:1017A00041F4801143F48013AE44A1FB024CA0FB32
:1017B0000365AEF17F7E361955EB0C05A1FB034C9A
:1017C0004CF10003A0FB021C16EB0C06654153F123
:1017D0000003094218BF46F0010613F4007F0BD145
:1017E0004FEA03314FEA0530340341EA155140EA2C
:1017F00016506FF003020AE04FEAC3214FEAC520FA
:10180000F40241EA555140EA56506FF0020202EBF1
:101810002E4201EB025585EACE710AD05FEA440CF4
:1018200018BF24F0004450F1000041F1000120EA0B
:10183000D47040F2FE7C624500D270BDA84214BF55
:101840004FF080444FF04044002E08BF0024BEF10A
:10185000806FA8BFA1F1C041BDE8704080F28280D6
:101860004FF0000001F1C04101F0004170479EEAD5
:101870000C0F0CEA131518BF95EA0C0F06D04FF0A9
:10188000000081EA030E0EF0004170BD00F01CF86C
:101890008900013E00F007B800F009B84FEA430C98
:1018A0005FEA5C5C08D081EA030100F05BB84FEAB4
:1018B000410C5FEA5C5CF6D14FF0000001497047D3
:1018C0000000FF070000F87F0EF1020E2EF0030E5D
:1018D0005EF8046B364205D4012A43EB030515F587
:1018E000001F12D8012841EB010C1CF5001F0CD879
:1018F0000ED14FEAD17C15F5001F0CEB4C0C0CF10E
:10190000020C08BF4CEBD37C04E04FF0080C01E064
:101910004FEAD37C0CEB4C0526FA05F606F00706D9
:10192000B6F1040C06D20EEB860CBDE870404CF00C
:10193000010C6047DFE80CF0090B02024FF0004198
:101940004FF00000A1F5002170BD19461046012896
:1019500051EB010418BFD4F5001484BF002001F03E
:10196000004170BD0808A0F500114FEA3101704731
:101970004FF04070E1EE100A7047000000000000D8
:10198000000001020304060708090000000001022C
:1019900003040000B4190008000000204400000007
:1019A000D0010008F8190008440000206406000077
:1019B000EC010008010F38000000000000000000EA
:1019C0000000000000000000000000000000000017
:1019D00000000000000000003738392F3435362A67
:1019E0003132332B43303D2D010000001000000048
:0819F000000000000024F400D7
:040000050800019559
:00000001FF
