:020000040800F2
:100000009806002055020008A3210008D51D00080D
:10001000A12100080F1500083D2200080000000083
:10002000000000000000000000000000A721000800
:100030001115000800000000A5210008A9210008F2
:100040006F0200086F0200086F0200086F020008CC
:100050006F0200086F0200086F0200086F020008BC
:100060006F0200086F0200086F0200086F020008AC
:100070006F0200086F0200086F0200086F0200089C
:100080006F0200086F0200086F0200080000000005
:100090000000000000000000000000006F020008E7
:1000A0006F0200086F0200086F0200086F0200086C
:1000B0006F0200086F0200086F0200086F0200085C
:1000C0006F0200086F0200086F0200086F0200084C
:1000D0006F0200086F0200086F02000800000000B5
:1000E0006F0200086F0200086F02000800000000A5
:1000F0000000000000000000000000006F02000887
:10010000000000006F0200086F0200086F02000884
:1001100000000000000000000000000000000000DF
:100120006F0200086F0200086F0200086F020008EB
:100130006F02000800000000000000000000000046
:100140000000000000000000000000006F02000836
:100150006F0200086F0200086F0200086F020008BB
:100160006F0200086F02000800000000000000009D
:10017000000000000000000000000000000000007F
:10018000000000006F0200080000000000000000F6
:100190006F02000800F002F800F04CF80AA090E8A6
:1001A000000C82448344AAF10107DA4501D100F032
:1001B00041F8AFF2090EBAE80F0013F0010F18BFB3
:1001C000FB1A43F001031847BC250000DC250000A2
:1001D000103A24BF78C878C1FAD8520724BF30C873
:1001E00030C144BF04680C60704700000023002445
:1001F00000250026103A28BF78C1FBD8520728BF37
:1002000030C148BF0B607047662902F063826429E1
:1002100000F0CC80002070471FB502F056FA00F0C5
:1002200039FC04000020002102F08AF8E0601FBDC4
:1002300010B510BD00F02EFD1146FFF7EDFF02F0E6
:100240002DF800F04CFD03B4FFF7F2FF03BC00F003
:100250008FFD00000948804709480047FEE7FEE798
:10026000FEE7FEE7FEE7FEE7FEE7FEE7FEE7FEE766
:1002700004480549054A064B704700002D22000836
:1002800095010008980000209806002098020020A0
:100290009802002053EA020C00F069802DE9F04B2F
:1002A0004FF00006002B1FBFB3FA83F503FA05F4E5
:1002B00024FA05F65E4012BF1643B2FA82F502FA3E
:1002C00005F4C5F120051EBF22FA05FC44EA0C0422
:1002D000203556EA044C4FEA144418BF641C4FF012
:1002E00000084FF00009904271EB030C39D300294C
:1002F00019BFB1FA81F701FA07F6B0FA80F700FAF0
:1003000007F6C7F120071EBF20FA07FC46EA0C06D5
:100310002037B6FBF4FCA7EB0507103F07F01F0BD7
:10032000CBF120060CFA0BFB2CFA06F644BFB346C1
:100330000026202FA4BF5E464FF0000B5BEA060CA0
:1003400008BF4FF0010B19EB0B09ABFB027C48EB2C
:100350000608C01B06FB02CC0BFB03CC71EB0C01A7
:10036000C1E70B46024641464846BDE8F08B13B54F
:100370004FF000004FF00001AFF30080BDE81C40DB
:10038000704700000FB41CB5074B06AA7B446946B2
:100390000090059800F065FB0020694600F074FBB2
:1003A0001CBC5DF814FB0000F90600002DE9F041CB
:1003B0000646002410687529314616A510D0AFF303
:1003C0000080002802DA404213A507E031688A075E
:1003D00001D512A502E0490704D511A5012401E0C9
:1003E000AFF3008000210A2206F1240709E0B0FBE8
:1003F000F2FCB0FBF2F302FB1C00303078541846DC
:10040000491C0028F3D123462A463046BDE8F04176
:1004100000F0B9B8000000002D0000002B00000023
:10042000200000002DE9F0474FF0000A89460446FD
:10043000C0F820A02046E1688847002876D025280B
:1004400006D0D4E901219047206A401C2062F1E7E0
:10045000E168204600258847C4F81CA0064600270E
:10046000C4F818A02A2E09D0304601F010FF38B386
:1004700004EB8708303EC8F8186019E059F8041BEF
:10048000204604EB87029161E1688847012F064608
:1004900018D1E069002820DA25F020051DE0D8F801
:1004A000180000EB800006EB40003038C8F8180058
:1004B0002046E1688847064601F0E9FE0028EED1B3
:1004C000012F0AD02E2E08D12046E16888477F1CD4
:1004D0000646022F45F02005C4DBA069002803DA98
:1004E000404245F00105A061E80701D025F0100564
:1004F000B6B1A6F14100192802D8203645F40065AE
:100500004A463146204625604D46FFF77DFE58B1EC
:10051000012806D0ED1D25F0070000F1080989E744
:1005200004E005F1040985E730468AE7206ABDE862
:10053000F0874FF0000200B51346944696462039E6
:1005400022BFA0E80C50A0E80C50B1F12001BFF48C
:10055000F7AF090728BFA0E80C5048BF0CC05DF8F2
:1005600004EB890028BF40F8042B08BF704748BF40
:1005700020F8022B11F0804F18BF00F8012B7047B4
:100580007047704770472DE9F0470D4699469246EF
:10059000044600F124080168880604D5E06921F0CA
:1005A0001001216000E00120A84201DD471B00E0AE
:1005B0000027A1697A1902EB0900081AA0612078C6
:1005C000C00602D42046AFF30080002608E0D4E93C
:1005D00001211AF806009047206A401C761C206210
:1005E0004E45F4DB2078C0060AD52046AFF30080E4
:1005F00006E0D4E9012130209047206A401C2062A7
:10060000381EA7F10107F4DC07E0D4E9012118F84E
:1006100005009047206A401C2062281EA5F10105B4
:10062000F3DC2046AFF300802078000602D50220DC
:10063000BDE8F0870120FBE770472DE9FF4F0C462E
:100640001E464FF0FF378BB0D2E90001DDF8608025
:100650000A908A46C1F30A5505B93D46002108466D
:100660004FF00000BAF1000F00F4400005DA00EB93
:1006700080004FF4400101EA50004FEA9059B9F16F
:10068000010F00DDB9460A9850EA4A000ED044F640
:100690001050A5F2FF3545432F14B8F1000F1ED0BE
:1006A0007542291E1EDDC9F100021CE0B8F1010FE0
:1006B0004FF0000001D0302103E0F24305E0215467
:1006C000401CB042FBDB30460022002121540B9934
:1006D000C1F80880C1E900200FB0BDE8F08FBD1B54
:1006E0006D1CDEE74A4600DA694206A800F05CFAB3
:1006F00006AB93E8070003AB83E8070050460A996E
:1007000000F03DFB8DE80700A0F500501F38009079
:100710000398002D0ADD42F21F014A4608440023D7
:1007200003A90390684600F0A6FD09E0A0F500507B
:100730004A461F38002303A90390684600F0B0FD25
:100740008DE807000004000C03D04FF0FF30410893
:1007500000E01046B8F1000F03D0002200921546C9
:100760001EE0751E05D400F099F9303262556D1EF9
:10077000F9D5B3460122084302D000227F1C04E0D1
:100780002078302801D100227F1E002A099784D0CA
:100790001DE0112D07DA00F081F9303262556D1C31
:1007A00050EA0102F5D1084302D00098C8B10EE02A
:1007B0000021681E05E0235C625C63542254401EE5
:1007C000491C8142F7DBAB46A81B401E0990002064
:1007D00004F80B000B98099AC0F80880C0E9002BB8
:1007E0007AE711264FF0000857E72DE9F04F8846C9
:1007F0000446D21D22F0070191B0D1E90001CDE9F4
:100800000A0101F01CFD02460B98C00F01D02D20FB
:1008100007E02068810701D52B2002E0202101EAB2
:10082000C000032A099001D0072A05DB0346414690
:10083000204600F079F90BE12078800601D5E069C7
:1008400000E00620B8F1650F814606D0B8F1660FCA
:1008500018D0B8F1670F70D131E00020B9F1110F55
:10086000009001DB112301E009F101030AAA01A9AB
:100870000CA8FFF7E2FEDDE90C70002609F1010586
:10088000834647E001204B4600904FF000470AAAFC
:1008900001A90CA8FFF7D1FEDDE90DB00C995D466A
:1008A000002610B909F101000D18B9EB050003D4B9
:1008B000C0F1FF3609F10105A5EB09002BE0B9F104
:1008C000010F01DA4FF001090020B9F1110F00907A
:1008D000484601DD112300E003460AAA01A90CA83D
:1008E000FFF7ABFEDDE90C704D460026834620780D
:1008F00000070AD4AB4500DA5D4601A8012D04DDEE
:10090000411911F8011C302907D04F4502DA17F1BF
:10091000040F04DA012082460FE06D1EEEE7002F7F
:1009200002DCED1B3E4403E0781CA84200DD7D1C88
:10093000B81B00F1010A4FF000472078000703D4EC
:10094000AA4501DB4FF0FF3A0021B7F1004F0DF14E
:1009500043088DF8431024D002202B23002F01DA06
:100960007F422D230A21021EA0F1010000DC5FB1AD
:1009700097FBF1FC97FBF1F201FB1C7C17460CF195
:10098000300C08F801CDEEE7A8F1010003702188D2
:10099000090501D5452100E06521A0F1010800F815
:1009A000011C09980FA9A1EB0807FF1D00B1012048
:1009B000411901EBEA70A1693844081A401EA06190
:1009C0002078C00602D42046AFF30080099828B1F1
:1009D000D4E901219047206A401C20622078C0069B
:1009E00022D52046AFF300801EE0002E04DBB34585
:1009F00002DD01A8805D00E03020D4E901219047AC
:100A0000206A401C2062761CAAF101005FEA000AFD
:100A10000AD100F03FF8C0680168405CD4E90121C8
:100A20009047206A401C2062281EA5F10105DCDCED
:100A300007E0D4E9012118F8010B9047206A401C17
:100A40002062381EA7F10107F3DC2046AFF30080D7
:100A5000032011B041E6000001694A1C02610878D8
:100A6000704700B58FB0CDE90131002105910549EE
:100A70007944CDE9031011466846FFF7D3FC0FB067
:100A800000BD0000E5FFFFFF0A6802F8010B0A60E5
:100A900070470000004870475400002030B5B0F1A6
:100AA0000A024FEA900E71F100034EEA817EB0EB2C
:100AB0000E0061EB91014FEA101E4EEA017E10EB31
:100AC0000E0041EB11114FEA102E4EEA016E10EBB1
:100AD0000E0041EB11214FEA104E4EEA014E10EB91
:100AE0000E0041EB1141401841F100014FEAD000E6
:100AF00040EA41704FEAD10110EB80054FEA8104D2
:100B000044EA907444EB01046D1944EB0404521B55
:100B1000A3414FF0000348BF0A3200D530BD401C4E
:100B200041F1000130BD00002DE9F0411F460446AF
:100B300003260168072A01F4006004DB08B116A54A
:100B400005E016A503E008B115A500E015A521F004
:100B500010002060A069C01EA0610FB1401EA061FE
:100B60002046AFF300804FB1D4E9012138469047C9
:100B7000206A401C2062C01C206206E0206AFAE75E
:100B8000D4E9012115F8010B9047761EF8D22046D2
:100B9000AFF30080BDE8F0814E414E006E616E0003
:100BA000494E4600696E66002DE9F04781461646BB
:100BB0008AB0354878440DC88DE80D003248784435
:100BC000801C03AC0DC884E80D0041F69B3008443E
:100BD000372190FBF1F290FBF1F5A5F1800501FBC7
:100BE00012041B3C02D56442012000E00020DFF823
:100BF00098A080460027FA44AAF1BE0A0EE0E0075A
:100C00000AD03246684607EB470101230AEB81010F
:100C100000F046FB8DE8070064107F1C002CEED12D
:100C2000194F7F44AE3F19E0E80715D007EB0410D9
:100C30000DF1180A90E80E008AE80E00C068F04234
:100C400001D1981908903246012306A903A800F0A3
:100C500027FB03AB83E807006D10641C002DE3D174
:100C60004FF0010332466946B8F1000F03A802D0E5
:100C700000F001FB01E000F013FBC9E90001C9F835
:100C800008200AB0BDE8F087B41B00000048704798
:100C9000340000207546FFF7F9FFAE4605006946AF
:100CA000534620F00700854618B020B5FFF7E0FA5C
:100CB000BDE820404FF000064FF000074FF000085D
:100CC0004FF0000B21F00701AC46ACE8C009ACE8DE
:100CD000C009ACE8C009ACE8C0098D46704710B542
:100CE0000446AFF300802046BDE81040FFF7ABBAE2
:100CF0004FF0013C50F8042B51F8043B9A4221D1AB
:100D0000A2EB0C03934313EACC1317D150F8042B36
:100D100051F8043B9A4215D1A2EB0C03934313EA1A
:100D2000CC130BD150F8042B51F8043B9A4209D153
:100D3000A2EB0C03934313EACC13DBD04FF000007B
:100D4000704700BFD01A01BAB1FA81F101F0180161
:100D500022FA01F0CB40C1F12001DBB2C0B2C01ACF
:100D60002CFA01F3D11A914311EAC311E6D170476D
:100D700001491820ABBEFEE72600020070475FEA7B
:100D8000400C08BF91F0000F4FEA8C234FEAC122BC
:100D900043EA51514FEA1C5018BF00F5F0404FEAAA
:100DA000300018BF41F000415FEA6C5C00F0298020
:100DB000BCF1FF3F08BF40F080407047130C06BFF6
:100DC00012044FF0100C4FF0000C130E04BF12026F
:100DD0000CF1080C130F04BF12010CF1040C930F5B
:100DE00004BF92000CF1020CD30F04BF52000CF1AF
:100DF000010C11464FF00002A0F11F00A0EB0C0007
:100E0000704711F0004F08BF704731F000413FF4C8
:100E1000D5AF0B0C06BF09044FF0100C4FF0000CBF
:100E20000B0E04BF09020CF1080C0B0F04BF0901E3
:100E30000CF1040C8B0F04BF89000CF1020CCB0FDA
:100E400004BF49000CF1010CCCF12003A0EB0C0015
:100E500022FA03F302FA0CF241EA030100F1010065
:100E6000704720F07F4C80EA030023F07F47ACEB13
:100E7000070303F57C5300F0004003F1FF032DE965
:100E800080494FEA154B09B44FEA144325EA0B4E4B
:100E900024EA03480FF2042606EB132749083E789C
:100EA0005FEA320203FB0667C7F5000707FB06F699
:100EB0004FEA54374FEAD64606F1020607FB066CA6
:100EC000CCF1005C4FEA1C472CEA074C07FB06F408
:100ED0000CFB06F504EB15464FEA961634BF0020CE
:100EE0004FF000404FEAD13706FB07FC4FEA1C4C9D
:100EF0000CFB0BF7D21B03FB0CF761EB07010CFBA0
:100F00000EF7B0EB074072EB17420CFB08F734BF4B
:100F1000A2EB0742B2EB074261EB17414FEA0C44E8
:100F20004FEA910706FB07FC4FEA1C4C0CFB0BF742
:100F3000B0EBC74072EB573203FB0CF734BFA2EBA8
:100F4000C742B2EBC74261EB57310CFB0EF7B0EB77
:100F5000C70072EB57720CFB08F734BFA2EBC70255
:100F6000B2EBC70261EB5771039F4FEA816141EA1F
:100F7000921104EBCC044FEAD1374FEA826206FBB0
:100F800007FC42EA90124FEA80604FEA1C4C0CFBCF
:100F90000BF7D21B03FB0CF761EB07010CFB0EF701
:100FA000B0EB074072EB17420CFB08F734BFA2EB23
:100FB0000742B2EB074261EB17414FEA8C554FEA0B
:100FC000910704EB9C2406FB07FC4FEA1C4C0CFB2E
:100FD0000BF7B0EBC74072EB573203FB0CF734BF93
:100FE000A2EBC742B2EBC74261EB57310CFB0EF7E5
:100FF000B0EBC70072EB57720CFB08F734BFA2EBE3
:10100000C702B2EBC70261EB577115EB4C254FEAF3
:10101000816141EA92114FEA82624FEAD13742EA96
:10102000901206FB07FC44F100044FEA80604FEA8F
:101030001C4C0CFB0BF7D21B03FB0CF761EB0701FD
:101040000CFB0EF7B0EB074072EB17420CFB08F7F6
:1010500034BFA2EB0742B2EB074261EB174115EB3D
:101060001C154FEA813141EA92414FEA823242EA4D
:1010700090424FEA80304FEA0C7644F1000448EA8F
:1010800003434EEA0B484FF0000EB2EB080C71EB35
:10109000030724BF624639464EEB0E0E4FF0000B9D
:1010A0000018524149414BEB0B0BB2EB080C71EBB2
:1010B00003077BF1000B24BF624639464EEB0E0E50
:1010C0004FF0000B0018524149414BEB0B0BB2EBB8
:1010D000080C71EB03077BF1000B24BF6246394615
:1010E0004EEB0E0E51EA020718BF46F0010616EB52
:1010F0000E7655F1000254F1000103D5BDE88901D7
:10110000BDE80088BDE88901BDE80048B619524134
:1011100041EB0101A3F10103704780807F7E7D7C5C
:101120007B7A7978777676757473727171706F6E79
:101130006E6D6C6C6B6A6A69686867666665646424
:10114000636362616160605F5F5E5E5D5D5C5C5BAE
:101150005B5A5A595958585757565655555554541D
:10116000535352525251515050504F4F4F4E4E4D7B
:101170004D4D4C4C4C4B4B4B4A4A4A4949494848C7
:101180004847474747464646454545444444444307
:1011900043434342424242414141002B9C4630D4AA
:1011A00077002BD01CB54FEA370703B44FF010007F
:1011B0004FF01001BAF1000F06D0BCF1000FDCBFF8
:1011C00040F0080040F008014FF000000FBCBDE8FF
:1011D00010400BF1010BBBF1010F08BF5FEA1707CD
:1011E00022BF12F1010211F101014FF0004143F160
:1011F000000300F0004043EA00007047F9D35708AD
:10120000D0E746EA064613F1400F4FEA16461FDDC7
:1012100013F1200FDFBF16430A46002120335B4243
:10122000BED0C3F1200746EA064602FA07F74FEAA6
:10123000164646EA0706C3F1200722FA03F201FA2E
:1012400007F721FA03F14FF0000342EA0702A7E78C
:1012500046EA020646EA06464FEA164646EA01060E
:10126000BCBF46EA0646360C4FF000034FF00002C2
:101270004FF0000194E72DE9804C9A46934670B4F4
:1012800091E8380007C831EA400C48BF34EA430C03
:1012900003D5FFF7E6FDFFF780FFF0BCBDE8008C4B
:1012A0002DE9804C9A46934670B491E8380007C8FF
:1012B00010F0804F08BF13F0804F03D100F005F805
:1012C000FFF76BFFF0BCBDE8008C20F07F4780EAA1
:1012D000030023F07F4C07EB0C03A3F57C5300F0D5
:1012E0000040A3F1FE0392F0000F00F0B38095F0F0
:1012F000000F00F077802DE901494FEA11404FEAD5
:10130000144621EA004800FB06FC24EA064708FBD5
:1013100006F607FB08F800FB07F718EB06484CEB4E
:10132000164C4FEA124B18EB07484FEA15464CEBA8
:10133000174022EA0B4E0BFB06FC25EA06470EFB84
:1013400006F607FB0EFE0BFB07F71EEB064E4CEBFB
:10135000164C4FF000061EEB074E4CEB174B18EBEC
:101360000B0840F1000018EB0E0B58EB000840F1A1
:1013700000008F1A4FF000013CBFC943661B14BF29
:10138000B5EB040C00213CBFC943F61B4FEA1744E0
:101390004EEA8E0E27EA04454FEA1C4704FB07621B
:1013A0002CEA074C05FB07F70CFB05F604FB0CFCCD
:1013B00016EB074642EB174216EB0C4642EB1C427B
:1013C0001BEB060658EB0202414146EA9E0601D598
:1013D000BDE80189B619524141EB0101A3F10103B6
:1013E000BDE801894FEA14454FEA114724EA054652
:1013F00021EA074C05FB07F406FB07F70CFB06F197
:1014000005FB0CFC11EB074144EB17444FEA124774
:1014100011EB0C4144EB1C4422EA074C05FB07F29C
:1014200006FB07F70CFB06F605FB0CFC16EB074664
:1014300042EB174216EB0C4642EB1C456A1854F17E
:10144000000148BF7047B619524141EB0101A3F1B9
:101450000103704795F0000F37D04FEA11424FEA71
:10146000144721EA024624EA074C02FB07F106FB77
:1014700007F70CFB06F402FB0CFC14EB074441EBF2
:1014800017414FEA154714EB0C4441EB1C4125EA88
:10149000074C02FB07F506FB07F70CFB06F602FB01
:1014A0000CFC16EB074645EB174516EB0C4645EBD7
:1014B0001C42121951F1000148BF7047B619524140
:1014C00041EB0101A3F1010370474FEA14454FEAD4
:1014D000114724EA054621EA074C05FB07F106FB04
:1014E00007F70CFB06F24FF0000605FB0CFC12EBB5
:1014F000074241EB174112EB0C4251EB1C4148BF34
:101500007047921841EB0101A3F101037047FEE718
:101510007047000070B5044600F004F90546601CF1
:1015200002D004480078044400F0FCF8401BA042BC
:10153000FAD370BD240000202DE9F84FDFF8B8A1E0
:101540000022012403254FF00F090AF1040BAAF130
:10155000040E00BF0B6804FA02F63340B34273D1A5
:101560000F7907F00307012F01D0022F16D18768EA
:101570004FEA420805FA08FC27EA0C07D1F80CC02C
:101580000CFA08FC4CEA070CC0F808C04768B743DF
:101590000E79C6F3001696403E4346600E79F64338
:1015A000B6070DD0C768560005FA06FC27EA0C07F7
:1015B000D1F808C00CFA06FC4CEA070CC0F80CC0C5
:1015C0000E7906F00306022E10D1D60800EB86082D
:1015D000D8F8206057074FEAD76C09FA0CF7BE43DA
:1015E0000F6907FA0CF73743C8F8207006684FEA0E
:1015F000420C05FA0CF7BE430F7907F0030707FA10
:101600000CF7374307604E6816F4403F6DD03B4EF1
:10161000376847F480473760366822F0030706F4DE
:1016200080460096364E07EB060CDCF808689707F4
:101630003F0F09FA07F826EA0806DFF8C880404598
:1016400003D14FF000081EE04FE0DFF8BC804045BA
:1016500002D14FF0010816E0DFF8B080404502D11A
:101660004FF002080FE0DFF8A880404502D14FF0AC
:10167000030808E0DFF89C80404502D14FF00408E1
:1016800001E04FF0070808FA07F848EA0608CCF826
:101690000888DAF800605746D1F804C09E435FEA34
:1016A000CC2C00D51E433E60DBF800605F46D1F8CD
:1016B00004C09E435FEA8C2C00D51E433E60DEF8DA
:1016C00000607746D1F804C09E435FEA8C3C00D5A9
:1016D0001E433E60084F083F3E68D1F804C09E4359
:1016E0005FEACC3C00D51E433E60521C102AFFF43A
:1016F00031AFBDE8F88F0000083C0140443802409B
:101700000030014000000240000402400008024096
:10171000000C0240001002400AB1816170470904C8
:10172000FBE70000014880687047000024000020AB
:1017300002488168027811448160704724000020CB
:101740000B4810B5016841F400710160016841F473
:1017500080610160016841F480710160032000F044
:1017600061F80F2000F006F800F024F8002010BD0A
:10177000003C024070B50D4D04464FF47A71287854
:10178000B1FBF0F00A490968B1FBF0F000F00EFB84
:1017900048B9102C07D200222146501E00F022F832
:1017A00000206C6070BD012070BD0000240000208E
:1017B000300000200A4808B5016841F4804101600A
:1017C000006800F4804000900548001F016841F067
:1017D00080510160006800F08050009008BD00005A
:1017E00044380240F0B40E4B1B680C46C3F302238E
:1017F000C3F10705042D00D90425191D072901D2BD
:10180000002300E0DB1E012606FA05F1491E2140F7
:1018100099409E40761E16403143F0BC00F027BD33
:101820000CED00E0064900F0070208684FF6FF03E0
:10183000184040EA0220034A104308607047000045
:101840000CED00E00000FA052DE9F0470E4605001A
:1018500065D0DFF81481D8F80000F7B200F0070077
:10186000B04207D288F80070D8F8000000F00700F6
:10187000B04254D128683D4C810712D5400703D5AA
:10188000206840F4E05020602878000703D52068E5
:1018900040F4604020602068A96820F0F000084310
:1018A00020602878C0072DD03049686808390128A1
:1018B00012D0022813D0032811D009688907002903
:1018C0002DDA216821F0030101432160FFF72AFF8F
:1018D000814641F2883A0EE009688903EFE709681A
:1018E0008901ECE7FFF71EFFA0EB0901514502D982
:1018F0000320BDE8F0872068696800F00C00B0EBB9
:10190000810FEFD1D8F80010404601F00701B14235
:1019100007D90770006800F00700B04201D001202D
:10192000E7E72878400705D52068E96820F4E0500B
:10193000084320602878000706D52068296920F42C
:10194000604040EAC100206000F048F82168084A81
:10195000C1F30311515CC84006490860064800689D
:10196000FFF708FF0020C4E7003C024008380240AF
:10197000D826000830000020280000200F22026036
:101980000C4A136803F003034360136803F0F00389
:101990008360136803F4E053C36012684FF4E053AC
:1019A00003EAD20202610448006800F00700086000
:1019B0007047000008380240003C024004480549D6
:1019C00000680968044AC1F38221515CC84070472D
:1019D0003000002008380240E8260008154810B5FD
:1019E000006810F00C02144813D01449042A0FD0D8
:1019F000082A0ED10F4C241F2268236802F03F02F0
:101A00005B0207D52068C0F38810A0FB010106E047
:101A1000084610BD2168C1F38811A1FB0001002315
:101A2000FEF738FC2168C1F30141491C4900B0FBB5
:101A3000F1F010BD083802400024F40040787D0128
:101A40002DE9F84F04006ED02078DFF84C93C007E2
:101A5000A9F104054AD009F104000168C1F381012C
:101A6000012908D00068C0F3810002280AD1D9F802
:101A70000000400206D52868800337D5606800283A
:101A8000E1D033E06068B0F5803F10D0B0F5A02F12
:101A9000286810D020F480302860286820F4802046
:101AA00028606068A8B1FFF73DFE06460DE0286893
:101AB00040F48030F4E740F480202860F7E700BF6E
:101AC000FFF730FE801B642873D828688003F7D5A1
:101AD0000CE0FFF727FE064605E000BFFFF722FEF9
:101AE000801B6428F0D828688003F7D42078DFF8BA
:101AF000AC8280074FF0000A3ED5A748001D016860
:101B000011F00C0F08D00068C0F3810002280BD13F
:101B1000D9F80000400207D42868800716D5E0688D
:101B2000012800D112E033E1E068B8B10120C8F823
:101B30000000FFF7F7FD064605E000BFFFF7F2FDE6
:101B4000801B0228C0D828688007F7D5286821693B
:101B500020F0F80040EAC10028600DE0C8F800A0BD
:101B6000FFF7E0FD064604E0FFF7DCFD801B0228DE
:101B70001FD828688007F7D42078000722D5864F21
:101B800087486169703771B101210160FFF7CAFDB3
:101B9000064604E0FFF7C6FD801B022809D8386816
:101BA0008007F7D50EE0C0F800A0FFF7BBFD0646A2
:101BB00005E082E0FFF7B6FD801B02287DD838687B
:101BC0008007F7D42078400768D5DFF8CCB100272C
:101BD0000BF13C0BDBF80000C0000BD4DBF800106D
:101BE00041F08051CBF80010DBF80000012700F035
:101BF000805000906B4E3068C00510D4306840F4BF
:101C000080703060FFF78EFD009005E0FFF78AFDE1
:101C10000099401A022850D83068C005F6D55E4EAB
:101C2000A0686C3601280FD00528306810D020F04D
:101C300001003060306820F004003060A068B8B166
:101C4000FFF770FD00900FE0306840F00100F4E70E
:101C500040F004003060F7E7FFF764FD0099411A97
:101C600041F28830814266D830688007F4D50EE0B2
:101C7000FFF758FD009007E0FFF754FD0099411A67
:101C800041F28830814256D830688007F4D42FB1B1
:101C9000DBF8001021F08051CBF80010A069C8B328
:101CA0003D49091D0968C1F3810102294AD0022872
:101CB000504607D0C8F8600000E03CE0FFF732FD76
:101CC00004463BE04746C8F86000FFF72BFD064698
:101CD00005E000BFFFF726FD801B02282BD82868EF
:101CE0008001F7D4D4E907010843A16A2E4A4908C4
:101CF00002EB0141626A41EA8211084394F82C1018
:101D000040EA0161C9F8001001203866FFF70AFDBA
:101D1000044606E03EE000BFFFF704FD001B02287A
:101D200009D828688001F7D534E000BFFFF7FAFC36
:101D3000001B022802D90320BDE8F88F2868800123
:101D4000F4D427E00128F7D0D9F80000E26900F4C4
:101D5000800191421CD1226A00F03F01914217D1CB
:101D600047F6C071626A0140B1EB821F10D1A26ACE
:101D70004FF0FF3300F4403103EB5202B1EB024F5E
:101D800006D194F82C1000F07060B0EB016F01D018
:101D90000120D1E70020CFE704380240000047428D
:101DA000800E4742007000400000FFFF10B5401E4B
:101DB000B0F1807F01D3012010BD4FF0E0246061BD
:101DC0000F21601700F053FA0020A0610720206166
:101DD000002010BDFEE70121022000F005B900003F
:101DE0002DE9F04106AC94E8E0101E4CA061A18002
:101DF000E280236225826682A782A4F816C000F0E2
:101E000077F8022020702820A0701420FFF782FBB2
:101E1000032000F069F90520FFF77CFB032000F0A8
:101E200063F90120FFF776FB032000F05DF9012044
:101E3000FFF770FB022000F057F90120FFF76AFB63
:101E40000F2000F075F9012000F072F90320FFF770
:101E500061FB282000F06CF9BDE8F0410320FFF79A
:101E600059BB00000000002010B5094C0122E18898
:101E7000A069FFF751FC0A2000F084F80022E188F5
:101E8000A069FFF749FCBDE810403C2000F07AB89B
:101E90000000002010B5044686B010EE100A00F0D5
:101EA000A3FBCDE90001224604A102A8FEF76AFACD
:101EB00002A800F086F806B010BD0000252E2A66A4
:101EC000000000001FB5024603A16846FEF75AFA5B
:101ED000684600F076F81FBD256400000200034844
:101EE0008188806900D00122FFF716BC0000002025
:101EF00000B587B005A96846FFF740FD0398A8B371
:101F0000FFF75CFD5FEA400000F05DFA9FED191BF2
:101F100053EC112B00F06AFA00F028FA17490A680E
:101F200042F002020A6016490A6822F010020A60B2
:101F30000A6822F001020A600A6822F004020A60BC
:101F40000A6842F008020A600D492831401E086004
:101F50000920091D08600A49012014310860081F82
:101F6000016821F00101016007B000BDFFE7FFF744
:101F700025FDC9E78DEDB5A0F7C6B03E403802405B
:101F8000000400400949401E086008481C380168E8
:101F900021F00101016005492C390A6842F0010273
:101FA0000A600168C907FCD0704700002C0400409B
:101FB00010B5012000F0BCF8BDE810400320FFF789
:101FC000A9BA70B50646002409E00120FFF786FF94
:101FD000284600F017F8641CE4B2102C02D2355DDC
:101FE000002DF2D170BD0000491E01F00F01012843
:101FF00004D041F0C00000BF00F09AB841F080006A
:10200000FAE700002DE9F84F0209364C02F0080308
:1020100002F0040B217802F0020902F0010700F03F
:10202000080A00F0040600F0020500F00108009321
:1020300001292FD0022952D13A46218A206AFFF77E
:102040006BFB4A46618A206AFFF766FB5A46A18A03
:10205000206AFFF761FBE18A009A206AFFF75CFBC8
:10206000FFF702FF4246218A206AFFF755FB2A4606
:10207000618A206AFFF750FB3246A18A206AFFF787
:102080004BFB5246E18A206AFFF746FBBDE8F84F5A
:10209000FFF7EABE42462189E069FFF73DFB2A4689
:1020A0006189E069FFF738FB3246A189E069FFF7F3
:1020B00033FB5246E189E069FFF72EFB3A46218A5D
:1020C000206AFFF729FB4A46618A206AFFF724FB52
:1020D0005A46A18A206AFFF71FFB009AD2E7BDE8A3
:1020E000F88F00000000002070B505460020FFF7C3
:1020F000F5FE0E4C05F00102218A206AFFF70CFB69
:1021000005F00202618A206AFFF706FB05F004026F
:10211000A18A206AFFF700FB05F00802E18A206A25
:10212000FFF7FAFABDE87040FFF79EBE00000020FE
:1021300010B504460020FFF7D1FE2046BDE8104050
:10214000FFF760BF30B587B014216846FEF7F1F99C
:1021500011480024016841F080010160016801F02C
:1021600080010591016841F00101016000680B4D9B
:1021700000F00100059022467F212846FFF7CCFAA7
:102180007F2000900120CDE9010469462846039490
:10219000FFF7D2F907B030BD3038024000000240EE
:1021A000FEE7FEE770477047FFF7C2BA10B592B07E
:1021B00030216846FEF7BDF914210CA8FEF7B9F9E5
:1021C00018480024016841F080510160006800F067
:1021D000805011901448016821F4404141F40041BD
:1021E00001600068069400F44040119002200090C5
:1021F00001200390102004906846FFF721FC08B1ED
:1022000072B6FEE70F20CDE90C040E940F94002166
:102210000CA81094FFF718FB002801D072B6FEE757
:1022200012B010BD40380240007000400248016802
:1022300041F470010160704788ED00E0FEE703B4EF
:1022400001984100009850EAC12018BF04204A0DAF
:1022500018BF40F0010040F2FF72B2EB515F08BFBF
:1022600040F00200012808BF052002B070470907AE
:10227000090E002804DB00F1E02080F8001470470C
:1022800000F00F0000F1E02080F8141D7047303896
:102290000A2801D201207047002070472DED028BE3
:1022A00084B0FFF74DFAFFF781FFFFF74BFF4023A4
:1022B0002022102108208DE80F0018480222034632
:1022C0000121FFF78DFD9FED168A4FF4FA7443F25A
:1022D000390500BFFFF76CFE12A0FFF772FE204623
:1022E000FFF718F9FFF777FD11A0FFF76AFE204608
:1022F000FFF710F9FFF75CFE2846FFF7E3FD2046E5
:10230000FFF708F9FFF767FD0620B0EE480AFFF770
:10231000C1FD2046FFF7FEF8DCE7000000000240A8
:10232000181669414D6963726F6C6162200000008C
:102330004543452E4955542E41432E495200000035
:1023400010B500290AD00878002807D0054878443D
:10235000FEF7CEFC002801D0002010BD02487844D2
:1023600010BD0000560400004E0400004FEA115357
:10237000A3F58063D3F11E03A8BFD3F1200C08DBC3
:102380004FF0004242EAC12252EA505232FA03F0C0
:10239000704709420BD4102BC4BF0020704703F5CF
:1023A000787CBCF1FF3F05D04FF0FF3070474FF015
:1023B0000000704770B500F0C3F800BF4992248058
:1023C00000207047F0E7B0FA80F310FA03F10AD06A
:1023D000C3F11D0303F580634FEA41504FEA0352F6
:1023E00002EBD12170474FF000007047DFF848C181
:1023F00070B51CEA111E1EBF1CEA13159EEA0C0FD5
:1024000095EA0C0F00F06F8081EA030423EA4C1375
:102410004EEAD47E21EA4C1141F4801143F480133A
:10242000AE44A1FB024CA0FB0365AEF17F7E3619E2
:1024300055EB0C05A1FB034C4CF10003A0FB021C67
:1024400016EB0C06654153F10003094218BF46F034
:10245000010613F4007F0BD14FEA03314FEA053038
:10246000340341EA155140EA16506FF003020AE0C6
:102470004FEAC3214FEAC520F40241EA555140EA30
:1024800056506FF0020202EB2E4201EB025585EA34
:10249000CE710AD05FEA440C18BF24F0004450F11A
:1024A000000041F1000120EAD47040F2FE7C624558
:1024B00000D270BDA84214BF4FF080444FF040449A
:1024C000002E08BF0024BEF1806FA8BFA1F1C0415B
:1024D000BDE8704080F282804FF0000001F1C04101
:1024E00001F0004170479EEA0C0F0CEA131518BF6B
:1024F00095EA0C0F06D04FF0000081EA030E0EF0B3
:10250000004170BD00F01CF88900013E00F007B8E2
:1025100000F009B84FEA430C5FEA5C5C08D081EA3E
:10252000030100F05BB84FEA410C5FEA5C5CF6D156
:102530004FF00000014970470000FF070000F87FDE
:102540000EF1020E2EF0030E5EF8046B364205D437
:10255000012A43EB030515F5001F12D8012841EBB2
:10256000010C1CF5001F0CD80ED14FEAD17C15F5DB
:10257000001F0CEB4C0C0CF1020C08BF4CEBD37C95
:1025800004E04FF0080C01E04FEAD37C0CEB4C0563
:1025900026FA05F606F00706B6F1040C06D20EEB95
:1025A000860CBDE870404CF0010C6047DFE80CF091
:1025B000090B02024FF000414FF00000A1F500218D
:1025C00070BD19461046012851EB010418BFD4F51F
:1025D000001484BF002001F0004170BD0808A0F580
:1025E00000114FEA3101704743004FEAD30C4FEA24
:1025F0003C0C43401FBF40070CF1605113F0FE4FED
:1026000070471CF0006F03D100200CF000417047B0
:102610000CF0004343EA507010B540EACC0000F0E3
:102620000EF800BF000000924FEA0001FFF7D6BF8E
:102630004FF000414FF00000A1F5002170470EF16E
:10264000020E2EF0030E5EF8044B244204D44FEA2F
:102650004102B2F17F4F11D84FEA4003B3F17F4FEF
:102660000CD80ED14FEAD07CB2F17F4F0CEB4C0C62
:102670000CF1020C08BF4CEBD17C04E04FF0080CCD
:1026800001E04FEAD17C0CEB4C0324FA03F404F094
:102690000704B4F1040C06D20EEB840CBDE8104024
:1026A0004CF0010C6047DFE80CF0070802024FF025
:1026B0000040A0F5800010BD0846420018BFD2F1CE
:1026C000807288BF00F0004010BD4FF04070E1EE16
:1026D000100A7047FEF789B80000000000000000F3
:1026E00001020304060708090000000001020304B8
:1026F00002400000000000A00000000005400000B3
:10270000000000C8000000000C4000000000409CD9
:1027100000000000194000000020BCBE00000000C6
:1027200034400000BFC91B8E00000004B54000000B
:10273000504BCFD06607E2CF010000006C41000093
:102740003E8251AADFEEA73401000000D94200000A
:10275000DCB5A0E23A301F97FFFFFFFFB445000051
:10276000FD25A0C8E9A3C14FFFFFFFFFFF3F000009
:102770000000008000000000FF3F0000000000801B
:1027800000000000C0270008000000203400000006
:10279000D0010008F427000834000020640600007F
:1027A000EC0100081C00000043000000F8FFFFFFE0
:1027B0000C0000000E0000000F0000002E000000C2
:1027C000010F3800000000000000000000000000C1
:1027D00000000000000000000000000000000000F9
:1027E00000000000010000001000000000000000D8
:0427F0000024F400CD
:040000050800019559
:00000001FF
