:020000040800F2
:100000000807002039020008FB18000857180008EC
:10001000F9180008130600086D1F00080000000012
:10002000000000000000000000000000FF180008B1
:100030001506000800000000FD180008011900085E
:10004000530200085302000853020008530200083C
:10005000530200085302000853020008530200082C
:10006000530200085302000853020008530200081C
:10007000530200085302000853020008530200080C
:1000800053020008530200085302000853020008FC
:1000900053020008530200085302000853020008EC
:1000A00053020008530200085302000853020008DC
:1000B00053020008530200085302000853020008CC
:1000C00053020008530200085302000853020008BC
:1000D00053020008530200085302000853020008AC
:1000E000530200085302000853020008530200089C
:1000F000530200085302000853020008530200088C
:10010000530200085302000853020008530200087B
:100110008D1C000853020008530200085302000817
:10012000530200085302000853020008530200085B
:10013000530200085302000853020008530200084B
:10014000530200085302000853020008530200083B
:10015000530200085302000853020008530200082B
:10016000530200085302000853020008530200081B
:100170005302000853020008530200080000000068
:10018000530200085302000800F002F800F045F89E
:100190000AA090E8000C82448344AAF10107DA45E2
:1001A00001D100F03AF8AFF2090EBAE80F0013F0EF
:1001B000010F18BFFB1A43F001031847B81E0000D7
:1001C000D81E0000103A24BF78C878C1FAD8520768
:1001D00024BF30C830C144BF04680C6070470000C1
:1001E0000023002400250026103A28BF78C1FBD840
:1001F000520728BF30C148BF0B6070471FB501F0E0
:1002000027FF00F0A3F904000020002101F00AFFFD
:10021000401C60601FBD10B510BD00F072F91146A2
:10022000FFF7ECFF01F0B4FE00F0A2F903B4FFF712
:10023000F2FF03BC00F0E6F909488047094800478F
:10024000FEE7FEE7FEE7FEE7FEE7FEE7FEE7FEE786
:10025000FEE7FEE704480549054A064B70470000E3
:1002600099190008890100080801002008070020EA
:10027000080300200803002053EA020C00F0698004
:100280002DE9F04B4FF00006002B1FBFB3FA83F5AA
:1002900003FA05F424FA05F65E4012BF1643B2FADB
:1002A00082F502FA05F4C5F120051EBF22FA05FC0D
:1002B00044EA0C04203556EA044C4FEA144418BFB3
:1002C000641C4FF000084FF00009904271EB030CE2
:1002D00039D3002919BFB1FA81F701FA07F6B0FA4C
:1002E00080F700FA07F6C7F120071EBF20FA07FCC7
:1002F00046EA0C062037B6FBF4FCA7EB0507103FD7
:1003000007F01F0BCBF120060CFA0BFB2CFA06F6BC
:1003100044BFB3460026202FA4BF5E464FF0000B1B
:100320005BEA060C08BF4FF0010B19EB0B09ABFBA6
:10033000027C48EB0608C01B06FB02CC0BFB03CC7F
:1003400071EB0C01C1E70B46024641464846BDE849
:10035000F08B13B54FF000004FF00001AFF30080B9
:10036000BDE81C40704770B5064600F033F80468DD
:10037000054630460A22002100F030F82C6070BD9E
:100380004FF0000200B5134694469646203922BF2E
:10039000A0E80C50A0E80C50B1F12001BFF4F7AF79
:1003A000090728BFA0E80C5048BF0CC05DF804EB5B
:1003B000890028BF40F8042B08BF704748BF20F8C9
:1003C000022B11F0804F18BF00F8012B70477047C7
:1003D0007047704700487047A40000202DE9F0479F
:1003E00091460F4680460446002614F8015B2DB165
:1003F00000F030F80068405DC007F6D12B2D02D028
:100400002D2D18D0641E4A463946204600F02AF8A1
:1004100027B13968A14201D1C7F800804FF002042A
:1004200071050BD54042002803DDFFF7D3FF0460C0
:10043000A007BDE8F08746F48066E4E70028F8DA14
:10044000FFF7C8FF04606FF00040F2E70048704714
:10045000A400002010B500F079F8001D10BD00BF09
:10046000C51B00002DE9F05F824615468B4600272C
:100470000AF10104B9460078302801D09DB113E09B
:1004800014F8010B0127782803D0582801D045B172
:100490000AE00DB1102D07D1002714F8010B10252B
:1004A00002E0082500E00A250026B0460EE005FB24
:1004B000080005FB06F101271FFA80F801EB104642
:1004C000B6F5803F00D3B94614F8010B294600F079
:1004D00041F80028EBDABBF1000F05D00FB1641E24
:1004E00000E05446CBF80040B9F1000F06D0FFF70A
:1004F00071FF02210160C81EBDE8F09F48EA064076
:10050000FAE77546FFF7A2FFAE4605006946534677
:1005100020F00700854618B020B5FFF79BFEBDE828
:1005200020404FF000064FF000074FF000084FF05A
:10053000000B21F00701AC46ACE8C009ACE8C009EB
:10054000ACE8C009ACE8C0098D4670470048704768
:10055000C40000203A2800D2303820F02002412A7E
:1005600001D3A2F13700884201D34FF0FF3070472A
:1005700010B50446AFF300802046BDE81040FFF7F9
:1005800055BE00004FF0013C50F8042B51F8043BDD
:100590009A4221D1A2EB0C03934313EACC1317D157
:1005A00050F8042B51F8043B9A4215D1A2EB0C03EE
:1005B000934313EACC130BD150F8042B51F8043BAE
:1005C0009A4209D1A2EB0C03934313EACC13DBD07C
:1005D0004FF00000704700BFD01A01BAB1FA81F1A4
:1005E00001F0180122FA01F0CB40C1F12001DBB289
:1005F000C0B2C01A2CFA01F3D11A914311EAC31107
:10060000E6D1704701491820ABBEFEE72600020084
:100610007047FEE770472DE9F0410446876D00F012
:100620004DF9064694F835000025022806D08020B2
:10063000606584F834500120BDE8F08120680168CD
:1006400021F0160101602068416921F080014161BB
:10065000206C08B9A06C20B12068016821F0080165
:1006600001602068016821F0010101600CE000F0E8
:1006700025F9801B052807D920206065032084F810
:10068000350084F83450D7E720680068C007EED101
:1006900094F85C103F208840B860012084F8350051
:1006A00084F834500020C7E790F83510022903D0B1
:1006B0008021416501207047052180F835100068D0
:1006C000016821F001010160002070472DE9F84F19
:1006D000DFF8BCA10022012503264FF00F090AF123
:1006E000040BAAF1040E00BF0B6805FA02F42340C4
:1006F000A34270D10F7907F00307012F01D0022F19
:1007000016D187684FEA420806FA08FC27EA0C0768
:10071000D1F80CC00CFA08FC4CEA070CC0F808C071
:100720004768A7430C79C4F3001494403C434460E9
:100730000C79E443A4070AD0C4684FEA420C06FAD5
:100740000CF7BC438F6807FA0CF72743C7600C7996
:1007500004F00304022C12D1D40800EB840CDCF862
:1007600020405707FF0E09FA07F824EA0804D1F8D9
:10077000108008FA07F848EA0408CCF820800468DA
:100780004FEA420C06FA0CF7BC430F7907F0030757
:1007900007FA0CF7274307604C6814F4403F70D009
:1007A0003C4C276847F480472760246822F0030701
:1007B00004F480440094384C07EB040CDCF808483F
:1007C00097074FEA177809FA08F7BC43334FB84246
:1007D00002D1002724E054E0314FB84201D1012773
:1007E0001EE0304FB84201D1022719E02E4FB84227
:1007F00001D1032714E02D4FB84201D104270FE0A7
:100800002B4FB84201D105270AE02A4FB84201D147
:10081000062705E0284FB84201D1072700E0082746
:1008200007FA08F72743CCF80878DAF8004057466B
:10083000D1F804C09C435FEACC2C00D51C433C603B
:10084000DBF800405F46D1F804C09C435FEA8C2C83
:1008500000D51C433C60DEF800407746D1F804C068
:100860009C435FEA8C3C00D51C433C60084F083F2A
:100870003C68D1F804C09C435FEACC3C00D51C43E3
:100880003C60521C102AFFF42FAFBDE8F88F000027
:10089000083C014044380240003001400000024062
:1008A0000004024000080240000C02400010024018
:1008B0000014024000180240001C024001488068F9
:1008C000704700000400002002488168027811444B
:1008D00081607047040000200B4810B5016841F4A6
:1008E00000710160016841F480610160016841F4B8
:1008F00080710160032000F06FF80F2000F006F80F
:1009000000F024F8002010BD003C024070B50D4DF1
:1009100004464FF47A712878B1FBF0F00A4909686F
:10092000B1FBF0F000F00AFB48B9102C07D200220E
:100930002146501E00F030F800206C6070BD012090
:1009400070BD000004000020100000200A4808B517
:10095000016841F480410160006800F4804000902B
:100960000548001F016841F080510160006800F0F7
:100970008050009008BD000044380240002809DB88
:1009800000F01F02012191404009800000F1E020A9
:10099000C0F8001170470000F0B40E4B1B680C4605
:1009A000C3F30223C3F10705042D00D90425191D43
:1009B000072901D2002300E0DB1E012606FA05F11B
:1009C000491E214099409E40761E16403143F0BC9E
:1009D00001F0CDBA0CED00E0064900F0070208680E
:1009E0004FF6FF03184040EA0220034A1043086014
:1009F000704700000CED00E00000FA052DE9F0471B
:100A00000E46050065D0DFF81481D8F80000F7B273
:100A100000F00700B04207D288F80070D8F8000054
:100A200000F00700B04254D128683D4C810712D530
:100A3000400703D5206840F4E05020602878000784
:100A400003D5206840F4604020602068A96820F049
:100A5000F000084320602878C0072DD0304968682E
:100A60000839012812D0022813D0032811D00968B0
:100A7000890700292DDA216821F003010143216053
:100A8000FFF71CFF814641F2883A0EE009688903AE
:100A9000EFE709688901ECE7FFF710FFA0EB090118
:100AA000514502D90320BDE8F0872068696800F04D
:100AB0000C00B0EB810FEFD1D8F80010404601F0E8
:100AC0000701B14207D90770006800F00700B04283
:100AD00001D00120E7E72878400705D52068E968BC
:100AE00020F4E050084320602878000706D52068ED
:100AF000296920F4604040EAC100206000F038F825
:100B00002168084AC1F30311515CC84006490860D6
:100B100006480068FFF7FAFE0020C4E7003C0240E8
:100B2000083802405A200008100000200800002069
:100B30000448054900680968044AC1F38221515CF0
:100B4000C840704710000020083802406A200008A2
:100B50000448054900680968044AC1F34231515C00
:100B6000C840704710000020083802406A20000882
:100B7000154810B5006810F00C02144813D041104D
:100B8000042A0FD0082A0ED10F4C241F2268236894
:100B900002F03F025B0207D52068C0F38810A0FB7B
:100BA000010106E0084610BD2168C1F38811A1FBD0
:100BB00000010023FFF760FB2168C1F30141491CDC
:100BC0004900B0FBF1F010BD083802400024F400E9
:100BD0002DE9F84F04006ED02078DFF84C93C00761
:100BE000A9F104054AD009F104000168C1F38101AB
:100BF000012908D00068C0F3810002280AD1D9F881
:100C00000000400206D52868800337D560680028B8
:100C1000E1D033E06068B0F5803F10D0B0F5A02F90
:100C2000286810D020F480302860286820F48020C4
:100C300028606068A8B1FFF741FE06460DE028680D
:100C400040F48030F4E740F480202860F7E700BFEC
:100C5000FFF734FE801B642873D828688003F7D51B
:100C60000CE0FFF72BFE064605E000BFFFF726FE6F
:100C7000801B6428F0D828688003F7D42078DFF838
:100C8000AC8280074FF0000A3ED5A748001D0168DE
:100C900011F00C0F08D00068C0F3810002280BD1BE
:100CA000D9F80000400207D42868800716D5E0680C
:100CB000012800D112E033E1E068B8B10120C8F8A2
:100CC0000000FFF7FBFD064605E000BFFFF7F6FD5D
:100CD000801B0228C0D828688007F7D528682169BA
:100CE00020F0F80040EAC10028600DE0C8F800A03C
:100CF000FFF7E4FD064604E0FFF7E0FD801B022855
:100D00001FD828688007F7D42078000722D5864F9F
:100D100087486169703771B101210160FFF7CEFD2D
:100D2000064604E0FFF7CAFD801B022809D8386890
:100D30008007F7D50EE0C0F800A0FFF7BFFD06461C
:100D400005E082E0FFF7BAFD801B02287DD83868F5
:100D50008007F7D42078400768D5DFF8CCB10027AA
:100D60000BF13C0BDBF80000C0000BD4DBF80010EB
:100D700041F08051CBF80010DBF80000012700F0B3
:100D8000805000906B4E3068C00510D4306840F43D
:100D900080703060FFF792FD009005E0FFF78EFD58
:100DA0000099401A022850D83068C005F6D55E4E2A
:100DB000A0686C3601280FD00528306810D020F0CC
:100DC00001003060306820F004003060A068B8B1E5
:100DD000FFF774FD00900FE0306840F00100F4E789
:100DE00040F004003060F7E7FFF768FD0099411A12
:100DF00041F28830814266D830688007F4D50EE031
:100E0000FFF75CFD009007E0FFF758FD0099411ADD
:100E100041F28830814256D830688007F4D42FB12F
:100E2000DBF8001021F08051CBF80010A069C8B3A6
:100E30003D49091D0968C1F3810102294AD00228F0
:100E4000504607D0C8F8600000E03CE0FFF736FDF0
:100E500004463BE04746C8F86000FFF72FFD064612
:100E600005E000BFFFF72AFD801B02282BD8286869
:100E70008001F7D4D4E907010843A16A2E4A490842
:100E800002EB0141626A41EA8211084394F82C1096
:100E900040EA0161C9F8001001203866FFF70EFD35
:100EA000044606E03EE000BFFFF708FD001B0228F5
:100EB00009D828688001F7D534E000BFFFF7FEFCB1
:100EC000001B022802D90320BDE8F88F28688001A2
:100ED000F4D427E00128F7D0D9F80000E26900F443
:100EE000800191421CD1226A00F03F01914217D14A
:100EF00047F6C071626A0140B1EB821F10D1A26A4D
:100F00004FF0FF3300F4403103EB5202B1EB024FDC
:100F100006D194F82C1000F07060B0EB016F01D096
:100F20000120D1E70020CFE704380240000047420B
:100F3000800E4742007000400000FFFF10B5401EC9
:100F4000B0F1807F01D3012010BD4FF0E02460613B
:100F50000F21601701F00BF80020A061072020612D
:100F6000002010BD70B590F83C20012A32D0012439
:100F700080F83C40022280F83D2003685A689D6852
:100F800022F070060A6832435A60134B02689A4294
:100F900014D0B2F1804F11D0104B9A420ED0104BAA
:100FA0009A420BD00F4B9A4208D00F4B9A4205D071
:100FB0000E4B9A4202D00E4B9A4204D1496825F05A
:100FC00080031943916080F83D40002180F83C1077
:100FD000084670BD022070BD0000014000040040C2
:100FE00000080040000C00400004014000400140A7
:100FF0000018004010B5040003D094F83D0010B173
:1010000007E0012010BD002084F83C00204600F0DD
:101010001FF8022084F83D00211D206800F0C4FC68
:10102000012084F8460084F83E0084F83F0084F8EC
:10103000400084F8410084F8420084F8430084F8BA
:10104000440084F8450084F83D00002010BD0000F5
:1010500008B500680649884208D10648016841F091
:1010600008010160006800F00800009008BD000061
:10107000000C00404038024090F83D10012901D09A
:1010800001207047022180F83D1000681149884214
:1010900014D0B0F1804F11D00F4988420ED00F49C3
:1010A00088420BD00E49884208D00E49884205D0AC
:1010B0000D49884202D00D49884204D1816801F06F
:1010C0000701062903D0016841F0010101600020F9
:1010D000704700000000014000040040000800408C
:1010E000000C004000040140004001400018004096
:1010F00070B5044690F83C000025012817D0012661
:1011000084F83C60022084F83D002068826822F068
:10111000770222F47F4282600868502838D00DDCC4
:1011200020284FD005DC90B3102811D14AE00220CE
:1011300070BD302846D040280AD13BE060282FD02F
:1011400070280DD0B0F5805F03D0B0F5005F12D0ED
:10115000012584F83D60002084F83C00284670BDDD
:10116000CB68D1E90121206800F097FC20688168F4
:1011700041F0770109E0CB68D1E90121206800F056
:101180008CFC2068816841F480418160E1E719E0CE
:10119000CA684968206800F055FD5021206806E0C3
:1011A000CA684968206800F05EFD6021206800F090
:1011B0007EFCCEE7CA684968206800F043FD402104
:1011C0002068F4E7226801461046F0E710B586B0C3
:1011D000044614216846FFF7D3F80D492068884279
:1011E00014D10C480021026842F00102026000683C
:1011F00000F001000590012000900220CDE90101DE
:10120000CDE9031069460448FFF760FA06B010BD47
:10121000000C0040303802400000024070B5044627
:1012200090F83C0000260D4601280FD0012084F8DC
:101230003C006AB1042A1DD0082A2FD00C2A3FD0C6
:101240000126002084F83C00304670BD022070BDAD
:10125000206800F035FC2068816941F00801816157
:101260002068816921F004018161206881692A690F
:10127000114311E0206800F053FC2068816941F4BB
:10128000006181612068816921F480618161206849
:1012900081692A6941EA02218161D2E7206800F070
:1012A00075FC2068C16941F00801C1612068C1690D
:1012B00021F00401C1612068C1692A69114311E06C
:1012C000206800F097FC2068C16941F40061C161A9
:1012D0002068C16921F48061C1612068C1692A69FF
:1012E00041EA0221C161ACE710B5040003D094F8D3
:1012F0003D0010B107E0012010BD002084F83C0043
:10130000204600F01EF8022084F83D00211D2068D0
:1013100000F04AFB012084F8460084F83E0084F87F
:101320003F0084F8400084F8410084F8420084F8CB
:10133000430084F8440084F8450084F83D00002010
:1013400010BD704710B50446022249B104290ED0E1
:10135000082913D094F84100012816D0012010BDAF
:1013600094F83E000128F9D184F83E200FE094F86B
:101370003F000128F2D184F83F2008E094F84000B3
:101380000128EBD184F8402001E084F841200122BB
:10139000206800F075FB16492068164A884201D083
:1013A000904203D1436C43F4004343642068884275
:1013B00013D0B0F1804F10D00F4988420DD00F49A3
:1013C00088420AD00E49884207D0904205D00D4984
:1013D000884202D00C49884204D1816801F007019B
:1013E000062903D0016841F001010160002010BD11
:1013F00000000140000401400004004000080040DB
:10140000000C004000400140001800407047704749
:10141000F8B5016804460868CA684B6910F00F0FF8
:101420004FF0000559D003F0010602F490773743DE
:1014300065D0C10705D0D10503D5616C41F001012C
:101440006164410705D5D90703D0616C41F0020101
:101450006164810705D5D90703D0616C41F00401AF
:101460006164010707D502F02001314303D0616CAC
:1014700041F008016164616C00293AD0800604D50E
:10148000900602D5204600F036FC20684069616C69
:10149000C0F38010090700D460B3204600F004FCBC
:1014A00020684069400621D52068143050E8001FAC
:1014B00021F0400140E80012002AF5D1E06BA8B10C
:1014C0006E490165E06BFFF7EFF8002811D0E06B83
:1014D000016D01B0BDE8F040084783060FD59306C3
:1014E0000DD52046BDE8F84000F005BC2046FFF7CA
:1014F0008EFFF8BD2046FFF78AFF6564F8BD266BB6
:101500002023012E7DD1C6067BD5D60679D5086865
:101510004868009048694FF00206400641D5E16BEB
:10152000086840680004000CE8D0A28D8242E5D92A
:10153000E085C869B0F5807F2DD020680C3050E878
:10154000001F21F4807140E80012002AF5D12068C4
:10155000143050E8001F21F0010140E80012002A79
:10156000F5D12068143050E8001F21F0400140E818
:101570000012002AF5D184F84230256320680C302F
:1015800050E8001F21F0100140E80012002AF5D1B8
:10159000E06BFFF740F86663A08DE18D401A81B2E1
:1015A0002AE0A08DE18D401A81B2E08D0028A5D0FF
:1015B0000029A3D022680C3252E8000F20F490706A
:1015C00042E80007002FF5D12068143050E8002FC2
:1015D00022F0010240E80027002FF5D184F84230C4
:1015E000256320680C3050E8002F22F0100240E8FC
:1015F0000023002BF5D166632046FFF707FFF8BDF7
:10160000FFE705062BD5150629D594F841002128BA
:10161000F5D1A068B0F5805F01D12069B0B1206A32
:10162000411C2162216800784860E08C401E000463
:10163000000CE084E3D12068C16821F08001C16022
:101640002068C16841F04001C160D8E7206A008885
:10165000C0F308004860206A801C2062E5E740066D
:10166000CDD55006CBD5CA68204622F04002CA60CC
:1016700084F8413000F0EEF8C1E70000991C000842
:1016800070B5040004D094F84100002510B106E0C4
:10169000012070BD84F84050204600F023F824203B
:1016A00084F841002068C16821F40051C1602046DF
:1016B00000F082FB2068016921F4904101612068FB
:1016C000416921F02A0141612068C16841F400515B
:1016D000C1606564202084F8410084F8420065639D
:1016E000002070BD10B586B0044614216846FEF790
:1016F00047FE18492068884229D11748002102680E
:1017000042F400220260006800F4002005901248B4
:101710001038026842F004020260006800F0040021
:1017200005904FF4406000900220CDE901010320B4
:1017300003900820049069460848FEF7C7FF00227E
:1017400011463420FFF728F93420FFF717F906B0C7
:1017500010BD0000004C004040380240000802402C
:1017600090F84230202B01D00220704721B11AB1ED
:101770000023036300F0A6BB0120704710B564236B
:1017800004220949094800F015F8042206490748CF
:10179000FFF7E6FF0448FEF7E6FD42F2107148430A
:1017A0000349086010BD0000000000205C0000201C
:1017B000340C00402DE9F843044690F84100984667
:1017C00016460D46202802D00220BDE8F88385B1D8
:1017D0007EB100206064212084F84100FFF76EF89C
:1017E000A6848146E684A0682027B0F5805F02D0F9
:1017F00003E00120E9E7206910B12E4600250EE044
:1018000000260CE08021204600F077FBA8B9C6B185
:1018100016F8010B21684860E08C401EE084E08CE3
:101820004B464FF00002CDF800800028EAD14FF07F
:101830004001204600F061FB40B184F84170032074
:10184000C3E735F8020BC0F30800E3E784F8417002
:101850000020BAE77047FEE710B58EB00024079469
:10186000089409940A940B941C2168460C94FEF782
:1018700087FD1E481C4901605321C0E901141C4921
:10188000C0E903148461FFF7B5FB08B172B6FEE747
:101890004FF48050079007A91448FFF729FC08B1BE
:1018A00072B6FEE71148FFF71FFD08B172B6FEE7FA
:1018B0000B940BA90D480C94FFF754FB08B172B6BA
:1018C000FEE7602000900B48CDE901040022694644
:1018D00006480494FFF7A2FC08B172B6FEE703487D
:1018E000FFF774FC0EB010BD000C00401400002087
:1018F0003F420F0020A10700FEE7FEE77047704758
:10190000FEF7E2BF30B593B030216846FEF738FDF0
:1019100014210CA8FEF734FD1D480025016841F094
:1019200080510160006800F08050119019480168F2
:1019300041F4804101600068022400F4804011906D
:1019400001200090000401908001CDE9064008AA22
:101950000420A82182E813000B906846FFF738F9AD
:1019600008B172B6FEE70CA90F2081E831004FF4F0
:10197000C0500F904FF48050109005210CA8FFF735
:101980003DF8002801D072B6FEE713B030BD00006C
:1019900040380240007000400248016841F4700184
:1019A0000160704788ED00E0F0B50268294C2A4DCF
:1019B0002A4E2B4F2B4B4FF0804CA04209D0604554
:1019C00007D0A84205D0B04203D0B84201D0984217
:1019D00004D122F0700E4A6842EA0E02A0421BD0E7
:1019E000604519D0A84217D0B04215D0B84213D0E4
:1019F000984211D01C4DA8420ED01C4DA8420BD0CD
:101A00001B4DA84208D01B4DA84205D01A4DA84234
:101A100002D01A4DA84203D122F44075CA682A4365
:101A20004D6922F080022A4302608A68C2620A6815
:101A30008262A04201D0984201D10969016301216B
:101A400041610169C90703D0016921F00101016108
:101A5000F0BD00000000014000040040000800400C
:101A6000000C0040000401400040014000440140DF
:101A70000048014000180040001C004000200040C9
:101A800010B501F01F030121046A99408C430462E0
:101A9000016A9A401143016210BD10B5846842EAA0
:101AA000032224F47F440A432243826010BD8268EB
:101AB00022F070020A4342F0070181607047000083
:101AC000F0B5036A026A22F0010202624268846988
:101AD000124E24F073050C682C4323F002058B682A
:101AE0002B430D4DA84201D0B04205D123F0080789
:101AF000CB683B4323F00403A84201D0B04205D198
:101B00004D6922F4407215438A692A434260846118
:101B1000496841630362F0BD0000014000040140D8
:101B2000F0B5026A036A23F0100303624368846914
:101B30000D6824F4E64444EA05248D6822F020026E
:101B400042EA05120F4D104EA84201D0B04206D114
:101B5000CF6822F0800242EA071222F04002A84237
:101B600001D0B04207D14D6923F4406343EA8503B5
:101B70008D6943EA85034360846149688163026239
:101B8000F0BD00000000014000040140F0B5026A11
:101B9000036A23F4807303624368C46922F4007209
:101BA00024F073050C68124E2C438D6842EA05221E
:101BB0000E4DA84201D0B04206D1CF6822F4006297
:101BC00042EA072222F48062A84201D0B04207D143
:101BD0004D6923F4405343EA05138D6943EA051325
:101BE0004360C4614968C1630262F0BD0000014006
:101BF0000004014030B5046A026A22F48052026295
:101C00004268C3690D6823F4E64343EA05238D68FF
:101C100024F4005444EA0534084DA84202D0084D8B
:101C2000A84204D14D6922F4804242EA8512426002
:101C3000C36149680164046230BD000000000140D6
:101C40000004014010B5036A046A24F00104046230
:101C5000846924F0F00444EA021423F00A020A43DF
:101C60008461026210BD10B5036A046A24F0100496
:101C70000462846923F0A00324F4704444EA02322D
:101C800043EA01118261016210BD00000148FFF7C3
:101C9000BFBB00005C00002010B5806B0021C18537
:101CA000C184FFF7B4FB10BD01680C3151E8002F6F
:101CB00022F4907241E80023002BF5D10168143121
:101CC00051E8002F22F0010241E80023002BF5D15A
:101CD000016B012909D101680C3151E8002F22F074
:101CE000100241E80023002BF5D1202180F842109A
:101CF00000210163704708B590F84210222901D0F5
:101D0000022008BD82684FF480539A4201D10169D4
:101D100021B1816A9A421BD04AB10AE00268816A05
:101D20005268C2F308020A80816A891C08E00269CD
:101D300072B10268526802F07F020A70816A491C1F
:101D40008162C18D491E0904090CC18503D01BE0C5
:101D500002685268F1E70168CA6822F02002CA608E
:101D60000168CA6822F48072CA6001684A6922F078
:101D700001024A61202180F8421000214163026B78
:101D8000012A03D0FFF7FAFC002008BD01630168B7
:101D90000C3151E8002F22F0100241E80023002B03
:101DA000F5D101680A68D20602D50A68496800912F
:101DB000818DFFF72BFBE7E770B5044600680169EA
:101DC000E26821F44051114301612169A068E26990
:101DD00008436169114308432168CA6849F20C63EA
:101DE0009A430243CA6020684169A26921F44071A4
:101DF0001143416131492068884202D0304988420C
:101E000002D1FEF7A5FE01E0FEF792FEE269002393
:101E1000192164253226B2F5004F626828D0A0FB54
:101E20000101930F9200FEF727FA0146B0FBF5F08F
:101E30006FF01802504301EB800006EB0010B0FB7E
:101E4000F5F000F0F002B1FBF5F002EB0012B1FB8F
:101E5000F5F06FF01803584301EB800006EB00101B
:101E6000B0FBF5F000F00F0021681044886070BDF1
:101E7000A0FB010192185B41FEF7FEF90146B0FBA1
:101E8000F5F00201B1FBF5F06FF01803584301EBD8
:101E9000800006EBC000B0FBF5F000F0F80002EBAC
:101EA0004002B1FBF5F0584301EB800006EBC000A7
:101EB000B0FBF5F000F00700D6E70000001001408D
:101EC0000014014081628285C28500214164222183
:101ED00080F84210016921B10168CA6842F4807239
:101EE000CA6001684A6942F001024A610068C1683B
:101EF00041F02001C160002070472DE9F843984669
:101F000017460D460446089E24E0701C22D0FEF7BA
:101F1000D5FCA0EB0800B0421AD8CEB12068C16849
:101F2000490717D5802D15D0402D13D00168C9431E
:101F300009070FD401680025406800902046FFF78C
:101F4000B3FE0820606484F840500120BDE8F883A7
:101F50000320FBE72068006835EA000004D0002079
:101F6000B842D2D00020F1E70120F9E7FEE70907E7
:101F7000090E002804DB00F1E02080F8001470470F
:101F800000F00F0000F1E02080F8141D7047000001
:101F900008B5FEF7A1FCFFF7B5FC1E48002102685A
:101FA00042F080020260026802F080020092026841
:101FB00042F001020260026802F00102009202682F
:101FC00042F0040202600068134A00F0040000902E
:101FD000124802604FF4E132C0E901210C22C160D5
:101FE000C0E904128161C161FFF74AFB08B172B612
:101FF000FEE7FFF731FC09484838FFF73DF807488E
:1020000000214838FFF79EF9042205490348FFF7ED
:10201000A7FBFEE730380240004C00405C00002087
:102020000000002010B500290AD00878002807D049
:1020300005487844FEF7A6FA002801D0002010BD1C
:102040000248784410BD0000620000005A00000001
:102050004FF04070E1EE100A7047000000000000F1
:102060000000010203040607080900000000010245
:1020700003040000A4210008000000201400000058
:10208000C4010008B821000814000020F406000074
:10209000E00100081001000043000000F8FFFFFF0E
:1020A000004040404040404040404141414141406B
:1020B0004040404040404040404040404040404020
:1020C00040050202020202020202020202020202AF
:1020D00002202020202020202020200202020202B4
:1020E000020290909090909010101010101010100C
:1020F0001010101010101010101010100202020218
:10210000020288888888888808080808080808085B
:102110000808080808080808080808080202020257
:10212000400000000000000000000000000000006F
:10213000000000000000000000000000000000009F
:10214000000000000000000000000000000000008F
:10215000000000000000000000000000000000007F
:10216000000000000000000000000000000000006F
:10217000000000000000000000000000000000005F
:10218000000000000000000000000000000000004F
:10219000000000000000000000000000000000003F
:1021A000000000000000000001000000100000001E
:0821B000000000000024F4000F
:040000050800018965
:00000001FF
