:020000040800F2
:1000000028070020290200081F21000853170008B4
:100010001D2100081F0400087724000800000000CC
:100020000000000000000000000000002321000884
:1000300021040008000000002121000825210008FB
:10004000430200084302000843020008430200087C
:10005000430200084302000843020008430200086C
:10006000430200084302000843020008430200085C
:10007000430200084302000843020008430200084C
:10008000430200084302000843020008430200083C
:10009000430200084302000843020008430200082C
:1000A000430200084302000843020008430200081C
:1000B00043020008430200084302000861170008D9
:1000C00055170008430200084302000843020008D5
:1000D00043020008430200084302000843020008EC
:1000E00043020008430200084302000843020008DC
:1000F00043020008430200084302000843020008CC
:1001000043020008430200084302000843020008BB
:10011000CD21000843020008430200084302000802
:10012000430200084302000843020008430200089B
:10013000430200084302000843020008430200088B
:10014000430200084302000843020008430200087B
:10015000430200084302000843020008430200086B
:10016000430200084302000843020008430200085B
:100170004302000843020008430200080000000098
:10018000430200084302000800F002F800F03CF8C7
:100190000AA090E8000C82448344AAF10107DA45E2
:1001A00001D100F031F8AFF2090EBAE80F0013F0F8
:1001B000010F18BFFB1A43F001031847C8230000C2
:1001C000E8230000103A24BF78C878C1FAD8520753
:1001D00024BF30C830C144BF04680C6070470000C1
:1001E0000023002400250026103A28BF78C1FBD840
:1001F000520728BF30C148BF0B6070471FB502F0DF
:10020000AFF91FBD10B510BD00F0CFF81146FFF7D4
:10021000F5FF02F041F900F0EDF803B4FFF7F2FF4B
:1002200003BC00F0F5F80000094880470948004782
:10023000FEE7FEE7FEE7FEE7FEE7FEE7FEE7FEE796
:10024000FEE7FEE704480549054A064B70470000F3
:10025000BD2100088901000828010020280700208E
:10026000280300202803002053EA020C00F06980D4
:100270002DE9F04B4FF00006002B1FBFB3FA83F5BA
:1002800003FA05F424FA05F65E4012BF1643B2FAEB
:1002900082F502FA05F4C5F120051EBF22FA05FC1D
:1002A00044EA0C04203556EA044C4FEA144418BFC3
:1002B000641C4FF000084FF00009904271EB030CF2
:1002C00039D3002919BFB1FA81F701FA07F6B0FA5C
:1002D00080F700FA07F6C7F120071EBF20FA07FCD7
:1002E00046EA0C062037B6FBF4FCA7EB0507103FE7
:1002F00007F01F0BCBF120060CFA0BFB2CFA06F6CD
:1003000044BFB3460026202FA4BF5E464FF0000B2B
:100310005BEA060C08BF4FF0010B19EB0B09ABFBB6
:10032000027C48EB0608C01B06FB02CC0BFB03CC8F
:1003300071EB0C01C1E70B46024641464846BDE859
:10034000F08B13B54FF000004FF00001AFF30080C9
:10035000BDE81C4070474FF0000200B513469446BC
:100360009646203922BFA0E80C50A0E80C50B1F10D
:100370002001BFF4F7AF090728BFA0E80C5048BF21
:100380000CC05DF804EB890028BF40F8042B08BFBF
:10039000704748BF20F8022B11F0804F18BF00F8BB
:1003A000012B7047704770477047754600F02CF876
:1003B000AE4605006946534620F00700854618B052
:1003C00020B5FFF73FFFBDE820404FF000064FF09B
:1003D00000074FF000084FF0000B21F00701AC467A
:1003E000ACE8C009ACE8C009ACE8C009ACE8C00999
:1003F0008D46704710B50446AFF300802046BDE837
:100400001040FFF70ABF000000487047C8000020F6
:1004100001491820ABBEFEE7260002007047FEE748
:1004200070472DE9F0410446876D00F051F906460A
:1004300094F835000025022806D08020606584F8F5
:1004400034500120BDE8F0812068016821F01601D8
:1004500001602068416921F080014161206C08B988
:10046000A06C20B12068016821F0080101602068BB
:10047000016821F0010101600CE000F029F9801B06
:10048000052807D920206065032084F8350084F80A
:100490003450D7E720680068C007EED194F85C10AC
:1004A0003F208840B860012084F8350084F834503B
:1004B0000020C7E790F83510022903D0802141655C
:1004C00001207047052180F835100068016821F08F
:1004D000010101600020704790F83500704700006E
:1004E0002DE9F84FDFF8BCA10022012503264FF0CB
:1004F0000F090AF1040BAAF1040E00BF0B6805FAFC
:1005000002F42340A34270D10F7907F00307012FB3
:1005100001D0022F16D187684FEA420806FA08FC7C
:1005200027EA0C07D1F80CC00CFA08FC4CEA070CBF
:10053000C0F808C04768A7430C79C4F3001494407E
:100540003C4344600C79E443A4070AD0C4684FEAF2
:10055000420C06FA0CF7BC438F6807FA0CF72743E6
:10056000C7600C7904F00304022C12D1D40800EB0C
:10057000840CDCF820405707FF0E09FA07F824EA3C
:100580000804D1F8108008FA07F848EA0408CCF803
:10059000208004684FEA420C06FA0CF7BC430F793E
:1005A00007F0030707FA0CF7274307604C6814F4B9
:1005B000403F70D03C4C276847F480472760246850
:1005C00022F0030704F480440094384C07EB040C39
:1005D000DCF8084897074FEA177809FA08F7BC4390
:1005E000334FB84202D1002724E054E0314FB842E3
:1005F00001D101271EE0304FB84201D1022719E096
:100600002E4FB84201D1032714E02D4FB84201D13B
:1006100004270FE02B4FB84201D105270AE02A4FEB
:10062000B84201D1062705E0284FB84201D107277B
:1006300000E0082707FA08F72743CCF80878DAF82B
:1006400000405746D1F804C09C435FEACC2C00D54B
:100650001C433C60DBF800405F46D1F804C09C437B
:100660005FEA8C2C00D51C433C60DEF800407746E6
:10067000D1F804C09C435FEA8C3C00D51C433C602D
:10068000084F083F3C68D1F804C09C435FEACC3C6B
:1006900000D51C433C60521C102AFFF42FAFBDE86C
:1006A000F88F0000083C014044380240003001400F
:1006B000000002400004024000080240000C02401A
:1006C000001002400014024000180240001C0240CA
:1006D00001488068704700000000002070477047A4
:1006E0002DE9F041016804464A694E6890F83E00E1
:1006F0000025D743FA0506D4F243D20503D46FF49C
:10070000807201254A61B90508D4F143C90505D4B1
:1007100022686FF4007145F002055161790525D416
:10072000F143C90522D4638D94F83D10226B202833
:1007300008D13BB9212910D029290ED0282901D16F
:10074000212A0AD022686FF48061516145F00405C6
:10075000102806D0402804D008E0204601F0E8FB2D
:1007600004E02068016841F400710160380508D494
:10077000F043C00505D421686FF4006045F008051A
:100780004861002D07D0206C284320642046BDE836
:10079000F04101F051B8BDE8F0812DE9F047026861
:1007A00000215368C66A90F83E4090F83D50102CE6
:1007B00012D0402C10D0046C002C7DD05469E4433E
:1007C000A6077AD4DE43B60577D4036C03B19169EA
:1007D000BDE8F04701F088BB976951694FF42A0CD6
:1007E000C9435FEAC1784FF02A4904D066452AD050
:1007F0004E4528D010E0DE43B6050DD4C16A6145F0
:1008000001D1012103E0C16A494501D10821C1623A
:10081000BDE8F04701F0CEBA0E0716D4DE43B605A8
:1008200013D4416CC9B21161416B09B1C96B29B9CB
:10083000816B002907D0C96B002904D0006841688A
:1008400041F400614160BDE8F0878E0706D4DE43C5
:10085000B60503D4BDE8F04701F020BAFE43526864
:1008600076074FEA02521DD4002AECDB0A0608D4B0
:10087000DA43520505D4490705D5BDE8F04701F034
:10088000B1B94907DFD4D9438905DCD4212D05D07E
:10089000402CD8D1BDE8F04701F0D2BABDE8F0470E
:1008A00001F05EB9002ACEDB4A060BD4DA435205CA
:1008B00008D4490708D501E00DE00EE0BDE8F04797
:1008C00001F0D4B84907BED4D9438905BBD4BDE8EB
:1008D000F04701F05DB8916970E7E10606D4D943AD
:1008E000890503D4BDE8F04701F06ABB2821212D1A
:1008F00027D0292D25D0650655D4DD436D0552D46A
:10090000640752D590F83D30448D002C9BD012697D
:10091000446A2270426A521C4262428D521E4285D3
:10092000428D002A8FD12A2B8DD10268536823F47F
:10093000806353602222026380F83D1000F054F976
:1009400081E7250623D4DD436D0520D4640720D537
:1009500090F83D30448D002CF2D0446A2478146124
:10096000426A521C4262428D521E4285428D002ACA
:10097000E6D1292BE4D10268536823F480635360E5
:100980002122026380F83D1000F040F95BE7610727
:10099000D6D4D9438905D3D4418D0029D0D0416A1A
:1009A000097811610AE06107CAD4D9438905C7D41F
:1009B000418D0029C4D01169426A1170416A491CF5
:1009C0004162418D491E41853DE7704770B5040085
:1009D00025D094F83D00002520B984F83C502046ED
:1009E00000F0BEF8242084F83D002068016821F062
:1009F000010101602068016841F400410160206844
:100A0000016821F40041016000F074FA4D4A616808
:100A1000914201D84C4900E04C49884201D2012062
:100A200070BD4B492368B0FBF1F15E6826F03F06CC
:100A30000E435E606368934206D94FF49673594340
:100A40004FF47A73B1FBF3F12368491C1E6A26F058
:100A50003F06314319626168914210D84900401E37
:100A6000B0FBF1F2521CC2F30B02042A01D20420A3
:100A700022E0B0FBF1F0401CC0F30B001CE0A268C8
:100A8000F2B301EBC10303EB0116431EB3FBF6F314
:100A90005B1C43F480431B0549D092B301EBC102B8
:100AA00002EB0111401EB0FBF1F0401CC0F30B0043
:100AB00040F4804040F400402168CA694CF6FF735E
:100AC0009A431043C861D4E90710014320680268C3
:100AD00022F0C00211430160D4E903010143206800
:100AE000826848F2FF339A4311438160D4E90501DB
:100AF00008432168CA6822F0FF021043C86001E081
:100B00000EE016E02068016841F0010101602564F3
:100B1000202084F83D00256384F83E50002070BDFD
:100B200001EB4106431EB3FBF6F35B1CB3E7012068
:100B3000C2E701EB4101401EB0FBF1F0401CC0F3E5
:100B40000B00B7E7A086010080841E0000093D006D
:100B500040420F0070477047704770477047000071
:100B600010B586B0044614216846FFF7F4FB1B4914
:100B70002068884230D11A480021026842F00202FF
:100B80000260006800F002000590C0200090122072
:100B9000CDE9010103200390042004906946114827
:100BA000FFF79EFC0E481030016841F4001101600F
:100BB0000068002200F40010059011461F2000F08C
:100BC000CDF81F2000F0BCF800221146202000F0D4
:100BD000C5F8202000F0B4F806B010BD0054004065
:100BE0003038024000040240074910B51922A1F133
:100BF000480000F094FD0449BDE810401922A1F11D
:100C00009C0000F005B80000AC0000207047000018
:100C100010B590F83D30202B34D161B15AB190F825
:100C20003C30012B2ED0012380F83C3003681C6837
:100C3000E40702D005E0012010BD1C6844F0010467
:100C40001C6003681C6824F400641C60222380F884
:100C50003D30202380F83E3000230364416242850A
:100C6000418D01850849C16201680A6842F48062C9
:100C70000A6080F83C300068416841F4E0614160FE
:100C8000002010BD022010BD0000FFFF0248816857
:100C90000278114481607047000000200B4810B5B5
:100CA000016841F400710160016841F480610160F4
:100CB000016841F480710160032000F06FF80F209B
:100CC00000F006F800F024F8002010BD003C0240BF
:100CD00070B50D4D04464FF47A712878B1FBF0F0F1
:100CE0000A490968B1FBF0F000F00CFB48B9102C80
:100CF00007D200222146501E00F030F800206C6020
:100D000070BD012070BD0000000000200C0000201C
:100D10000A4808B5016841F480410160006800F4A8
:100D2000804000900548001F016841F0805101603B
:100D3000006800F08050009008BD00004438024078
:100D4000002809DB00F01F020121914040098000CA
:100D500000F1E020C0F8001170470000F0B40E4B25
:100D60001B680C46C3F30223C3F10705042D00D909
:100D70000425191D072901D2002300E0DB1E0126EE
:100D800006FA05F1491E214099409E40761E164004
:100D90003143F0BC01F070BB0CED00E0064900F0FF
:100DA000070208684FF6FF03184040EA0220034A92
:100DB00010430860704700000CED00E00000FA05E9
:100DC0002DE9F0470E46050065D0DFF81481D8F80C
:100DD0000000F7B200F00700B04207D288F80070B8
:100DE000D8F8000000F00700B04254D128683D4C0C
:100DF000810712D5400703D5206840F4E0502060F9
:100E00002878000703D5206840F4604020602068FF
:100E1000A96820F0F000084320602878C0072DD092
:100E2000304968680839012812D0022813D00328F5
:100E300011D00968890700292DDA216821F0030102
:100E400001432160FFF744FC814641F2883A0EE0FD
:100E500009688903EFE709688901ECE7FFF738FCC7
:100E6000A0EB0901514502D90320BDE8F0872068B5
:100E7000696800F00C00B0EB810FEFD1D8F80010DA
:100E8000404601F00701B14207D90770006800F041
:100E90000700B04201D00120E7E72878400705D5D8
:100EA0002068E96820F4E0500843206028780007B3
:100EB00006D52068296920F4604040EAC10020601E
:100EC00000F038F82168084AC1F30311515CC840AA
:100ED0000649086006480068FFF7FAFE0020C4E7EC
:100EE000003C0240083802406A2500080C0000203F
:100EF000040000200448054900680968044AC1F359
:100F00008221515CC84070470C0000200838024024
:100F10007A2500080448054900680968044AC1F3B5
:100F20004231515CC84070470C0000200838024034
:100F30007A250008154810B5006810F00C02144816
:100F400013D01449042A0FD0082A0ED10F4C241FA5
:100F50002268236802F03F025B0207D52068C0F3D5
:100F60008810A0FB010106E0084610BD2168C1F30E
:100F70008811A1FB00010023FFF776F92168C1F376
:100F80000141491C4900B0FBF1F010BD0838024096
:100F90000024F40040787D012DE9F84F04006ED064
:100FA0002078DFF84C93C007A9F104054AD009F175
:100FB00004000168C1F38101012908D00068C0F371
:100FC000810002280AD1D9F80000400206D528681D
:100FD000800337D560680028E1D033E06068B0F561
:100FE000803F10D0B0F5A02F286810D020F48030BA
:100FF0002860286820F4802028606068A8B1FFF786
:1010000067FB06460DE0286840F48030F4E740F4C2
:1010100080202860F7E700BFFFF75AFB801B642899
:1010200073D828688003F7D50CE0FFF751FB06461C
:1010300005E000BFFFF74CFB801B6428F0D8286850
:101040008003F7D42078DFF8AC8280074FF0000AE5
:101050003ED5A748001D016811F00C0F08D00068AC
:10106000C0F3810002280BD1D9F80000400207D458
:101070002868800716D5E068012800D112E033E126
:10108000E068B8B10120C8F80000FFF721FB064670
:1010900005E000BFFFF71CFB801B0228C0D82868B2
:1010A0008007F7D52868216920F0F80040EAC100E0
:1010B00028600DE0C8F800A0FFF70AFB064604E030
:1010C000FFF706FB801B02281FD828688007F7D48B
:1010D0002078000722D5864F87486169703771B143
:1010E00001210160FFF7F4FA064604E0FFF7F0FA89
:1010F000801B022809D838688007F7D50EE0C0F8B1
:1011000000A0FFF7E5FA064605E082E0FFF7E0FA07
:10111000801B02287DD838688007F7D420784007E4
:1011200068D5DFF8CCB100270BF13C0BDBF80000F1
:10113000C0000BD4DBF8001041F08051CBF8001058
:10114000DBF80000012700F0805000906B4E306803
:10115000C00510D4306840F480703060FFF7B8FAF2
:10116000009005E0FFF7B4FA0099401A022850D821
:101170003068C005F6D55E4EA0686C3601280FD0E9
:101180000528306810D020F001003060306820F071
:1011900004003060A068B8B1FFF79AFA00900FE041
:1011A000306840F00100F4E740F004003060F7E7F9
:1011B000FFF78EFA0099411A41F28830814266D8D1
:1011C00030688007F4D50EE0FFF782FA009007E060
:1011D000FFF77EFA0099411A41F28830814256D8D1
:1011E00030688007F4D42FB1DBF8001021F0805173
:1011F000CBF80010A069C8B33D49091D0968C1F3C7
:10120000810102294AD00228504607D0C8F8600060
:1012100000E03CE0FFF75CFA04463BE04746C8F8D4
:101220006000FFF755FA064605E000BFFFF750FAE9
:10123000801B02282BD828688001F7D4D4E9070145
:101240000843A16A2E4A490802EB0141626A41EA59
:101250008211084394F82C1040EA0161C9F800108B
:1012600001203866FFF734FA044606E03EE000BF8E
:10127000FFF72EFA001B022809D828688001F7D54D
:1012800034E000BFFFF724FA001B022802D9032034
:10129000BDE8F88F28688001F4D427E00128F7D052
:1012A000D9F80000E26900F4800191421CD1226A61
:1012B00000F03F01914217D147F6C071626A0140C8
:1012C000B1EB821F10D1A26A4FF0FF3300F440311E
:1012D00003EB5202B1EB024F06D194F82C1000F050
:1012E0007060B0EB016F01D00120D1E70020CFE7A3
:1012F0000438024000004742800E47420070004020
:101300000000FFFF10B5401EB0F1807F01D3012027
:1013100010BD4FF0E02460610F21601701F0ACF8C0
:101320000020A06107202061002010BD7047704799
:10133000F8B5016804460868CA684B6910F00F0FD9
:101340004FF0000559D003F0010602F490773743BF
:1013500065D0C10705D0D10503D5616C41F001010D
:101360006164410705D5D90703D0616C41F00201E2
:101370006164810705D5D90703D0616C41F0040190
:101380006164010707D502F02001314303D0616C8D
:1013900041F008016164616C00293AD0800604D5EF
:1013A000900602D5204600F046FF20684069616C37
:1013B000C0F38010090700D460B3204600F014FF8A
:1013C00020684069400621D52068143050E8001F8D
:1013D00021F0400140E80012002AF5D1E06BA8B1ED
:1013E0006E490165E06BFFF765F8002811D0E06BEE
:1013F000016D01B0BDE8F040084783060FD59306A4
:101400000DD52046BDE8F84000F015BF2046FFF797
:101410008EFFF8BD2046FFF78AFF6564F8BD266B96
:101420002023012E7DD1C6067BD5D60679D5086846
:101430004868009048694FF00206400641D5E16BCC
:10144000086840680004000CE8D0A28D8242E5D90B
:10145000E085C869B0F5807F2DD020680C3050E859
:10146000001F21F4807140E80012002AF5D12068A5
:10147000143050E8001F21F0010140E80012002A5A
:10148000F5D12068143050E8001F21F0400140E8F9
:101490000012002AF5D184F84230256320680C3010
:1014A00050E8001F21F0100140E80012002AF5D199
:1014B000E06BFEF7B6FF6663A08DE18D401A81B246
:1014C0002AE0A08DE18D401A81B2E08D0028A5D0E0
:1014D0000029A3D022680C3252E8000F20F490704B
:1014E00042E80007002FF5D12068143050E8002FA3
:1014F00022F0010240E80027002FF5D184F84230A5
:10150000256320680C3050E8002F22F0100240E8DC
:101510000023002BF5D166632046FFF707FFF8BDD7
:10152000FFE705062BD5150629D594F8410021289B
:10153000F5D1A068B0F5805F01D12069B0B1206A13
:10154000411C2162216800784860E08C401E000444
:10155000000CE084E3D12068C16821F08001C16003
:101560002068C16841F04001C160D8E7206A008866
:10157000C0F308004860206A801C2062E5E740064E
:10158000CDD55006CBD5CA68204622F04002CA60AD
:1015900084F8413000F0DCF8C1E70000D9210008F0
:1015A00070B5040004D094F84100002510B106E0A5
:1015B000012070BD84F84050204600F023F824201C
:1015C00084F841002068C16821F40051C1602046C0
:1015D00000F092FE2068016921F4904101612068C9
:1015E000416921F02A0141612068C16841F400513C
:1015F000C1606564202084F8410084F8420065637E
:10160000002070BD10B586B0044614216846FEF770
:10161000A2FE17492068884227D116480021026897
:1016200042F400220260006800F400200590114896
:101630001038026842F0010202600068022200F0E5
:10164000010005900320CDE90210CDE90002082039
:10165000049069460848FEF743FF002211463420F3
:10166000FFF77CFB3420FFF76BFB06B010BD0000DA
:10167000004C0040403802400000024070472DE915
:10168000F843044690F84100984616460D46202837
:1016900002D00220BDE8F88385B17EB100206064ED
:1016A000212084F84100FFF713F8A6848146E684E0
:1016B000A0682027B0F5805F02D003E00120E9E7B1
:1016C000206910B12E4600250EE000260CE0802196
:1016D000204600F097FEA8B9C6B116F8010B2168A4
:1016E0004860E08C401EE084E08C4B464FF00002E6
:1016F000CDF800800028EAD14FF04001204600F0EC
:1017000081FE40B184F841700320C3E735F8020B35
:10171000C0F30800E3E784F841700020BAE790F8CE
:101720004130202B01D00220704779B172B10162A3
:101730008284C28400214164212180F84110006824
:10174000C16841F08001C1600020704701207047EE
:101750007047FEE70148FEF7C3BF000010000020FD
:101760000148FFF71AB800001000002038B5806B60
:10177000002190F83D202B4B46F2A8141B68B3FBC8
:10178000F4F3C3EBC30303EB830300933BB15B1E92
:10179000009303681B689B0505D5009BF6E7036C67
:1017A00043F020030364436B03B1D963836B03B13C
:1017B000D96303681C6824F480641C604185436B12
:1017C00003B11965836B03B1196503681C6824F0C4
:1017D00001041C6090F83D402023602C0BD028248D
:1017E00034EA02020FD080F83D3080F83E1000BF8E
:1017F000FFF7EBF838BD80F83D3080F83E1001640B
:10180000FEF76CFF38BD0268136843F001031360F4
:101810000268136843F480631360016380F83D40FD
:10182000E6E700000C00002000684169C943090692
:1018300001D400210161704770B5044690F83D0065
:1018400094F83E10102901D0402906D1222804D155
:1018500021680A6822F400620A60282131EA000245
:101860004FF000054FF0200626D021684968090591
:1018700005D4602803D084F83D6084F83E50256389
:1018800020684168090537D5416821F4006141604D
:10189000606B90F835203C49012A11D00165606BDE
:1018A000FEF708FE38B32068016821F001010160ED
:1018B00084F83D60606B1CE0256384F83D10DFE731
:1018C000A06B0165A06BFEF7F5FDA0B12068416932
:1018D000C943490605D40069616A0870606A401C02
:1018E00060622068016821F00101016084F83D60B8
:1018F000A06B016D884710E094F83D10602910D06E
:101900004169C943490605D40069616A0870606A83
:10191000401C60622046FFF758F8206CC1071CD1BC
:1019200015E084F83D6025644169C943490605D442
:101930000069616A0870606A401C60622068016822
:1019400021F0010101602046FEF7C8FEE5E78107AE
:1019500003D4410701D4000704D52068416821F46D
:10196000E061416094F83D00216C49070BD52828BF
:1019700009D10648E062256384F83D6084F83E5052
:101980002046FFF7E7F870BD6D1700080000FFFF65
:1019900010B5C26A438D0168042B06D0438D032B1A
:1019A00008D0438D022B1DD012E04A6822F48062D9
:1019B0004A600CE04B6823F480634B60042A06D035
:1019C000022A04D001680A6822F480620A60016871
:1019D0000969426A1170416A491C4162418D491E80
:1019E000418510BD012A34D0102A32D0042A34D0C7
:1019F000022A32D00B6843F400730B600168096956
:101A0000436A1970416A491C4162438D5B1E4385DC
:101A100003681B690B70416A491C4162418D491E74
:101A2000418501684B6823F440734B60202180F8A6
:101A30003D1090F83E300021402B80F83E1010D031
:101A4000082A02D0202A00D012210163FFF783F870
:101A500010BD0B6823F48063CFE70B6843F4806309
:101A6000CBE70163FFF779F810BD000038B590F8B7
:101A70003D10222910D1C36A418D03290DD9016877
:101A80000969426A1170416A491C4162418D491ECF
:101A90004185418D032906D038BDC26A022A02D091
:101AA000012906D029B10068416821F480614160B4
:101AB00038BD2A4A46F2A81400211268B2FBF4F29B
:101AC00002EB8202009202682024009D6D1E0095A8
:101AD00026D01568AD05F8D4156825F48065156025
:101AE0000268556825F4E065556002681269456A28
:101AF0002A70426A521C4262428D521E428580F810
:101B00003D4090F83E2080F83E10402A21D0082B1E
:101B100002D0202B00D012210163FFF71CF838BD42
:101B2000036C43F020030364536823F4E0635360C1
:101B300002681269436A1A70426A521C4262428DFC
:101B4000521E428580F83D4080F83E10FEF73DFF72
:101B500038BD0163FFF701F838BD00000C0000201C
:101B600010B5C26A90F83D1021290BD1418D51B1B9
:101B7000416A026809781161416A491C4162418DDC
:101B8000491E418510BD20230021082A13D0202A98
:101B900011D012F5803F0ED00268546824F4E0643E
:101BA00054601122026380F83E1080F83D3000BF7F
:101BB000FEF7D2FF10BD0268546824F4E06454605C
:101BC0000268146844F400741460016380F83D30C6
:101BD00090F83E2080F83E10402AE9D1FEF7BEFF83
:101BE00010BD000010B590F83D1090F83E30C26A6C
:101BF000048DB4B1212903D0402B11D122290FD15A
:101C0000418DE1B390F83E10402942D0416A02680C
:101C100009781161416A491C4162418D491E418523
:101C200010BD2129E8D120230021082A13D0202A21
:101C300011D012F5803F0ED00268546824F4E0649D
:101C400054601122026380F83E1080F83D3000BFDE
:101C5000FEF782FF10BD0268546824F4E06454600B
:101C60000268146844F400741460016380F83D3025
:101C700090F83E2080F83E10402AE9D100E002E0D2
:101C8000FEF76CFF10BD0068416821F4806141607F
:101C900010BDBDE8104000F0D3B8000078B590F852
:101CA0003E50C26A036B90F83D6000240168222E0A
:101CB0007AD1066D0EB9402D76D0056D1DB9056936
:101CC000B5F5404F09D0458D05B3468D384D012EF1
:101CD0000ED0438D022B3AD05DE04A698A690092AA
:101CE0000A6842F480720A60016D491C016578BD82
:101CF000AA4213D10A6822F480620A6001684A6825
:101D0000120503D50A6822F4806216E04A698A69DE
:101D100000920A6842F400720A6039E0082A10D082
:101D2000202A0ED0122B0AD0042A03D0022A01D076
:101D3000102AE7D10A6842F480620A6024E0012A8E
:101D4000E0D00A6822F480620A600168DEE7042AB3
:101D500021D0022A1FD0102A1DD00B6823F48063E3
:101D60000B6001680B6843F400630B6001684B680B
:101D70001B0509D5AA4212D0012A10D0082A0ED07C
:101D8000102A0CD0202A0AD001684A69896900917A
:101D9000046578BD08E00B6843F48063E5E74A68B2
:101DA00042F480524A60EFE7486988690090F0E7A2
:101DB0000000FFFF90F83E10402910D00169B1F5F6
:101DC000804F19D0016DA9B3016D012910D1416C6B
:101DD0005FF0F10201F4407142EAD11106E0016DB9
:101DE0000029416C05D0C9B241F0010100680161D0
:101DF000704701F0FE01F9E790F83D102129416C90
:101E000009D0C9B241F0010102681161416B29B1E9
:101E1000C96B49B902E001F0FE01F5E7816B0029C9
:101E2000E6D0C96B0029E3D00068416841F4006145
:101E300041607047FFE7416CF02201F44071CBE74D
:101E400010B590F83D10026D4AB1026D012A14D010
:101E5000026D022A16D0BDE81040FFF7E5BCC16C48
:101E60000129816C02D0C1F3072108E00268C9B2E0
:101E70001161016D891C016510BD816CC9B20268D8
:101E8000116123E022291CD0428D0AB1212920D0E2
:101E9000428D002AF0D12129EED101684A6822F44E
:101EA000E0624A6001680A6842F400720A60002138
:101EB0000163202280F83D2080F83E10FEF74EFEA0
:101EC00010BD01680A6842F480720A60016D491C05
:101ED000D1E7416A026809781161416A491C41628F
:101EE000418D491E418510BD38B50C4690F83D2006
:101EF00000212825954302680B4605D05169916958
:101F0000009180F83C3038BD556825F480655560F7
:101F1000E243540700D50121120601D5828900E071
:101F2000028B80F83C3092B2FEF7D9FB38BD00003E
:101F30002DE9F04190F83D300446C26A0021202688
:101F40001E4F00686FF48065082A01D0202A01D155
:101F5000282B04D0212B17D04561BDE8F081E76222
:101F6000426822F4E06242602068456120680268AD
:101F700022F480620260216384F83D6084F83E10A0
:101F80002046FEF7E7FDE8E7E7622122226384F8B6
:101F90003D6084F83E10416821F4E06141602068B2
:101FA00045612068016821F4806101602046FFF7E7
:101FB0003BFC2046FEF72AFECFE700000000FFFFB3
:101FC000F8B590F83D6004460068416821F4E0618E
:101FD00041602068002541690091016841F00101DC
:101FE00001602068016821F4806101602068416817
:101FF000090520D5474F222E48D02A2E46D0616BA6
:10200000096849686185618D19B1216C41F004014D
:102010002164416821F400614160606BFEF75CFA65
:10202000012808D0606B0765606BFEF743FA10B1BA
:10203000606B016D8847608D08B320684169C943B2
:10204000490708D40069616A0870606A401C6062D0
:10205000608D401E608520684169C943490608D4E7
:102060000069616A0870606A401C6062608D401E91
:102070006085608D18B1206C40F004002064206CF5
:1020800000B32046BDE8F840FFF7D6BBA16B096856
:1020900049686185618D19B1216C41F004012164A9
:1020A000416821F400614160A06BFEF715FA012838
:1020B000C1D0A06B0765A06BFEF7FCF90028BAD071
:1020C000A06BB6E72A2E06D12563282084F83D00B0
:1020D0002046FEF789FD94F83D10202028290DD0D8
:1020E000216B222901D0222E07D1256384F83D00DF
:1020F00084F83E502046FEF777FDF8BD0649E162C0
:10210000256384F83D0084F83E502046FEF722FD0A
:10211000F8BD00006D1700080000FFFFFEE7FEE7B6
:1021200070477047FEF7B2BD30B593B030216846B6
:10213000FEF711F914210CA8FEF70DF91D48002532
:10214000016841F080510160006800F080501190FA
:102150001948016841F4804101600068022400F4DC
:102160008040119001200390102004900094069468
:102170000820CDE90750A820CDE9090404200B90E0
:102180006846FEF709FF08B172B6FEE70CA90F20FA
:1021900081E831004FF4A0500F904FF48050109020
:1021A00005210CA8FEF70CFE002801D072B6FEE750
:1021B00013B030BD40380240007000400248016852
:1021C00041F470010160704788ED00E00148FFF7BD
:1021D000AFB800006400002010B5806B0021C185FD
:1021E000C184FFF7A4F810BD01680C3151E8002F3D
:1021F00022F4907241E80023002BF5D101681431DC
:1022000051E8002F22F0010241E80023002BF5D114
:10221000016B012909D101680C3151E8002F22F02E
:10222000100241E80023002BF5D1202180F8421054
:1022300000210163704708B590F84210222901D0AF
:10224000022008BD82684FF480539A4201D101698F
:1022500021B1816A9A421BD04AB10AE00268816AC0
:102260005268C2F308020A80816A891C08E0026988
:1022700072B10268526802F07F020A70816A491CDA
:102280008162C18D491E0904090CC18503D01BE080
:1022900002685268F1E70168CA6822F02002CA6049
:1022A0000168CA6822F48072CA6001684A6922F033
:1022B00001024A61202180F8421000214163026B33
:1022C000012A03D0FFF7DAF9002008BD0163016895
:1022D0000C3151E8002F22F0100241E80023002BBE
:1022E000F5D101680A68D20602D50A6849680091EA
:1022F000818DFFF71BF8E7E770B5044600680169B8
:10230000E26821F44051114301612169A068E2694A
:1023100008436169114308432168CA6849F20C63A4
:102320009A430243CA6020684169A26921F440715E
:102330001143416131492068884202D030498842C6
:1023400002D1FEF7E7FD01E0FEF7D4FDE2690023CC
:10235000192164253226B2F5004F626828D0A0FB0F
:102360000101930F9200FDF77FFF0146B0FBF5F0EE
:102370006FF01802504301EB800006EB0010B0FB39
:10238000F5F000F0F002B1FBF5F002EB0012B1FB4A
:10239000F5F06FF01803584301EB800006EB0010D6
:1023A000B0FBF5F000F00F0021681044886070BDAC
:1023B000A0FB010192185B41FDF756FF0146B0FBFF
:1023C000F5F00201B1FBF5F06FF01803584301EB93
:1023D000800006EBC000B0FBF5F000F0F80002EB67
:1023E0004002B1FBF5F0584301EB800006EBC00062
:1023F000B0FBF5F000F00700D6E700000010014048
:10240000001401402DE9F843984617460D4604464E
:10241000089E24E0701C22D0FEF75AF9A0EB0800B9
:10242000B0421AD8CEB12068C168490717D5802DAF
:1024300015D0402D13D00168C94309070FD4016896
:102440000025406800902046FFF7CEFE082060641B
:1024500084F840500120BDE8F8830320FBE72068A2
:10246000006835EA000004D00020B842D2D0002035
:10247000F1E70120F9E7FEE70907090E002804DB70
:1024800000F1E02080F80014704700F00F0000F128
:10249000E02080F8141D704708B5FEF7FFFBFFF73A
:1024A00043FE28480024016841F080010160016872
:1024B00001F080010091016841F0010101600168B3
:1024C00001F001010091016841F002010160006822
:1024D0001D4900F0020000901C4801601C49C0E941
:1024E0000114D021C1604FF48041C0E9041480215F
:1024F0008461C0E90741FEF769FA08B172B6FEE7E8
:1025000012481449543001604FF4E131C0E901141C
:102510000C21C460C0E904418461C461FFF740F844
:1025200008B172B6FEE709480A2305220AA1543011
:10253000FFF7A5F8054919229C310448FEF768FB0E
:10254000FEE7000030380240005400401000002038
:10255000A0860100004C004073616C616D0A0000B0
:102560004FF04070E1EE100A7047000000000000DC
:102570000000010203040607080900000000010230
:1025800003040000A4250008000000201000000043
:10259000C4010008B425000810000020180700003E
:1025A000E001000801000000100000000000000031
:0425B0000024F4000F
:040000050800018965
:00000001FF
