:020000040800F2
:100000001007002029020008DD1300081511000860
:10001000DB130008830400089915000800000000A5
:10002000000000000000000000000000E1130008D4
:100030008504000800000000DF130008E313000837
:10004000430200084302000843020008430200087C
:10005000430200084302000843020008430200086C
:10006000430200084302000843020008430200085C
:10007000430200084302000843020008430200084C
:10008000430200084302000843020008430200083C
:10009000430200084302000843020008430200082C
:1000A000430200084302000843020008430200081C
:1000B000430200084302000843020008430200080C
:1000C00043020008430200084302000843020008FC
:1000D00043020008430200084302000843020008EC
:1000E00043020008430200084302000843020008DC
:1000F00043020008430200084302000843020008CC
:1001000043020008430200084302000843020008BB
:1001100043020008430200084302000843020008AB
:10012000430200084302000843020008430200089B
:10013000430200084302000843020008430200088B
:10014000430200084302000843020008430200087B
:10015000430200084302000843020008430200086B
:10016000430200084302000843020008430200085B
:100170004302000843020008430200080000000098
:10018000430200084302000800F002F800F03CF8C7
:100190000AA090E8000C82448344AAF10107DA45E2
:1001A00001D100F031F8AFF2090EBAE80F0013F0F8
:1001B000010F18BFFB1A43F0010318470C1500008C
:1001C0002C150000103A24BF78C878C1FAD852071D
:1001D00024BF30C830C144BF04680C6070470000C1
:1001E0000023002400250026103A28BF78C1FBD840
:1001F000520728BF30C148BF0B6070471FB501F0E0
:1002000043FA1FBD10B510BD00F001F91146FFF70C
:10021000F5FF01F0D3F900F01FF903B4FFF7F2FF87
:1002200003BC00F027F9000009488047094800474F
:10023000FEE7FEE7FEE7FEE7FEE7FEE7FEE7FEE796
:10024000FEE7FEE704480549054A064B70470000F3
:100250007D1400088901000810010020100700200B
:10026000100300201003002053EA020C00F0698004
:100270002DE9F04B4FF00006002B1FBFB3FA83F5BA
:1002800003FA05F424FA05F65E4012BF1643B2FAEB
:1002900082F502FA05F4C5F120051EBF22FA05FC1D
:1002A00044EA0C04203556EA044C4FEA144418BFC3
:1002B000641C4FF000084FF00009904271EB030CF2
:1002C00039D3002919BFB1FA81F701FA07F6B0FA5C
:1002D00080F700FA07F6C7F120071EBF20FA07FCD7
:1002E00046EA0C062037B6FBF4FCA7EB0507103FE7
:1002F00007F01F0BCBF120060CFA0BFB2CFA06F6CD
:1003000044BFB3460026202FA4BF5E464FF0000B2B
:100310005BEA060C08BF4FF0010B19EB0B09ABFBB6
:10032000027C48EB0608C01B06FB02CC0BFB03CC8F
:1003300071EB0C01C1E70B46024641464846BDE859
:10034000F08B13B54FF000004FF00001AFF30080C9
:10035000BDE81C40704710B5203AC0F00B80B1E8F2
:100360001850203AA0E81850B1E81850A0E81850EA
:10037000BFF4F5AF5FEA027C24BFB1E81850A0E8F3
:10038000185044BF18C918C0BDE810405FEA827C0D
:1003900024BF51F8043B40F8043B08BF7047D20724
:1003A00028BF31F8023B48BF11F8012B28BF20F8C5
:1003B000023B48BF00F8012B70474FF0000200B528
:1003C000134694469646203922BFA0E80C50A0E878
:1003D0000C50B1F12001BFF4F7AF090728BFA0E826
:1003E0000C5048BF0CC05DF804EB890028BF40F8F2
:1003F000042B08BF704748BF20F8022B11F0804F34
:1004000018BF00F8012B704770477047704775465A
:1004100000F02CF8AE4605006946534620F0070070
:10042000854618B020B5FFF70DFFBDE820404FF01E
:1004300000064FF000074FF000084FF0000B21F0CE
:100440000701AC46ACE8C009ACE8C009ACE8C0099B
:10045000ACE8C0098D46704710B50446AFF3008084
:100460002046BDE81040FFF7D8BE000000487047A6
:10047000AC00002001491820ABBEFEE726000200B8
:100480007047FEE77047000070B5044600F006F9BB
:100490000546601C02D004480078044400F0FEF8D1
:1004A000401BA042FAD370BD000000202DE9F84F98
:1004B000DFF8BCA10022012503264FF00F090AF145
:1004C000040BAAF1040E00BF0B6805FA02F42340E6
:1004D000A34270D10F7907F00307012F01D0022F3B
:1004E00016D187684FEA420806FA08FC27EA0C078B
:1004F000D1F80CC00CFA08FC4CEA070CC0F808C094
:100500004768A7430C79C4F3001494403C4344600B
:100510000C79E443A4070AD0C4684FEA420C06FAF7
:100520000CF7BC438F6807FA0CF72743C7600C79B8
:1005300004F00304022C12D1D40800EB840CDCF884
:1005400020405707FF0E09FA07F824EA0804D1F8FB
:10055000108008FA07F848EA0408CCF820800468FC
:100560004FEA420C06FA0CF7BC430F7907F0030779
:1005700007FA0CF7274307604C6814F4403F70D02B
:100580003C4C276847F480472760246822F0030723
:1005900004F480440094384C07EB040CDCF8084861
:1005A00097074FEA177809FA08F7BC43334FB84268
:1005B00002D1002724E054E0314FB84201D1012795
:1005C0001EE0304FB84201D1022719E02E4FB84249
:1005D00001D1032714E02D4FB84201D104270FE0C9
:1005E0002B4FB84201D105270AE02A4FB84201D16A
:1005F000062705E0284FB84201D1072700E0082769
:1006000007FA08F72743CCF80878DAF8004057468D
:10061000D1F804C09C435FEACC2C00D51C433C605D
:10062000DBF800405F46D1F804C09C435FEA8C2CA5
:1006300000D51C433C60DEF800407746D1F804C08A
:100640009C435FEA8C3C00D51C433C60084F083F4C
:100650003C68D1F804C09C435FEACC3C00D51C4305
:100660003C60521C102AFFF42FAFBDE8F88F000049
:10067000083C014044380240003001400000024084
:100680000004024000080240000C0240001002403A
:100690000014024000180240001C0240014880681B
:1006A000704700000000002070B5040025D094F8C9
:1006B0003D00002520B984F83C50204600F04EF95A
:1006C000242084F83D002068016821F001010160C8
:1006D0002068016841F4004101602068016821F44C
:1006E0000041016000F094FA4D4A6168914201D8DE
:1006F0004C4900E04C49884201D2012070BD4B4971
:100700002368B0FBF1F15E6826F03F060E435E60A1
:100710006368934206D94FF4967359434FF47A7342
:10072000B1FBF3F12368491C1E6A26F03F063143F2
:1007300019626168914210D84900401EB0FBF1F285
:10074000521CC2F30B02042A01D2042022E0B0FBA7
:10075000F1F0401CC0F30B001CE0A268F2B301EB07
:10076000C10303EB0116431EB3FBF6F35B1C43F41A
:1007700080431B0549D092B301EBC10202EB01118A
:10078000401EB0FBF1F0401CC0F30B0040F4804071
:1007900040F400402168CA694CF6FF739A43104345
:1007A000C861D4E9071001432068026822F0C00242
:1007B00011430160D4E9030101432068826848F2D3
:1007C000FF339A4311438160D4E90501084321684E
:1007D000CA6822F0FF021043C86001E00EE016E094
:1007E0002068016841F0010101602564202084F83F
:1007F0003D00256384F83E50002070BD01EB4106AA
:10080000431EB3FBF6F35B1CB3E70120C2E701EB29
:100810004101401EB0FBF1F0401CC0F30B00B7E7F4
:10082000A086010080841E0000093D0040420F00A8
:100830002DE9F84F1F4690468A460446DDF8289079
:10084000FFF72CFF054694F83D0020287FD119239F
:10085000012240492046009500F0EEFC002876D1A8
:1008600094F83C00012872D0012084F83C002068F4
:100870000168C90703D1016841F0010101602068E6
:10088000016821F400610160212084F83D001020FE
:1008900084F83E0000262664C4F824806785608DB5
:1008A00020852D48E0622B464A465146204600F0FE
:1008B00049FC90B9206841698069009036E02A4679
:1008C0004946204600F05EFD50B1206C042804D15A
:1008D0002068016841F4007101600120BDE8F88FD3
:1008E000606A216800780861606A401C6062618DFE
:1008F000491E6185218D491E89B22185226853696F
:10090000DB435B070BD451B100781061606A401C77
:100910006062608D401E6085208D401E20852A46C5
:100920004946204600F05CFC0028CED1208D0028EE
:10093000C5D154F83D0B016841F4007101602020DD
:1009400004F81E09E67766770020C7E7FFE7022074
:10095000C4E70000020010000000FFFF10B586B0E1
:10096000044614216846FFF728FD13492068884291
:1009700020D112480021026842F0020202600068A1
:1009800000F002000590C02000901220CDE9010186
:10099000032003900420049069460948FFF786FD70
:1009A00006481030016841F400110160006800F44D
:1009B0000010059006B010BD0054004030380240D1
:1009C0000004024002488168027811448160704747
:1009D000000000200B4810B5016841F4007101606F
:1009E000016841F480610160016841F48071016037
:1009F000032000F061F80F2000F006F800F024F862
:100A0000002010BD003C024070B50D4D04464FF46F
:100A10007A712878B1FBF0F00A490968B1FBF0F06F
:100A200000F0FEFA48B9102C07D200222146501ED1
:100A300000F022F800206C6070BD012070BD000045
:100A4000000000200C0000200A4808B5016841F4AD
:100A500080410160006800F4804000900548001F5C
:100A6000016841F080510160006800F08050009002
:100A700008BD000044380240F0B40E4B1B680C4621
:100A8000C3F30223C3F10705042D00D90425191D62
:100A9000072901D2002300E0DB1E012606FA05F13A
:100AA000491E214099409E40761E16403143F0BCBD
:100AB00000F073BD0CED00E0064900F00702086885
:100AC0004FF6FF03184040EA0220034A1043086033
:100AD000704700000CED00E00000FA052DE9F0473A
:100AE0000E46050065D0DFF81481D8F80000F7B293
:100AF00000F00700B04207D288F80070D8F8000074
:100B000000F00700B04254D128683D4C810712D54F
:100B1000400703D5206840F4E050206028780007A3
:100B200003D5206840F4604020602068A96820F068
:100B3000F000084320602878C0072DD0304968684D
:100B40000839012812D0022813D0032811D00968CF
:100B5000890700292DDA216821F003010143216072
:100B6000FFF79CFD814641F2883A0EE0096889034F
:100B7000EFE709688901ECE7FFF790FDA0EB0901B9
:100B8000514502D90320BDE8F0872068696800F06C
:100B90000C00B0EB810FEFD1D8F80010404601F007
:100BA0000701B14207D90770006800F00700B042A2
:100BB00001D00120E7E72878400705D52068E968DB
:100BC00020F4E050084320602878000706D520680C
:100BD000296920F4604040EAC100206000F038F844
:100BE0002168084AC1F30311515CC84006490860F6
:100BF00006480068FFF708FF0020C4E7003C0240F9
:100C000008380240AD1600080C0000200400002047
:100C10000448054900680968044AC1F38221515C0F
:100C2000C84070470C00002008380240BD1600087C
:100C30000448054900680968044AC1F34231515C1F
:100C4000C84070470C00002008380240BD1600085C
:100C5000154810B5006810F00C02144813D0144960
:100C6000042A0FD0082A0ED10F4C241F22682368B3
:100C700002F03F025B0207D52068C0F38810A0FB9A
:100C8000010106E0084610BD2168C1F38811A1FBEF
:100C900000010023FFF7E8FA2168C1F30141491C74
:100CA0004900B0FBF1F010BD083802400024F40008
:100CB00040787D012DE9F84F04006ED02078DFF8F0
:100CC0004C93C007A9F104054AD009F1040001685A
:100CD000C1F38101012908D00068C0F38100022816
:100CE0000AD1D9F80000400206D52868800337D51C
:100CF00060680028E1D033E06068B0F5803F10D034
:100D0000B0F5A02F286810D020F480302860286823
:100D100020F4802028606068A8B1FFF7BFFC064679
:100D20000DE0286840F48030F4E740F4802028602B
:100D3000F7E700BFFFF7B2FC801B642873D8286870
:100D40008003F7D50CE0FFF7A9FC064605E000BFDD
:100D5000FFF7A4FC801B6428F0D828688003F7D430
:100D60002078DFF8AC8280074FF0000A3ED5A74814
:100D7000001D016811F00C0F08D00068C0F381005D
:100D800002280BD1D9F80000400207D42868800758
:100D900016D5E068012800D112E033E1E068B8B16F
:100DA0000120C8F80000FFF779FC064605E000BF07
:100DB000FFF774FC801B0228C0D828688007F7D58D
:100DC0002868216920F0F80040EAC10028600DE0A1
:100DD000C8F800A0FFF762FC064604E0FFF75EFCDF
:100DE000801B02281FD828688007F7D420780007C6
:100DF00022D5864F87486169703771B10121016042
:100E0000FFF74CFC064604E0FFF748FC801B022875
:100E100009D838688007F7D50EE0C0F800A0FFF7C2
:100E20003DFC064605E082E0FFF738FC801B022807
:100E30007DD838688007F7D42078400768D5DFF878
:100E4000CCB100270BF13C0BDBF80000C0000BD449
:100E5000DBF8001041F08051CBF80010DBF8000007
:100E6000012700F0805000906B4E3068C00510D410
:100E7000306840F480703060FFF710FC009005E0AF
:100E8000FFF70CFC0099401A022850D83068C005C2
:100E9000F6D55E4EA0686C3601280FD00528306864
:100EA00010D020F001003060306820F00400306085
:100EB000A068B8B1FFF7F2FB00900FE0306840F097
:100EC0000100F4E740F004003060F7E7FFF7E6FBCD
:100ED0000099411A41F28830814266D83068800713
:100EE000F4D50EE0FFF7DAFB009007E0FFF7D6FB42
:100EF0000099411A41F28830814256D83068800703
:100F0000F4D42FB1DBF8001021F08051CBF80010A1
:100F1000A069C8B33D49091D0968C1F381010229CF
:100F20004AD00228504607D0C8F8600000E03CE0F4
:100F3000FFF7B4FB04463BE04746C8F86000FFF704
:100F4000ADFB064605E000BFFFF7A8FB801B0228AB
:100F50002BD828688001F7D4D4E907010843A16A97
:100F60002E4A490802EB0141626A41EA82110843B4
:100F700094F82C1040EA0161C9F80010012038668D
:100F8000FFF78CFB044606E03EE000BFFFF786FB60
:100F9000001B022809D828688001F7D534E000BF7B
:100FA000FFF77CFB001B022802D90320BDE8F88F65
:100FB00028688001F4D427E00128F7D0D9F8000090
:100FC000E26900F4800191421CD1226A00F03F01E5
:100FD000914217D147F6C071626A0140B1EB821F9E
:100FE00010D1A26A4FF0FF3300F4403103EB5202FC
:100FF000B1EB024F06D194F82C1000F07060B0EB0A
:10100000016F01D00120D1E70020CFE70438024072
:1010100000004742800E4742007000400000FFFF82
:1010200010B5401EB0F1807F01D3012010BD4FF0FC
:10103000E02460610F21601700F0AFFA0020A0618A
:1010400007202061002010BD70B5040004D094F882
:101050004100002510B106E0012070BD84F8405029
:10106000204600F023F8242084F841002068C1685D
:1010700021F40051C160204600F008FA206801699F
:1010800021F4904101612068416921F02A01416108
:101090002068C16841F40051C1606564202084F873
:1010A000410084F842006563002070BD10B586B031
:1010B000044614216846FFF780F9134920688842E6
:1010C0001FD112480021026842F400220260006829
:1010D00000F4002005900D481038026842F001022B
:1010E00002600068022200F0010005900320CDE9B3
:1010F0000210CDE900020820049069460448FFF779
:10110000D5F906B010BD0000004C00404038024048
:1011100000000240FEE701684A69D24352050FD43D
:101120006FF480624A61002140F8301F2022427330
:101130008173026942F00402026101730120704769
:1011400000207047F8B50446C06A1E460D46174693
:10115000082807D0012805D010F5803F02D0206B69
:10116000122804D12068016841F48071016013469F
:1011700000224FF001112046009600F05DF840B1CA
:1011800020680068C00502D54FF400702064032079
:10119000F8BD2069B0F5804F0ED00620216800EA26
:1011A000D51040F0F000086133463A460B4920461E
:1011B00000F08AF878B902E005F0FE0000E0E8B23D
:1011C00021680861054933463A46891F204600F0E8
:1011D0007BF80028DCD00120F8BD000008000100E9
:1011E00070B516460D4604461EE02046FFF793FFF5
:1011F00008B1012070BD681C16D0FFF74FFA801BA4
:10120000A84200D885B920684069C04340070BD583
:10121000002044F8300F20216173A073216941F050
:10122000200121612073E4E720684069C043400742
:10123000DBD4002070BD00002DE9F047984617462A
:101240000D460446C1F30746DDF820902AE000BFB2
:10125000B8F1FF3F26D0FFF721FAA0EB0901414585
:1012600002D8B8F1000F1DD12068012E16D0806978
:1012700025EA00000004000C12D00020B84211D171
:10128000002044F8300F20216173A073216941F0E0
:101290002001216120730120BDE8F0874069E7E764
:1012A0000120EBE72068012E0AD0806925EA0000C2
:1012B0000004000C06D00020B842C9D00020EBE7A3
:1012C0004069F3E70120F7E72DE9F0479846164615
:1012D0000D4604464FF000094FF0200AC1F30747BE
:1012E00023E020684069C043400515D420680168A8
:1012F00041F40071016021686FF480604861C4F8B6
:10130000309084F83DA084F83E90216C41F00401B7
:10131000216484F83C9021E0701C06D0FFF7BEF9F0
:10132000A0EB0800B04203D816B1012F1FD021E076
:101330002068012F15D0806925EA00000004000C08
:1013400018D000BF44F8309F84F80DA084F80E90A8
:10135000216941F02001216184F80C900120BDE851
:10136000F087406925EA00000004000CEAD12068FB
:10137000406901E02068806925EA00000004000C53
:10138000AFD1ECE770B516460D4604461EE0204688
:10139000FFF7C1FE08B1012070BD681C16D0FFF731
:1013A0007DF9801BA84200D885B920684069C043F8
:1013B00000060BD5002044F8300F20216173A07384
:1013C000216941F0200121612073E4E72068406930
:1013D000C0430006DBD4002070BDFEE7FEE7704787
:1013E0007047FFF7EFBA000030B593B03021684680
:1013F000FEF7E3FF14210CA8FEF7DFFF1D480025D0
:10140000016841F080510160006800F08050119047
:101410001948016841F4804101600068022400F429
:1014200080401190012003901020049000940694B5
:101430000820CDE90750A820CDE9090404200B902D
:101440006846FFF737FC08B172B6FEE70CA90F201B
:1014500081E831004FF4A0500F904FF4805010906D
:1014600005210CA8FFF73AFB002801D072B6FEE771
:1014700013B030BD4038024000700040024801689F
:1014800041F470010160704788ED00E070B50446DA
:1014900000680169E26821F440511143016121694A
:1014A000A068E26908436169114308432168CA687A
:1014B00049F20C639A430243CA6020684169A269F9
:1014C00021F440711143416131492068884202D0C2
:1014D0003049884202D1FFF7ABFB01E0FFF798FBF0
:1014E000E2690023192164253226B2F5004F6268B3
:1014F00028D0A0FB0101930F9200FEF7B5FE014634
:10150000B0FBF5F06FF01802504301EB800006EBE2
:101510000010B0FBF5F000F0F002B1FBF5F002EBCB
:101520000012B1FBF5F06FF01803584301EB800097
:1015300006EB0010B0FBF5F000F00F00216810443E
:10154000886070BDA0FB010192185B41FEF78CFE24
:101550000146B0FBF5F00201B1FBF5F06FF01803A6
:10156000584301EB800006EBC000B0FBF5F000F043
:10157000F80002EB4002B1FBF5F0584301EB8000AC
:1015800006EBC000B0FBF5F000F00700D6E7000066
:101590000010014000140140FEE70907090E002871
:1015A00004DB00F1E02080F80014704700F00F0029
:1015B00000F1E02080F8141D7047000088B0FFF7AC
:1015C00009FAFFF711FF2A480024016841F0800161
:1015D0000160016801F080010091016841F00101A2
:1015E0000160016801F001010091016841F0020110
:1015F000016000681F4900F0020000901E48016071
:101600001E49C0E901144FF48041C0E9034144611F
:101610008461C4610462FFF747F808B172B6FEE75F
:1016200015481749543001604FF4E131C0E9011405
:101630000C21C460C0E904418461C461FFF704FD6A
:1016400008B172B6FEE71C220E4901A8FEF783FE20
:101650004FF0FF344FF47A75192301AAD0210648C0
:101660000094FFF7E5F82846FEF70EFFF4E70000C8
:10167000303802400054004010000020A0860100D5
:10168000004C0040941600084FF04070E1EE100A44
:10169000704700006D61737465722073656E64201D
:1016A000313430330A0D000000000000000000005B
:1016B0000000000000010203040607080900000002
:1016C0000001020304000000E816000800000020EA
:1016D00010000000C4010008F816000810000020E7
:1016E00000070000E00100080100000010000000F9
:0816F000000000000024F400DA
:040000050800018965
:00000001FF
